{
  "_format": "hh-sol-artifact-1",
  "contractName": "AutoDepositProxy",
  "sourceName": "contracts/core/AutoDepositProxy.sol",
  "abi": [
    {
      "inputs": [
        {
          "internalType": "address",
          "name": "_vault",
          "type": "address"
        },
        {
          "internalType": "address",
          "name": "_token",
          "type": "address"
        },
        {
          "internalType": "address",
          "name": "_beneficiary",
          "type": "address"
        }
      ],
      "stateMutability": "nonpayable",
      "type": "constructor"
    },
    {
      "anonymous": false,
      "inputs": [
        {
          "indexed": true,
          "internalType": "address",
          "name": "beneficiary",
          "type": "address"
        },
        {
          "indexed": false,
          "internalType": "uint256",
          "name": "tokenAmount",
          "type": "uint256"
        },
        {
          "indexed": false,
          "internalType": "uint256",
          "name": "sharesReceived",
          "type": "uint256"
        }
      ],
      "name": "AutoDeposit",
      "type": "event"
    },
    {
      "stateMutability": "nonpayable",
      "type": "fallback"
    },
    {
      "inputs": [],
      "name": "autoDeposit",
      "outputs": [],
      "stateMutability": "nonpayable",
      "type": "function"
    },
    {
      "inputs": [],
      "name": "beneficiary",
      "outputs": [
        {
          "internalType": "address",
          "name": "",
          "type": "address"
        }
      ],
      "stateMutability": "view",
      "type": "function"
    },
    {
      "inputs": [],
      "name": "emergencyWithdraw",
      "outputs": [],
      "stateMutability": "nonpayable",
      "type": "function"
    },
    {
      "inputs": [],
      "name": "pendingDeposit",
      "outputs": [
        {
          "internalType": "uint256",
          "name": "",
          "type": "uint256"
        }
      ],
      "stateMutability": "view",
      "type": "function"
    },
    {
      "inputs": [],
      "name": "token",
      "outputs": [
        {
          "internalType": "contract IERC20",
          "name": "",
          "type": "address"
        }
      ],
      "stateMutability": "view",
      "type": "function"
    },
    {
      "inputs": [],
      "name": "vault",
      "outputs": [
        {
          "internalType": "address",
          "name": "",
          "type": "address"
        }
      ],
      "stateMutability": "view",
      "type": "function"
    },
    {
      "stateMutability": "payable",
      "type": "receive"
    }
  ],
  "bytecode": "0x60e0806040523461013e57606081610a3e803803809161001f8285610206565b83398101031261013e576100328161023f565b61004a60406100436020850161023f565b930161023f565b6001600160a01b0382169290919083156101d1576001600160a01b031690811561019c576001600160a01b03831615610157576000936020936044926080528360a05260c052604051948593849263095ea7b360e01b84526004840152811960248401525af1801561014b5761010e575b6040516107ea9081610254823960805181818161012101526105fd015260a05181818160dd015281816101790152818161023f0152610553015260c05181818161020e015281816104ea01526105c40152f35b6020813d602011610143575b8161012760209383610206565b8101031261013e57518015150361013e57386100bb565b600080fd5b3d915061011a565b6040513d6000823e3d90fd5b60405162461bcd60e51b815260206004820152601360248201527f496e76616c69642062656e6566696369617279000000000000000000000000006044820152606490fd5b60405162461bcd60e51b815260206004820152600d60248201526c24b73b30b634b2103a37b5b2b760991b6044820152606490fd5b60405162461bcd60e51b815260206004820152600d60248201526c125b9d985b1a59081d985d5b1d609a1b6044820152606490fd5b601f909101601f19168101906001600160401b0382119082101761022957604052565b634e487b7160e01b600052604160045260246000fd5b51906001600160a01b038216820361013e5756fe608080604052600436101561006e575b50361561002a573461002557610023610530565b005b600080fd5b606460405162461bcd60e51b815260206004820152601060248201527f455448206e6f74206163636570746564000000000000000000000000000000006044820152fd5b60003560e01c90816338af3eed146104cc5750806375d20a3b146104b3578063db2e21bc146101f3578063f64c6f3214610145578063fbfa77cf146101015763fc0c546a146100bd573861000f565b346100255760003660031901126100255760206040516001600160a01b037f0000000000000000000000000000000000000000000000000000000000000000168152f35b346100255760003660031901126100255760206040516001600160a01b037f0000000000000000000000000000000000000000000000000000000000000000168152f35b34610025576000366003190112610025576040516370a0823160e01b81523060048201526020816024816001600160a01b037f0000000000000000000000000000000000000000000000000000000000000000165afa80156101e7576000906101b4575b602090604051908152f35b506020813d6020116101df575b816101ce6020938361050e565b8101031261002557602090516101a9565b3d91506101c1565b6040513d6000823e3d90fd5b34610025576000366003190112610025576001600160a01b037f00000000000000000000000000000000000000000000000000000000000000001680330361046f576001600160a01b037f0000000000000000000000000000000000000000000000000000000000000000166040516370a0823160e01b8152306004820152602081602481855afa9081156101e75760009161043a575b508061029257005b6040519060208201937fa9059cbb00000000000000000000000000000000000000000000000000000000855260248301526044820152604481526102d760648261050e565b6000806040948551936102ea878661050e565b602085527f5361666545524332303a206c6f772d6c6576656c2063616c6c206661696c65646020860152519082865af13d1561042d573d9067ffffffffffffffff82116103fe57845161035c94909261034d601f8201601f19166020018561050e565b83523d6000602085013e6106e5565b80519081159182156103db575b50501561037257005b6084905162461bcd60e51b815260206004820152602a60248201527f5361666545524332303a204552433230206f7065726174696f6e20646964206e60448201527f6f742073756363656564000000000000000000000000000000000000000000006064820152fd5b819250906020918101031261002557602001518015158103610025578280610369565b7f4e487b7100000000000000000000000000000000000000000000000000000000600052604160045260246000fd5b9161035c926060916106e5565b906020823d602011610467575b816104546020938361050e565b810103126104645750518361028a565b80fd5b3d9150610447565b606460405162461bcd60e51b815260206004820152601060248201527f4f6e6c792062656e6566696369617279000000000000000000000000000000006044820152fd5b3461002557600036600319011261002557610023610530565b34610025576000366003190112610025576020906001600160a01b037f0000000000000000000000000000000000000000000000000000000000000000168152f35b90601f8019910116810190811067ffffffffffffffff8211176103fe57604052565b6040516370a0823160e01b81523060048201526020816024816001600160a01b037f0000000000000000000000000000000000000000000000000000000000000000165afa9081156101e7576000916106b3575b508061058d5750565b604051907f6e553f650000000000000000000000000000000000000000000000000000000082528060048301526001600160a01b037f0000000000000000000000000000000000000000000000000000000000000000169182602482015260208160448160006001600160a01b037f0000000000000000000000000000000000000000000000000000000000000000165af19081156101e757600091610661575b507f89f2bf211df552a9cddc4f4fb8f63b5d5cd8bfdd5a74eebaf4e2cd143dcaf2739160409182519182526020820152a2565b90506020813d6020116106ab575b8161067c6020938361050e565b8101031261002557517f89f2bf211df552a9cddc4f4fb8f63b5d5cd8bfdd5a74eebaf4e2cd143dcaf27361062e565b3d915061066f565b906020823d6020116106dd575b816106cd6020938361050e565b8101031261046457505138610584565b3d91506106c0565b9192901561074657508151156106f9575090565b3b156107025790565b606460405162461bcd60e51b815260206004820152601d60248201527f416464726573733a2063616c6c20746f206e6f6e2d636f6e74726163740000006044820152fd5b8251909150156107595750805190602001fd5b6040519062461bcd60e51b8252602060048301528181519182602483015260005b83811061079c5750508160006044809484010152601f80199101168101030190fd5b6020828201810151604487840101528593500161077a56fea264697066735822122026bca2df192b6423e8b17d7c2193b14dbf6b927ec7661e0bfb73db507e92ac0464736f6c634300081c0033",
  "linkReferences": {},
  "deployedLinkReferences": {}
}