{
  "address": "0xc5B0AfBE7D3A1EA557CfDDe80feDE352580D1457",
  "abi": [
    {
      "anonymous": false,
      "inputs": [
        {
          "indexed": true,
          "internalType": "address",
          "name": "previousOwner",
          "type": "address"
        },
        {
          "indexed": true,
          "internalType": "address",
          "name": "newOwner",
          "type": "address"
        }
      ],
      "name": "OwnershipTransferred",
      "type": "event"
    },
    {
      "anonymous": false,
      "inputs": [
        {
          "indexed": false,
          "internalType": "address",
          "name": "sybil",
          "type": "address"
        },
        {
          "indexed": false,
          "internalType": "address[]",
          "name": "assets",
          "type": "address[]"
        },
        {
          "indexed": false,
          "internalType": "uint128[]",
          "name": "prices",
          "type": "uint128[]"
        }
      ],
      "name": "PricesSubmitted",
      "type": "event"
    },
    {
      "anonymous": false,
      "inputs": [
        {
          "indexed": true,
          "internalType": "address",
          "name": "sybil",
          "type": "address"
        }
      ],
      "name": "SybilAuthorized",
      "type": "event"
    },
    {
      "anonymous": false,
      "inputs": [
        {
          "indexed": true,
          "internalType": "address",
          "name": "sybil",
          "type": "address"
        }
      ],
      "name": "SybilUnauthorized",
      "type": "event"
    },
    {
      "inputs": [],
      "name": "PERCENTAGE_BASE",
      "outputs": [
        {
          "internalType": "uint256",
          "name": "",
          "type": "uint256"
        }
      ],
      "stateMutability": "view",
      "type": "function"
    },
    {
      "inputs": [
        {
          "internalType": "address",
          "name": "sybil",
          "type": "address"
        }
      ],
      "name": "authorizeSybil",
      "outputs": [],
      "stateMutability": "nonpayable",
      "type": "function"
    },
    {
      "inputs": [
        {
          "internalType": "uint256",
          "name": "deviation",
          "type": "uint256"
        },
        {
          "internalType": "address[]",
          "name": "assets",
          "type": "address[]"
        },
        {
          "internalType": "uint256[]",
          "name": "candidatePrices",
          "type": "uint256[]"
        }
      ],
      "name": "filterCandidatePricesByDeviation",
      "outputs": [
        {
          "internalType": "address[]",
          "name": "",
          "type": "address[]"
        },
        {
          "internalType": "uint256[]",
          "name": "",
          "type": "uint256[]"
        }
      ],
      "stateMutability": "view",
      "type": "function"
    },
    {
      "inputs": [
        {
          "internalType": "address",
          "name": "asset",
          "type": "address"
        }
      ],
      "name": "getAssetPrice",
      "outputs": [
        {
          "internalType": "uint256",
          "name": "",
          "type": "uint256"
        }
      ],
      "stateMutability": "view",
      "type": "function"
    },
    {
      "inputs": [
        {
          "internalType": "address[]",
          "name": "assets",
          "type": "address[]"
        }
      ],
      "name": "getPricesData",
      "outputs": [
        {
          "components": [
            {
              "internalType": "uint64",
              "name": "blockNumber",
              "type": "uint64"
            },
            {
              "internalType": "uint64",
              "name": "blockTimestamp",
              "type": "uint64"
            },
            {
              "internalType": "uint128",
              "name": "price",
              "type": "uint128"
            }
          ],
          "internalType": "struct AaveFallbackOracle.Price[]",
          "name": "",
          "type": "tuple[]"
        }
      ],
      "stateMutability": "view",
      "type": "function"
    },
    {
      "inputs": [
        {
          "internalType": "address",
          "name": "sybil",
          "type": "address"
        }
      ],
      "name": "isSybilWhitelisted",
      "outputs": [
        {
          "internalType": "bool",
          "name": "",
          "type": "bool"
        }
      ],
      "stateMutability": "view",
      "type": "function"
    },
    {
      "inputs": [],
      "name": "owner",
      "outputs": [
        {
          "internalType": "address",
          "name": "",
          "type": "address"
        }
      ],
      "stateMutability": "view",
      "type": "function"
    },
    {
      "inputs": [],
      "name": "renounceOwnership",
      "outputs": [],
      "stateMutability": "nonpayable",
      "type": "function"
    },
    {
      "inputs": [
        {
          "internalType": "address[]",
          "name": "assets",
          "type": "address[]"
        },
        {
          "internalType": "uint128[]",
          "name": "prices",
          "type": "uint128[]"
        }
      ],
      "name": "submitPrices",
      "outputs": [],
      "stateMutability": "nonpayable",
      "type": "function"
    },
    {
      "inputs": [
        {
          "internalType": "address",
          "name": "newOwner",
          "type": "address"
        }
      ],
      "name": "transferOwnership",
      "outputs": [],
      "stateMutability": "nonpayable",
      "type": "function"
    },
    {
      "inputs": [
        {
          "internalType": "address",
          "name": "sybil",
          "type": "address"
        }
      ],
      "name": "unauthorizeSybil",
      "outputs": [],
      "stateMutability": "nonpayable",
      "type": "function"
    }
  ],
  "transactionHash": "0x472dab5067a09493c0112cc6f3ed10af773c5f5f49ca6ad734b8b1890c5e9f90",
  "args": [],
  "numDeployments": 1,
  "solcInputHash": "21352530cbf5d70453a819d1cdf65889",
  "bytecode": "0x608060405234801561001057600080fd5b5061001a3361001f565b61006f565b600080546001600160a01b038381166001600160a01b0319831681178455604051919092169283917f8be0079c531659141344cd1fd0a4f28419497f9722a3daafe3b4186f6b6457e09190a35050565b6113068061007e6000396000f3fe608060405234801561001057600080fd5b50600436106100c95760003560e01c8063715018a611610081578063b3596f071161005b578063b3596f07146101cc578063f2be88cd14610228578063f2fde38b1461023b57600080fd5b8063715018a61461018557806387c139431461018d5780638da5cb5b146101a457600080fd5b806342136b08116100b257806342136b08146101315780635e91734c146101515780635f1e09d91461016457600080fd5b80630e5665e6146100ce57806330d454f0146100e3575b600080fd5b6100e16100dc366004610dff565b61024e565b005b61011c6100f1366004610e94565b73ffffffffffffffffffffffffffffffffffffffff1660009081526002602052604090205460ff1690565b60405190151581526020015b60405180910390f35b61014461013f366004610eaf565b610467565b6040516101289190610ef1565b6100e161015f366004610e94565b6105e0565b610177610172366004610f69565b61065f565b604051610128929190610fe3565b6100e1610ab0565b61019661271081565b604051908152602001610128565b60005460405173ffffffffffffffffffffffffffffffffffffffff9091168152602001610128565b6101966101da366004610e94565b73ffffffffffffffffffffffffffffffffffffffff1660009081526001602052604090205470010000000000000000000000000000000090046fffffffffffffffffffffffffffffffff1690565b6100e1610236366004610e94565b610ac4565b6100e1610249366004610e94565b610b40565b61025733610bf7565b8281146102c5576040517f08c379a000000000000000000000000000000000000000000000000000000000815260206004820152601a60248201527f494e434f4e53495354454e545f504152414d535f4c454e47544800000000000060448201526064015b60405180910390fd5b60005b838110156104215760405180606001604052804367ffffffffffffffff1681526020014267ffffffffffffffff16815260200184848481811061030d5761030d611074565b905060200201602081019061032291906110c3565b6fffffffffffffffffffffffffffffffff1690526001600087878581811061034c5761034c611074565b90506020020160208101906103619190610e94565b73ffffffffffffffffffffffffffffffffffffffff1681526020808201929092526040908101600020835181549385015194909201516fffffffffffffffffffffffffffffffff9081167001000000000000000000000000000000000267ffffffffffffffff95861668010000000000000000027fffffffffffffffffffffffffffffffff0000000000000000000000000000000090951695909316949094179290921792909216919091179055806104198161110d565b9150506102c8565b507f995dd01082df56f242aad7e0a6f87116e5d4c972ab8377309354fa2bd0de3e593385858585604051610459959493929190611146565b60405180910390a150505050565b606060008267ffffffffffffffff811115610484576104846111fa565b6040519080825280602002602001820160405280156104ed57816020015b60408051606081018252600080825260208083018290529282015282527fffffffffffffffffffffffffffffffffffffffffffffffffffffffffffffffff9092019101816104a25790505b50905060005b838110156105d8576001600086868481811061051157610511611074565b90506020020160208101906105269190610e94565b73ffffffffffffffffffffffffffffffffffffffff16815260208082019290925260409081016000208151606081018352905467ffffffffffffffff808216835268010000000000000000820416938201939093527001000000000000000000000000000000009092046fffffffffffffffffffffffffffffffff169082015282518390839081106105ba576105ba611074565b602002602001018190525080806105d09061110d565b9150506104f3565b509392505050565b6105e8610c86565b73ffffffffffffffffffffffffffffffffffffffff811660008181526002602052604080822080547fffffffffffffffffffffffffffffffffffffffffffffffffffffffffffffff00166001179055517fe7d975a644451bd7331add56a59563e5d19b661497948c38d25b9694874706739190a250565b6060808483146106cb576040517f08c379a000000000000000000000000000000000000000000000000000000000815260206004820152601a60248201527f494e434f4e53495354454e545f504152414d535f4c454e47544800000000000060448201526064016102bc565b60008567ffffffffffffffff8111156106e6576106e66111fa565b60405190808252806020026020018201604052801561070f578160200160208202803683370190505b50905060008667ffffffffffffffff81111561072d5761072d6111fa565b604051908082528060200260200182016040528015610756578160200160208202803683370190505b5090506000805b88811015610955576000600160008c8c8581811061077d5761077d611074565b90506020020160208101906107929190610e94565b73ffffffffffffffffffffffffffffffffffffffff1673ffffffffffffffffffffffffffffffffffffffff16815260200190815260200160002060000160109054906101000a90046fffffffffffffffffffffffffffffffff16905061083961271061083361080c8f612710610d0790919063ffffffff16565b8c8c8781811061081e5761081e611074565b90506020020135610d1a90919063ffffffff16565b90610d26565b816fffffffffffffffffffffffffffffffff161180610886575061087161271061083361080c8f612710610d3290919063ffffffff16565b816fffffffffffffffffffffffffffffffff16105b15610942578a8a8381811061089d5761089d611074565b90506020020160208101906108b29190610e94565b8584815181106108c4576108c4611074565b602002602001019073ffffffffffffffffffffffffffffffffffffffff16908173ffffffffffffffffffffffffffffffffffffffff168152505088888381811061091057610910611074565b9050602002013584848151811061092957610929611074565b60209081029190910101528261093e8161110d565b9350505b508061094d8161110d565b91505061075d565b5060008167ffffffffffffffff811115610971576109716111fa565b60405190808252806020026020018201604052801561099a578160200160208202803683370190505b50905060008267ffffffffffffffff8111156109b8576109b86111fa565b6040519080825280602002602001820160405280156109e1578160200160208202803683370190505b50905060005b83811015610a9e57858181518110610a0157610a01611074565b6020026020010151838281518110610a1b57610a1b611074565b602002602001019073ffffffffffffffffffffffffffffffffffffffff16908173ffffffffffffffffffffffffffffffffffffffff1681525050848181518110610a6757610a67611074565b6020026020010151828281518110610a8157610a81611074565b602090810291909101015280610a968161110d565b9150506109e7565b50909b909a5098505050505050505050565b610ab8610c86565b610ac26000610d3e565b565b610acc610c86565b73ffffffffffffffffffffffffffffffffffffffff811660008181526002602052604080822080547fffffffffffffffffffffffffffffffffffffffffffffffffffffffffffffff00169055517f8bde64628aa5dae6d1c378a97b785745a4db9beaa7d503f91a8274c7b58d2f019190a250565b610b48610c86565b73ffffffffffffffffffffffffffffffffffffffff8116610beb576040517f08c379a000000000000000000000000000000000000000000000000000000000815260206004820152602660248201527f4f776e61626c653a206e6577206f776e657220697320746865207a65726f206160448201527f646472657373000000000000000000000000000000000000000000000000000060648201526084016102bc565b610bf481610d3e565b50565b73ffffffffffffffffffffffffffffffffffffffff811660009081526002602052604090205460ff16610bf4576040517f08c379a000000000000000000000000000000000000000000000000000000000815260206004820152600d60248201527f494e56414c49445f535942494c0000000000000000000000000000000000000060448201526064016102bc565b60005473ffffffffffffffffffffffffffffffffffffffff163314610ac2576040517f08c379a000000000000000000000000000000000000000000000000000000000815260206004820181905260248201527f4f776e61626c653a2063616c6c6572206973206e6f7420746865206f776e657260448201526064016102bc565b6000610d138284611229565b9392505050565b6000610d138284611241565b6000610d13828461127e565b6000610d1382846112b9565b6000805473ffffffffffffffffffffffffffffffffffffffff8381167fffffffffffffffffffffffff0000000000000000000000000000000000000000831681178455604051919092169283917f8be0079c531659141344cd1fd0a4f28419497f9722a3daafe3b4186f6b6457e09190a35050565b60008083601f840112610dc557600080fd5b50813567ffffffffffffffff811115610ddd57600080fd5b6020830191508360208260051b8501011115610df857600080fd5b9250929050565b60008060008060408587031215610e1557600080fd5b843567ffffffffffffffff80821115610e2d57600080fd5b610e3988838901610db3565b90965094506020870135915080821115610e5257600080fd5b50610e5f87828801610db3565b95989497509550505050565b803573ffffffffffffffffffffffffffffffffffffffff81168114610e8f57600080fd5b919050565b600060208284031215610ea657600080fd5b610d1382610e6b565b60008060208385031215610ec257600080fd5b823567ffffffffffffffff811115610ed957600080fd5b610ee585828601610db3565b90969095509350505050565b602080825282518282018190526000919060409081850190868401855b82811015610f5c578151805167ffffffffffffffff90811686528782015116878601528501516fffffffffffffffffffffffffffffffff168585015260609093019290850190600101610f0e565b5091979650505050505050565b600080600080600060608688031215610f8157600080fd5b85359450602086013567ffffffffffffffff80821115610fa057600080fd5b610fac89838a01610db3565b90965094506040880135915080821115610fc557600080fd5b50610fd288828901610db3565b969995985093965092949392505050565b604080825283519082018190526000906020906060840190828701845b8281101561103257815173ffffffffffffffffffffffffffffffffffffffff1684529284019290840190600101611000565b5050508381038285015284518082528583019183019060005b818110156110675783518352928401929184019160010161104b565b5090979650505050505050565b7f4e487b7100000000000000000000000000000000000000000000000000000000600052603260045260246000fd5b80356fffffffffffffffffffffffffffffffff81168114610e8f57600080fd5b6000602082840312156110d557600080fd5b610d13826110a3565b7f4e487b7100000000000000000000000000000000000000000000000000000000600052601160045260246000fd5b60007fffffffffffffffffffffffffffffffffffffffffffffffffffffffffffffffff82141561113f5761113f6110de565b5060010190565b73ffffffffffffffffffffffffffffffffffffffff868116825260606020808401829052908301869052600091879160808501845b898110156111a0578361118d86610e6b565b168252938201939082019060010161117b565b5085810360408701528681528101925086915060005b868110156111eb576fffffffffffffffffffffffffffffffff6111d8846110a3565b16845292810192918101916001016111b6565b50919998505050505050505050565b7f4e487b7100000000000000000000000000000000000000000000000000000000600052604160045260246000fd5b6000821982111561123c5761123c6110de565b500190565b6000817fffffffffffffffffffffffffffffffffffffffffffffffffffffffffffffffff0483118215151615611279576112796110de565b500290565b6000826112b4577f4e487b7100000000000000000000000000000000000000000000000000000000600052601260045260246000fd5b500490565b6000828210156112cb576112cb6110de565b50039056fea264697066735822122085744ce5dcd9b206841abb7a0aaabc2af6db007ad104fb4b3a4f689ca85be4a964736f6c634300080a0033",
  "devdoc": {
    "kind": "dev",
    "methods": {
      "owner()": {
        "details": "Returns the address of the current owner."
      },
      "renounceOwnership()": {
        "details": "Leaves the contract without owner. It will not be possible to call `onlyOwner` functions anymore. Can only be called by the current owner. NOTE: Renouncing ownership will leave the contract without an owner, thereby removing any functionality that is only available to the owner."
      },
      "transferOwnership(address)": {
        "details": "Transfers ownership of the contract to a new account (`newOwner`). Can only be called by the current owner."
      }
    },
    "version": 1
  },
  "userdoc": {
    "kind": "user",
    "methods": {},
    "version": 1
  },
  "storageLayout": {
    "storage": [
      {
        "astId": 42905,
        "contract": "contracts/AaveFallbackOracle.sol:AaveFallbackOracle",
        "label": "_owner",
        "offset": 0,
        "slot": "0",
        "type": "t_address"
      },
      {
        "astId": 43396,
        "contract": "contracts/AaveFallbackOracle.sol:AaveFallbackOracle",
        "label": "_prices",
        "offset": 0,
        "slot": "1",
        "type": "t_mapping(t_address,t_struct(Price)43370_storage)"
      },
      {
        "astId": 43400,
        "contract": "contracts/AaveFallbackOracle.sol:AaveFallbackOracle",
        "label": "_sybils",
        "offset": 0,
        "slot": "2",
        "type": "t_mapping(t_address,t_bool)"
      }
    ],
    "types": {
      "t_address": {
        "encoding": "inplace",
        "label": "address",
        "numberOfBytes": "20"
      },
      "t_bool": {
        "encoding": "inplace",
        "label": "bool",
        "numberOfBytes": "1"
      },
      "t_mapping(t_address,t_bool)": {
        "encoding": "mapping",
        "key": "t_address",
        "label": "mapping(address => bool)",
        "numberOfBytes": "32",
        "value": "t_bool"
      },
      "t_mapping(t_address,t_struct(Price)43370_storage)": {
        "encoding": "mapping",
        "key": "t_address",
        "label": "mapping(address => struct AaveFallbackOracle.Price)",
        "numberOfBytes": "32",
        "value": "t_struct(Price)43370_storage"
      },
      "t_struct(Price)43370_storage": {
        "encoding": "inplace",
        "label": "struct AaveFallbackOracle.Price",
        "members": [
          {
            "astId": 43365,
            "contract": "contracts/AaveFallbackOracle.sol:AaveFallbackOracle",
            "label": "blockNumber",
            "offset": 0,
            "slot": "0",
            "type": "t_uint64"
          },
          {
            "astId": 43367,
            "contract": "contracts/AaveFallbackOracle.sol:AaveFallbackOracle",
            "label": "blockTimestamp",
            "offset": 8,
            "slot": "0",
            "type": "t_uint64"
          },
          {
            "astId": 43369,
            "contract": "contracts/AaveFallbackOracle.sol:AaveFallbackOracle",
            "label": "price",
            "offset": 16,
            "slot": "0",
            "type": "t_uint128"
          }
        ],
        "numberOfBytes": "32"
      },
      "t_uint128": {
        "encoding": "inplace",
        "label": "uint128",
        "numberOfBytes": "16"
      },
      "t_uint64": {
        "encoding": "inplace",
        "label": "uint64",
        "numberOfBytes": "8"
      }
    }
  }
}