{
  "address": "0x25B8c8Cf7168b1ea58FEecE36972751A301Dc6d0",
  "abi": [
    {
      "inputs": [
        {
          "internalType": "address",
          "name": "emissionManager",
          "type": "address"
        }
      ],
      "stateMutability": "nonpayable",
      "type": "constructor"
    },
    {
      "anonymous": false,
      "inputs": [
        {
          "indexed": true,
          "internalType": "address",
          "name": "asset",
          "type": "address"
        },
        {
          "indexed": true,
          "internalType": "address",
          "name": "reward",
          "type": "address"
        },
        {
          "indexed": true,
          "internalType": "address",
          "name": "user",
          "type": "address"
        },
        {
          "indexed": false,
          "internalType": "uint256",
          "name": "assetIndex",
          "type": "uint256"
        },
        {
          "indexed": false,
          "internalType": "uint256",
          "name": "userIndex",
          "type": "uint256"
        },
        {
          "indexed": false,
          "internalType": "uint256",
          "name": "rewardsAccrued",
          "type": "uint256"
        }
      ],
      "name": "Accrued",
      "type": "event"
    },
    {
      "anonymous": false,
      "inputs": [
        {
          "indexed": true,
          "internalType": "address",
          "name": "asset",
          "type": "address"
        },
        {
          "indexed": true,
          "internalType": "address",
          "name": "reward",
          "type": "address"
        },
        {
          "indexed": false,
          "internalType": "uint256",
          "name": "oldEmission",
          "type": "uint256"
        },
        {
          "indexed": false,
          "internalType": "uint256",
          "name": "newEmission",
          "type": "uint256"
        },
        {
          "indexed": false,
          "internalType": "uint256",
          "name": "oldDistributionEnd",
          "type": "uint256"
        },
        {
          "indexed": false,
          "internalType": "uint256",
          "name": "newDistributionEnd",
          "type": "uint256"
        },
        {
          "indexed": false,
          "internalType": "uint256",
          "name": "assetIndex",
          "type": "uint256"
        }
      ],
      "name": "AssetConfigUpdated",
      "type": "event"
    },
    {
      "anonymous": false,
      "inputs": [
        {
          "indexed": true,
          "internalType": "address",
          "name": "user",
          "type": "address"
        },
        {
          "indexed": true,
          "internalType": "address",
          "name": "claimer",
          "type": "address"
        }
      ],
      "name": "ClaimerSet",
      "type": "event"
    },
    {
      "anonymous": false,
      "inputs": [
        {
          "indexed": true,
          "internalType": "address",
          "name": "reward",
          "type": "address"
        },
        {
          "indexed": true,
          "internalType": "address",
          "name": "rewardOracle",
          "type": "address"
        }
      ],
      "name": "RewardOracleUpdated",
      "type": "event"
    },
    {
      "anonymous": false,
      "inputs": [
        {
          "indexed": true,
          "internalType": "address",
          "name": "user",
          "type": "address"
        },
        {
          "indexed": true,
          "internalType": "address",
          "name": "reward",
          "type": "address"
        },
        {
          "indexed": true,
          "internalType": "address",
          "name": "to",
          "type": "address"
        },
        {
          "indexed": false,
          "internalType": "address",
          "name": "claimer",
          "type": "address"
        },
        {
          "indexed": false,
          "internalType": "uint256",
          "name": "amount",
          "type": "uint256"
        }
      ],
      "name": "RewardsClaimed",
      "type": "event"
    },
    {
      "anonymous": false,
      "inputs": [
        {
          "indexed": true,
          "internalType": "address",
          "name": "reward",
          "type": "address"
        },
        {
          "indexed": true,
          "internalType": "address",
          "name": "transferStrategy",
          "type": "address"
        }
      ],
      "name": "TransferStrategyInstalled",
      "type": "event"
    },
    {
      "inputs": [],
      "name": "EMISSION_MANAGER",
      "outputs": [
        {
          "internalType": "address",
          "name": "",
          "type": "address"
        }
      ],
      "stateMutability": "view",
      "type": "function"
    },
    {
      "inputs": [],
      "name": "REVISION",
      "outputs": [
        {
          "internalType": "uint256",
          "name": "",
          "type": "uint256"
        }
      ],
      "stateMutability": "view",
      "type": "function"
    },
    {
      "inputs": [
        {
          "internalType": "address[]",
          "name": "assets",
          "type": "address[]"
        },
        {
          "internalType": "address",
          "name": "to",
          "type": "address"
        }
      ],
      "name": "claimAllRewards",
      "outputs": [
        {
          "internalType": "address[]",
          "name": "rewardsList",
          "type": "address[]"
        },
        {
          "internalType": "uint256[]",
          "name": "claimedAmounts",
          "type": "uint256[]"
        }
      ],
      "stateMutability": "nonpayable",
      "type": "function"
    },
    {
      "inputs": [
        {
          "internalType": "address[]",
          "name": "assets",
          "type": "address[]"
        },
        {
          "internalType": "address",
          "name": "user",
          "type": "address"
        },
        {
          "internalType": "address",
          "name": "to",
          "type": "address"
        }
      ],
      "name": "claimAllRewardsOnBehalf",
      "outputs": [
        {
          "internalType": "address[]",
          "name": "rewardsList",
          "type": "address[]"
        },
        {
          "internalType": "uint256[]",
          "name": "claimedAmounts",
          "type": "uint256[]"
        }
      ],
      "stateMutability": "nonpayable",
      "type": "function"
    },
    {
      "inputs": [
        {
          "internalType": "address[]",
          "name": "assets",
          "type": "address[]"
        }
      ],
      "name": "claimAllRewardsToSelf",
      "outputs": [
        {
          "internalType": "address[]",
          "name": "rewardsList",
          "type": "address[]"
        },
        {
          "internalType": "uint256[]",
          "name": "claimedAmounts",
          "type": "uint256[]"
        }
      ],
      "stateMutability": "nonpayable",
      "type": "function"
    },
    {
      "inputs": [
        {
          "internalType": "address[]",
          "name": "assets",
          "type": "address[]"
        },
        {
          "internalType": "uint256",
          "name": "amount",
          "type": "uint256"
        },
        {
          "internalType": "address",
          "name": "to",
          "type": "address"
        },
        {
          "internalType": "address",
          "name": "reward",
          "type": "address"
        }
      ],
      "name": "claimRewards",
      "outputs": [
        {
          "internalType": "uint256",
          "name": "",
          "type": "uint256"
        }
      ],
      "stateMutability": "nonpayable",
      "type": "function"
    },
    {
      "inputs": [
        {
          "internalType": "address[]",
          "name": "assets",
          "type": "address[]"
        },
        {
          "internalType": "uint256",
          "name": "amount",
          "type": "uint256"
        },
        {
          "internalType": "address",
          "name": "user",
          "type": "address"
        },
        {
          "internalType": "address",
          "name": "to",
          "type": "address"
        },
        {
          "internalType": "address",
          "name": "reward",
          "type": "address"
        }
      ],
      "name": "claimRewardsOnBehalf",
      "outputs": [
        {
          "internalType": "uint256",
          "name": "",
          "type": "uint256"
        }
      ],
      "stateMutability": "nonpayable",
      "type": "function"
    },
    {
      "inputs": [
        {
          "internalType": "address[]",
          "name": "assets",
          "type": "address[]"
        },
        {
          "internalType": "uint256",
          "name": "amount",
          "type": "uint256"
        },
        {
          "internalType": "address",
          "name": "reward",
          "type": "address"
        }
      ],
      "name": "claimRewardsToSelf",
      "outputs": [
        {
          "internalType": "uint256",
          "name": "",
          "type": "uint256"
        }
      ],
      "stateMutability": "nonpayable",
      "type": "function"
    },
    {
      "inputs": [
        {
          "components": [
            {
              "internalType": "uint88",
              "name": "emissionPerSecond",
              "type": "uint88"
            },
            {
              "internalType": "uint256",
              "name": "totalSupply",
              "type": "uint256"
            },
            {
              "internalType": "uint32",
              "name": "distributionEnd",
              "type": "uint32"
            },
            {
              "internalType": "address",
              "name": "asset",
              "type": "address"
            },
            {
              "internalType": "address",
              "name": "reward",
              "type": "address"
            },
            {
              "internalType": "contract ITransferStrategyBase",
              "name": "transferStrategy",
              "type": "address"
            },
            {
              "internalType": "contract IEACAggregatorProxy",
              "name": "rewardOracle",
              "type": "address"
            }
          ],
          "internalType": "struct RewardsDataTypes.RewardsConfigInput[]",
          "name": "config",
          "type": "tuple[]"
        }
      ],
      "name": "configureAssets",
      "outputs": [],
      "stateMutability": "nonpayable",
      "type": "function"
    },
    {
      "inputs": [
        {
          "internalType": "address[]",
          "name": "assets",
          "type": "address[]"
        },
        {
          "internalType": "address",
          "name": "user",
          "type": "address"
        }
      ],
      "name": "getAllUserRewards",
      "outputs": [
        {
          "internalType": "address[]",
          "name": "rewardsList",
          "type": "address[]"
        },
        {
          "internalType": "uint256[]",
          "name": "unclaimedAmounts",
          "type": "uint256[]"
        }
      ],
      "stateMutability": "view",
      "type": "function"
    },
    {
      "inputs": [
        {
          "internalType": "address",
          "name": "asset",
          "type": "address"
        }
      ],
      "name": "getAssetDecimals",
      "outputs": [
        {
          "internalType": "uint8",
          "name": "",
          "type": "uint8"
        }
      ],
      "stateMutability": "view",
      "type": "function"
    },
    {
      "inputs": [
        {
          "internalType": "address",
          "name": "asset",
          "type": "address"
        },
        {
          "internalType": "address",
          "name": "reward",
          "type": "address"
        }
      ],
      "name": "getAssetIndex",
      "outputs": [
        {
          "internalType": "uint256",
          "name": "",
          "type": "uint256"
        },
        {
          "internalType": "uint256",
          "name": "",
          "type": "uint256"
        }
      ],
      "stateMutability": "view",
      "type": "function"
    },
    {
      "inputs": [
        {
          "internalType": "address",
          "name": "user",
          "type": "address"
        }
      ],
      "name": "getClaimer",
      "outputs": [
        {
          "internalType": "address",
          "name": "",
          "type": "address"
        }
      ],
      "stateMutability": "view",
      "type": "function"
    },
    {
      "inputs": [
        {
          "internalType": "address",
          "name": "asset",
          "type": "address"
        },
        {
          "internalType": "address",
          "name": "reward",
          "type": "address"
        }
      ],
      "name": "getDistributionEnd",
      "outputs": [
        {
          "internalType": "uint256",
          "name": "",
          "type": "uint256"
        }
      ],
      "stateMutability": "view",
      "type": "function"
    },
    {
      "inputs": [],
      "name": "getEmissionManager",
      "outputs": [
        {
          "internalType": "address",
          "name": "",
          "type": "address"
        }
      ],
      "stateMutability": "view",
      "type": "function"
    },
    {
      "inputs": [
        {
          "internalType": "address",
          "name": "reward",
          "type": "address"
        }
      ],
      "name": "getRewardOracle",
      "outputs": [
        {
          "internalType": "address",
          "name": "",
          "type": "address"
        }
      ],
      "stateMutability": "view",
      "type": "function"
    },
    {
      "inputs": [
        {
          "internalType": "address",
          "name": "asset",
          "type": "address"
        }
      ],
      "name": "getRewardsByAsset",
      "outputs": [
        {
          "internalType": "address[]",
          "name": "",
          "type": "address[]"
        }
      ],
      "stateMutability": "view",
      "type": "function"
    },
    {
      "inputs": [
        {
          "internalType": "address",
          "name": "asset",
          "type": "address"
        },
        {
          "internalType": "address",
          "name": "reward",
          "type": "address"
        }
      ],
      "name": "getRewardsData",
      "outputs": [
        {
          "internalType": "uint256",
          "name": "",
          "type": "uint256"
        },
        {
          "internalType": "uint256",
          "name": "",
          "type": "uint256"
        },
        {
          "internalType": "uint256",
          "name": "",
          "type": "uint256"
        },
        {
          "internalType": "uint256",
          "name": "",
          "type": "uint256"
        }
      ],
      "stateMutability": "view",
      "type": "function"
    },
    {
      "inputs": [],
      "name": "getRewardsList",
      "outputs": [
        {
          "internalType": "address[]",
          "name": "",
          "type": "address[]"
        }
      ],
      "stateMutability": "view",
      "type": "function"
    },
    {
      "inputs": [
        {
          "internalType": "address",
          "name": "reward",
          "type": "address"
        }
      ],
      "name": "getTransferStrategy",
      "outputs": [
        {
          "internalType": "address",
          "name": "",
          "type": "address"
        }
      ],
      "stateMutability": "view",
      "type": "function"
    },
    {
      "inputs": [
        {
          "internalType": "address",
          "name": "user",
          "type": "address"
        },
        {
          "internalType": "address",
          "name": "reward",
          "type": "address"
        }
      ],
      "name": "getUserAccruedRewards",
      "outputs": [
        {
          "internalType": "uint256",
          "name": "",
          "type": "uint256"
        }
      ],
      "stateMutability": "view",
      "type": "function"
    },
    {
      "inputs": [
        {
          "internalType": "address",
          "name": "user",
          "type": "address"
        },
        {
          "internalType": "address",
          "name": "asset",
          "type": "address"
        },
        {
          "internalType": "address",
          "name": "reward",
          "type": "address"
        }
      ],
      "name": "getUserAssetIndex",
      "outputs": [
        {
          "internalType": "uint256",
          "name": "",
          "type": "uint256"
        }
      ],
      "stateMutability": "view",
      "type": "function"
    },
    {
      "inputs": [
        {
          "internalType": "address[]",
          "name": "assets",
          "type": "address[]"
        },
        {
          "internalType": "address",
          "name": "user",
          "type": "address"
        },
        {
          "internalType": "address",
          "name": "reward",
          "type": "address"
        }
      ],
      "name": "getUserRewards",
      "outputs": [
        {
          "internalType": "uint256",
          "name": "",
          "type": "uint256"
        }
      ],
      "stateMutability": "view",
      "type": "function"
    },
    {
      "inputs": [
        {
          "internalType": "address",
          "name": "user",
          "type": "address"
        },
        {
          "internalType": "uint256",
          "name": "totalSupply",
          "type": "uint256"
        },
        {
          "internalType": "uint256",
          "name": "userBalance",
          "type": "uint256"
        }
      ],
      "name": "handleAction",
      "outputs": [],
      "stateMutability": "nonpayable",
      "type": "function"
    },
    {
      "inputs": [
        {
          "internalType": "address",
          "name": "",
          "type": "address"
        }
      ],
      "name": "initialize",
      "outputs": [],
      "stateMutability": "nonpayable",
      "type": "function"
    },
    {
      "inputs": [
        {
          "internalType": "address",
          "name": "user",
          "type": "address"
        },
        {
          "internalType": "address",
          "name": "caller",
          "type": "address"
        }
      ],
      "name": "setClaimer",
      "outputs": [],
      "stateMutability": "nonpayable",
      "type": "function"
    },
    {
      "inputs": [
        {
          "internalType": "address",
          "name": "asset",
          "type": "address"
        },
        {
          "internalType": "address",
          "name": "reward",
          "type": "address"
        },
        {
          "internalType": "uint32",
          "name": "newDistributionEnd",
          "type": "uint32"
        }
      ],
      "name": "setDistributionEnd",
      "outputs": [],
      "stateMutability": "nonpayable",
      "type": "function"
    },
    {
      "inputs": [
        {
          "internalType": "address",
          "name": "asset",
          "type": "address"
        },
        {
          "internalType": "address[]",
          "name": "rewards",
          "type": "address[]"
        },
        {
          "internalType": "uint88[]",
          "name": "newEmissionsPerSecond",
          "type": "uint88[]"
        }
      ],
      "name": "setEmissionPerSecond",
      "outputs": [],
      "stateMutability": "nonpayable",
      "type": "function"
    },
    {
      "inputs": [
        {
          "internalType": "address",
          "name": "reward",
          "type": "address"
        },
        {
          "internalType": "contract IEACAggregatorProxy",
          "name": "rewardOracle",
          "type": "address"
        }
      ],
      "name": "setRewardOracle",
      "outputs": [],
      "stateMutability": "nonpayable",
      "type": "function"
    },
    {
      "inputs": [
        {
          "internalType": "address",
          "name": "reward",
          "type": "address"
        },
        {
          "internalType": "contract ITransferStrategyBase",
          "name": "transferStrategy",
          "type": "address"
        }
      ],
      "name": "setTransferStrategy",
      "outputs": [],
      "stateMutability": "nonpayable",
      "type": "function"
    }
  ],
  "transactionHash": "0xb96e1164544c08a79f7169e7da41286d2329662dfd0e4b646b2e9d12636e689d",
  "args": [
    "0xD72d37e6F46a88622aAfE98C8f6FeA6d882B50d8"
  ],
  "numDeployments": 1,
  "solcInputHash": "21352530cbf5d70453a819d1cdf65889",
  "bytecode": "0x60a060405260006005553480156200001657600080fd5b50604051620041a6380380620041a683398101604081905262000039916200004b565b6001600160a01b03166080526200007d565b6000602082840312156200005e57600080fd5b81516001600160a01b03811681146200007657600080fd5b9392505050565b6080516140dc620000ca600039600081816104a6015281816105b101528181610b1101528181610de80152818161138b0152818161150d0152818161158f015261167601526140dc6000f3fe608060405234801561001057600080fd5b50600436106101da5760003560e01c806392074b0811610104578063bf90f63a116100a2578063dde43cba11610071578063dde43cba146105d3578063e15ac623146105db578063f5cf673b146105ee578063f996868b1461060157600080fd5b8063bf90f63a14610573578063c4d66de814610586578063c5a7b53814610599578063cbcbb507146105ac57600080fd5b80639ff55db9116100de5780639ff55db914610532578063b022418c14610545578063b45ac1a914610558578063bb492bf51461056057600080fd5b806392074b08146104a4578063955c2ad7146104ca5780639efd6f72146104dd57600080fd5b80635453ba101161017c57806370674ab91161014b57806370674ab91461036e57806374d945ec146103815780637eff4ba8146103ad578063886fe70b1461047c57600080fd5b80635453ba10146102fc57806357b898831461030f5780635f130b24146103225780636657732f1461034e57600080fd5b806331873e2e116101b857806331873e2e1461025c57806333028b99146102715780634c0369c314610284578063533f542a146102a557600080fd5b80631b839c77146101df578063236300dc146102055780632a17bf6014610218575b600080fd5b6101f26101ed366004613681565b610614565b6040519081526020015b60405180910390f35b6101f26102133660046136ff565b610667565b610244610226366004613773565b6001600160a01b039081166000908152603b60205260409020541690565b6040516001600160a01b0390911681526020016101fc565b61026f61026a366004613797565b6106dd565b005b6101f261027f3660046137cc565b6106ee565b610297610292366004613851565b610825565b6040516101fc9291906138ec565b6101f26102b3366004613943565b6001600160a01b03808316600090815260016020818152604080842086861685528252808420948816845293909101905220546cffffffffffffffffffffffffff169392505050565b61026f61030a366004613681565b610b06565b6101f261031d366004613983565b610b8c565b610244610330366004613773565b6001600160a01b039081166000908152603a60205260409020541690565b61036161035c366004613773565b610ba6565b6040516101fc91906139e2565b6101f261037c3660046139f5565b610cd1565b61024461038f366004613773565b6001600160a01b039081166000908152603960205260409020541690565b61045c6103bb366004613681565b6001600160a01b0391821660009081526001602090815260408083209390941682529190915220546cffffffffffffffffffffffffff8116916affffffffffffffffffffff6d01000000000000000000000000008304169163ffffffff780100000000000000000000000000000000000000000000000082048116927c01000000000000000000000000000000000000000000000000000000009092041690565b6040805194855260208501939093529183015260608201526080016101fc565b61048f61048a366004613681565b610ce8565b604080519283526020830191909152016101fc565b7f0000000000000000000000000000000000000000000000000000000000000000610244565b61026f6104d8366004613b2d565b610ddd565b6105206104eb366004613773565b6001600160a01b0316600090815260016020526040902060020154700100000000000000000000000000000000900460ff1690565b60405160ff90911681526020016101fc565b6102976105403660046139f5565b610fa9565b6101f2610553366004613681565b6110e3565b61036161118f565b61029761056e366004613851565b6111f1565b610297610581366004613c5b565b611263565b61026f610594366004613773565b61127e565b61026f6105a7366004613c9d565b611380565b6102447f000000000000000000000000000000000000000000000000000000000000000081565b6101f2600181565b61026f6105e9366004613681565b611502565b61026f6105fc366004613681565b611584565b61026f61060f366004613ce4565b61166b565b6001600160a01b038281166000908152600160209081526040808320938516835292905220547c0100000000000000000000000000000000000000000000000000000000900463ffffffff165b92915050565b60006001600160a01b0383166106c45760405162461bcd60e51b815260206004820152601260248201527f494e56414c49445f544f5f41444452455353000000000000000000000000000060448201526064015b60405180910390fd5b6106d386868633338888611a43565b9695505050505050565b6106e933848385611ca0565b505050565b6001600160a01b0380841660009081526039602052604081205490913391869116821461075d5760405162461bcd60e51b815260206004820152601460248201527f434c41494d45525f554e415554484f52495a454400000000000000000000000060448201526064016106bb565b6001600160a01b0386166107b35760405162461bcd60e51b815260206004820152601460248201527f494e56414c49445f555345525f4144445245535300000000000000000000000060448201526064016106bb565b6001600160a01b0385166108095760405162461bcd60e51b815260206004820152601260248201527f494e56414c49445f544f5f41444452455353000000000000000000000000000060448201526064016106bb565b610818898989338a8a8a611a43565b9998505050505050505050565b6060806000610835868686611e12565b60035490915067ffffffffffffffff81111561085357610853613a52565b60405190808252806020026020018201604052801561087c578160200160208202803683370190505b509250825167ffffffffffffffff81111561089957610899613a52565b6040519080825280602002602001820160405280156108c2578160200160208202803683370190505b50915060005b8151811015610afb5760005b8451811015610ae857600381815481106108f0576108f0613d67565b9060005260206000200160009054906101000a90046001600160a01b031685828151811061092057610920613d67565b60200260200101906001600160a01b031690816001600160a01b0316815250506001600084848151811061095657610956613d67565b6020026020010151600001516001600160a01b03166001600160a01b03168152602001908152602001600020600001600086838151811061099957610999613d67565b60200260200101516001600160a01b03166001600160a01b031681526020019081526020016000206001016000876001600160a01b03166001600160a01b03168152602001908152602001600020600001600d9054906101000a90046fffffffffffffffffffffffffffffffff166fffffffffffffffffffffffffffffffff16848281518110610a2b57610a2b613d67565b60200260200101818151610a3f9190613dc5565b9052508251839083908110610a5657610a56613d67565b60200260200101516020015160001415610a6f57610ad6565b610aac86868381518110610a8557610a85613d67565b6020026020010151858581518110610a9f57610a9f613d67565b6020026020010151611fe9565b848281518110610abe57610abe613d67565b60200260200101818151610ad29190613dc5565b9052505b80610ae081613ddd565b9150506108d4565b5080610af381613ddd565b9150506108c8565b50505b935093915050565b336001600160a01b037f00000000000000000000000000000000000000000000000000000000000000001614610b7e5760405162461bcd60e51b815260206004820152601560248201527f4f4e4c595f454d495353494f4e5f4d414e41474552000000000000000000000060448201526064016106bb565b610b88828261209d565b5050565b6000610b9d85858533333388611a43565b95945050505050565b6001600160a01b0381166000908152600160205260408120600201546060916fffffffffffffffffffffffffffffffff909116908167ffffffffffffffff811115610bf357610bf3613a52565b604051908082528060200260200182016040528015610c1c578160200160208202803683370190505b50905060005b826fffffffffffffffffffffffffffffffff16816fffffffffffffffffffffffffffffffff161015610cc9576001600160a01b0380861660009081526001602081815260408084206fffffffffffffffffffffffffffffffff871680865293019091529091205484519216918491908110610c9f57610c9f613d67565b6001600160a01b039092166020928302919091019091015280610cc181613e16565b915050610c22565b509392505050565b6000610b9d8383610ce3888888611e12565b6121bd565b6001600160a01b038083166000818152600160209081526040808320948616835293815283822084517fb1bf962d0000000000000000000000000000000000000000000000000000000081529451929485949193610dd09385939263b1bf962d92600480830193928290030181865afa158015610d69573d6000803e3d6000fd5b505050506040513d601f19601f82011682018060405250810190610d8d9190613e46565b6001600160a01b038816600090815260016020526040902060020154610dcb90700100000000000000000000000000000000900460ff16600a613f7f565b612342565b92509250505b9250929050565b336001600160a01b037f00000000000000000000000000000000000000000000000000000000000000001614610e555760405162461bcd60e51b815260206004820152601560248201527f4f4e4c595f454d495353494f4e5f4d414e41474552000000000000000000000060448201526064016106bb565b60005b8151811015610f9c57818181518110610e7357610e73613d67565b6020026020010151606001516001600160a01b031663b1bf962d6040518163ffffffff1660e01b8152600401602060405180830381865afa158015610ebc573d6000803e3d6000fd5b505050506040513d601f19601f82011682018060405250810190610ee09190613e46565b828281518110610ef257610ef2613d67565b60200260200101516020018181525050610f46828281518110610f1757610f17613d67565b602002602001015160800151838381518110610f3557610f35613d67565b602002602001015160a0015161244e565b610f8a828281518110610f5b57610f5b613d67565b602002602001015160800151838381518110610f7957610f79613d67565b602002602001015160c0015161209d565b80610f9481613ddd565b915050610e58565b50610fa681612566565b50565b6001600160a01b0380831660009081526039602052604090205460609182913391869116821461101b5760405162461bcd60e51b815260206004820152601460248201527f434c41494d45525f554e415554484f52495a454400000000000000000000000060448201526064016106bb565b6001600160a01b0386166110715760405162461bcd60e51b815260206004820152601460248201527f494e56414c49445f555345525f4144445245535300000000000000000000000060448201526064016106bb565b6001600160a01b0385166110c75760405162461bcd60e51b815260206004820152601260248201527f494e56414c49445f544f5f41444452455353000000000000000000000000000060448201526064016106bb565b6110d48888338989612cf6565b93509350505094509492505050565b60008060005b600454811015610cc957600160006004838154811061110a5761110a613d67565b6000918252602080832091909101546001600160a01b0390811684528382019490945260409283018220888516835281528282209389168252600190930190925290205461117b906d010000000000000000000000000090046fffffffffffffffffffffffffffffffff1683613dc5565b91508061118781613ddd565b9150506110e9565b606060038054806020026020016040519081016040528092919081815260200182805480156111e757602002820191906000526020600020905b81546001600160a01b031681526001909101906020018083116111c9575b5050505050905090565b6060806001600160a01b03831661124a5760405162461bcd60e51b815260206004820152601260248201527f494e56414c49445f544f5f41444452455353000000000000000000000000000060448201526064016106bb565b6112578585333387612cf6565b91509150935093915050565b6060806112738484333333612cf6565b915091509250929050565b60065460019060ff16806112915750303b155b8061129d575060055481115b61130f5760405162461bcd60e51b815260206004820152602e60248201527f436f6e747261637420696e7374616e63652068617320616c726561647920626560448201527f656e20696e697469616c697a656400000000000000000000000000000000000060648201526084016106bb565b60065460ff1615801561134d57600680547fffffffffffffffffffffffffffffffffffffffffffffffffffffffffffffff0016600117905560058290555b80156106e957600680547fffffffffffffffffffffffffffffffffffffffffffffffffffffffffffffff00169055505050565b336001600160a01b037f000000000000000000000000000000000000000000000000000000000000000016146113f85760405162461bcd60e51b815260206004820152601560248201527f4f4e4c595f454d495353494f4e5f4d414e41474552000000000000000000000060448201526064016106bb565b6001600160a01b0383811660008181526001602090815260408083209487168084529482529182902080547bffffffffffffffffffffffffffffffffffffffffffffffffffffffff81167c010000000000000000000000000000000000000000000000000000000063ffffffff8981168281029384179586905587516d01000000000000000000000000009096046affffffffffffffffffffff16808752968601969096529083041694830185905260608301939093526cffffffffffffffffffffffffff9081169216919091176080820152909291907fac1777479f07f3e7c34da8402139d54027a6a260caaae168bdee825ca5580dc59060a00160405180910390a350505050565b336001600160a01b037f0000000000000000000000000000000000000000000000000000000000000000161461157a5760405162461bcd60e51b815260206004820152601560248201527f4f4e4c595f454d495353494f4e5f4d414e41474552000000000000000000000060448201526064016106bb565b610b88828261244e565b336001600160a01b037f000000000000000000000000000000000000000000000000000000000000000016146115fc5760405162461bcd60e51b815260206004820152601560248201527f4f4e4c595f454d495353494f4e5f4d414e41474552000000000000000000000060448201526064016106bb565b6001600160a01b0382811660008181526039602052604080822080547fffffffffffffffffffffffff0000000000000000000000000000000000000000169486169485179055517f4925eafc82d0c4d67889898eeed64b18488ab19811e61620f387026dec126a289190a35050565b336001600160a01b037f000000000000000000000000000000000000000000000000000000000000000016146116e35760405162461bcd60e51b815260206004820152601560248201527f4f4e4c595f454d495353494f4e5f4d414e41474552000000000000000000000060448201526064016106bb565b8281146117325760405162461bcd60e51b815260206004820152600d60248201527f494e56414c49445f494e5055540000000000000000000000000000000000000060448201526064016106bb565b60005b83811015611a3b576001600160a01b038616600090815260016020526040812090818188888681811061176a5761176a613d67565b905060200201602081019061177f9190613773565b6001600160a01b0316815260208101919091526040016000206002830154909150700100000000000000000000000000000000900460ff1680158015906117e8575081547801000000000000000000000000000000000000000000000000900463ffffffff1615155b6118345760405162461bcd60e51b815260206004820152601b60248201527f444953545249425554494f4e5f444f45535f4e4f545f4558495354000000000060448201526064016106bb565b60006118ac838b6001600160a01b031663b1bf962d6040518163ffffffff1660e01b8152600401602060405180830381865afa158015611878573d6000803e3d6000fd5b505050506040513d601f19601f8201168201806040525081019061189c9190613e46565b6118a785600a613f8e565b61310e565b5083549091506d010000000000000000000000000090046affffffffffffffffffffff168787878181106118e2576118e2613d67565b90506020020160208101906118f79190613f9a565b84546affffffffffffffffffffff919091166d0100000000000000000000000000027fffffffffffffffff0000000000000000000000ffffffffffffffffffffffffff90911617845589898781811061195257611952613d67565b90506020020160208101906119679190613773565b6001600160a01b03168b6001600160a01b03167fac1777479f07f3e7c34da8402139d54027a6a260caaae168bdee825ca5580dc5838b8b8b8181106119ae576119ae613d67565b90506020020160208101906119c39190613f9a565b8854604080519384526affffffffffffffffffffff90921660208401527c0100000000000000000000000000000000000000000000000000000000900463ffffffff1690820181905260608201526080810186905260a00160405180910390a350505050508080611a3390613ddd565b915050611735565b505050505050565b600085611a5257506000611c95565b6000611a6885611a638b8b89611e12565b613282565b60005b88811015611c285760008a8a83818110611a8757611a87613d67565b9050602002016020810190611a9c9190613773565b6001600160a01b0381811660009081526001602081815260408084208b861685528252808420948d1684529390910190522054909150611aff906d010000000000000000000000000090046fffffffffffffffffffffffffffffffff1684613dc5565b9250888311611b65576001600160a01b0380821660009081526001602081815260408084208a861685528252808420948c1684529390910190522080547fffffff00000000000000000000000000000000ffffffffffffffffffffffffff169055611c15565b6000611b718a85613fb5565b9050611b7d8185613fb5565b9350611b8881613303565b6001600160a01b0392831660009081526001602081815260408084208b881685528252808420968d1684529590910190529290922080546fffffffffffffffffffffffffffffffff939093166d0100000000000000000000000000027fffffff00000000000000000000000000000000ffffffffffffffffffffffffff9093169290921790915550611c28565b5080611c2081613ddd565b915050611a6b565b5080611c38576000915050611c95565b611c4384848361338f565b604080516001600160a01b038881168252602082018490528087169286821692918916917fc052130bc4ef84580db505783484b067ea8b71b3bca78a7e12db7aea8658f004910160405180910390a490505b979650505050505050565b6001600160a01b03841660009081526001602052604090206002015460ff700100000000000000000000000000000000820416600a0a906fffffffffffffffffffffffffffffffff1680611cf5575050611e0c565b60005b81816fffffffffffffffffffffffffffffffff161015611e08576001600160a01b0380881660009081526001602081815260408084206fffffffffffffffffffffffffffffffff871685529283018252808420549094168084529190529181209080611d6583898961310e565b91509150600080611d79858d8d878d613494565b915091508280611d865750805b15611df6578b6001600160a01b0316866001600160a01b03168e6001600160a01b03167f3303facd24627943a92e9dc87cfbb34b15c49b726eec3ad3487c16be9ab8efe8878887604051611ded939291909283526020830191909152604082015260600190565b60405180910390a45b505060019094019350611cf892505050565b5050505b50505050565b60608267ffffffffffffffff811115611e2d57611e2d613a52565b604051908082528060200260200182016040528015611e8b57816020015b611e78604051806060016040528060006001600160a01b0316815260200160008152602001600081525090565b815260200190600190039081611e4b5790505b50905060005b83811015610cc957848482818110611eab57611eab613d67565b9050602002016020810190611ec09190613773565b828281518110611ed257611ed2613d67565b60209081029190910101516001600160a01b039091169052848482818110611efc57611efc613d67565b9050602002016020810190611f119190613773565b6040517f0afbcdc90000000000000000000000000000000000000000000000000000000081526001600160a01b0385811660048301529190911690630afbcdc9906024016040805180830381865afa158015611f71573d6000803e3d6000fd5b505050506040513d601f19601f82011682018060405250810190611f959190613fcc565b838381518110611fa757611fa7613d67565b6020026020010151602001848481518110611fc457611fc4613d67565b6020908102919091010151604001919091525280611fe181613ddd565b915050611e91565b80516001600160a01b0390811660009081526001602081815260408084208786168552825280842086519095168452919052812060020154909190829061204890700100000000000000000000000000000000900460ff16600a613f7f565b9050600061205b83866040015184612342565b6020808801516001600160a01b038b16600090815260018801909252604090912054919350611c9592509083906cffffffffffffffffffffffffff16856135cc565b6000816001600160a01b03166350d25bcd6040518163ffffffff1660e01b8152600401602060405180830381865afa1580156120dd573d6000803e3d6000fd5b505050506040513d601f19601f820116820180604052508101906121019190613e46565b1361214e5760405162461bcd60e51b815260206004820152601860248201527f4f5241434c455f4d5553545f52455455524e5f5052494345000000000000000060448201526064016106bb565b6001600160a01b038281166000818152603b602052604080822080547fffffffffffffffffffffffff0000000000000000000000000000000000000000169486169485179055517f1a1cd5483e52e60b9ff7f3b9d1db3bbd9e9d21c6324ad3a8c79dba9b75e62f4d9190a35050565b6000805b8251811015610cc9578281815181106121dc576121dc613d67565b6020026020010151602001516000141561227e576001600084838151811061220657612206613d67565b602090810291909101810151516001600160a01b039081168352828201939093526040918201600090812088851682528252828120938916815260019093019052902054612277906d010000000000000000000000000090046fffffffffffffffffffffffffffffffff1683613dc5565b9150612330565b6001600084838151811061229457612294613d67565b602090810291909101810151516001600160a01b03908116835282820193909352604091820160009081208885168252825282812093891681526001909301905290205483516d01000000000000000000000000009091046fffffffffffffffffffffffffffffffff16906123199087908790879086908110610a9f57610a9f613d67565b6123239190613dc5565b61232d9083613dc5565b91505b8061233a81613ddd565b9150506121c1565b825460009081906cffffffffffffffffffffffffff81169063ffffffff7c010000000000000000000000000000000000000000000000000000000082048116916affffffffffffffffffffff6d0100000000000000000000000000820416917801000000000000000000000000000000000000000000000000909104168115806123ca575087155b806123d457504281145b806123df5750828110155b156123f35783849550955050505050610afe565b60008342116124025742612404565b835b905060006124128383613fb5565b90506000896124218387613ff0565b61242b9190613ff0565b8b900490508661243b8183613dc5565b9850985050505050505050935093915050565b6001600160a01b0381166124a45760405162461bcd60e51b815260206004820152601860248201527f53545241544547595f43414e5f4e4f545f42455f5a45524f000000000000000060448201526064016106bb565b6001813b1515146124f75760405162461bcd60e51b815260206004820152601960248201527f53545241544547595f4d5553545f42455f434f4e54524143540000000000000060448201526064016106bb565b6001600160a01b038281166000818152603a602052604080822080547fffffffffffffffffffffffff0000000000000000000000000000000000000000169486169485179055517f8ca1d928f1d72493a6b78c4f74aabde976bc37ffe2570f2a1ce5a8abd3dde0aa9190a35050565b60005b8151811015610b88576001600083838151811061258857612588613d67565b602090810291909101810151606001516001600160a01b0316825281019190915260400160002060020154700100000000000000000000000000000000900460ff1661263a5760048282815181106125e2576125e2613d67565b6020908102919091018101516060015182546001810184556000938452919092200180547fffffffffffffffffffffffff0000000000000000000000000000000000000000166001600160a01b039092169190911790555b600082828151811061264e5761264e613d67565b6020026020010151606001516001600160a01b031663313ce5676040518163ffffffff1660e01b8152600401602060405180830381865afa158015612697573d6000803e3d6000fd5b505050506040513d601f19601f820116820180604052508101906126bb919061402d565b600160008585815181106126d1576126d1613d67565b6020026020010151606001516001600160a01b03166001600160a01b0316815260200190815260200160002060020160106101000a81548160ff021916908360ff160217905560ff16905060006001600085858151811061273457612734613d67565b6020026020010151606001516001600160a01b03166001600160a01b03168152602001908152602001600020600001600085858151811061277757612777613d67565b602090810291909101810151608001516001600160a01b0316825281019190915260400160002080549091507801000000000000000000000000000000000000000000000000900463ffffffff1661297e578383815181106127db576127db613d67565b602002602001015160800151600160008686815181106127fd576127fd613d67565b6020026020010151606001516001600160a01b03166001600160a01b0316815260200190815260200160002060010160006001600088888151811061284457612844613d67565b6020026020010151606001516001600160a01b03166001600160a01b0316815260200190815260200160002060020160009054906101000a90046fffffffffffffffffffffffffffffffff166fffffffffffffffffffffffffffffffff166fffffffffffffffffffffffffffffffff16815260200190815260200160002060006101000a8154816001600160a01b0302191690836001600160a01b03160217905550600160008585815181106128fc576128fc613d67565b602090810291909101810151606001516001600160a01b03168252810191909152604001600090812060020180546fffffffffffffffffffffffffffffffff169161294683613e16565b91906101000a8154816fffffffffffffffffffffffffffffffff02191690836fffffffffffffffffffffffffffffffff160217905550505b6002600085858151811061299457612994613d67565b602090810291909101810151608001516001600160a01b031682528101919091526040016000205460ff16612a8a576001600260008686815181106129db576129db613d67565b6020026020010151608001516001600160a01b03166001600160a01b0316815260200190815260200160002060006101000a81548160ff0219169083151502179055506003848481518110612a3257612a32613d67565b6020908102919091018101516080015182546001810184556000938452919092200180547fffffffffffffffffffffffff0000000000000000000000000000000000000000166001600160a01b039092169190911790555b6000612abb82868681518110612aa257612aa2613d67565b60200260200101516020015185600a6118a79190613f8e565b50825486519192506d010000000000000000000000000081046affffffffffffffffffffff16917c010000000000000000000000000000000000000000000000000000000090910463ffffffff1690879087908110612b1c57612b1c613d67565b60209081029190910101515184546affffffffffffffffffffff9091166d0100000000000000000000000000027fffffffffffffffff0000000000000000000000ffffffffffffffffffffffffff9091161784558651879087908110612b8457612b84613d67565b602090810291909101015160400151845463ffffffff9091167c0100000000000000000000000000000000000000000000000000000000027bffffffffffffffffffffffffffffffffffffffffffffffffffffffff9091161784558651879087908110612bf357612bf3613d67565b6020026020010151608001516001600160a01b0316878781518110612c1a57612c1a613d67565b6020026020010151606001516001600160a01b03167fac1777479f07f3e7c34da8402139d54027a6a260caaae168bdee825ca5580dc5848a8a81518110612c6357612c63613d67565b602002602001015160000151858c8c81518110612c8257612c82613d67565b60200260200101516040015189604051612cd69594939291906affffffffffffffffffffff958616815293909416602084015263ffffffff9182166040840152166060820152608081019190915260a00190565b60405180910390a350505050508080612cee90613ddd565b915050612569565b60035460609081908067ffffffffffffffff811115612d1757612d17613a52565b604051908082528060200260200182016040528015612d40578160200160208202803683370190505b5092508067ffffffffffffffff811115612d5c57612d5c613a52565b604051908082528060200260200182016040528015612d85578160200160208202803683370190505b509150612d9785611a638a8a89611e12565b60005b8781101561300a576000898983818110612db657612db6613d67565b9050602002016020810190612dcb9190613773565b905060005b83811015612ff55760006001600160a01b0316868281518110612df557612df5613d67565b60200260200101516001600160a01b03161415612e705760038181548110612e1f57612e1f613d67565b9060005260206000200160009054906101000a90046001600160a01b0316868281518110612e4f57612e4f613d67565b60200260200101906001600160a01b031690816001600160a01b0316815250505b6001600160a01b038216600090815260016020526040812087518290899085908110612e9e57612e9e613d67565b6020908102919091018101516001600160a01b0390811683528282019390935260409182016000908120938d168152600190930190529020546d010000000000000000000000000090046fffffffffffffffffffffffffffffffff1690508015612fe25780868381518110612f1557612f15613d67565b60200260200101818151612f299190613dc5565b9052506001600160a01b0383166000908152600160205260408120885182908a9086908110612f5a57612f5a613d67565b60200260200101516001600160a01b03166001600160a01b0316815260200190815260200160002060010160008b6001600160a01b03166001600160a01b03168152602001908152602001600020600001600d6101000a8154816fffffffffffffffffffffffffffffffff02191690836fffffffffffffffffffffffffffffffff1602179055505b5080612fed81613ddd565b915050612dd0565b5050808061300290613ddd565b915050612d9a565b5060005b81811015613102576130538585838151811061302c5761302c613d67565b602002602001015185848151811061304657613046613d67565b602002602001015161338f565b846001600160a01b031684828151811061306f5761306f613d67565b60200260200101516001600160a01b0316876001600160a01b03167fc052130bc4ef84580db505783484b067ea8b71b3bca78a7e12db7aea8658f0048a8786815181106130be576130be613d67565b60200260200101516040516130e89291906001600160a01b03929092168252602082015260400190565b60405180910390a4806130fa81613ddd565b91505061300e565b50509550959350505050565b60008060008061311f878787612342565b91509150600082821461321e576cffffffffffffffffffffffffff8211156131895760405162461bcd60e51b815260206004820152600e60248201527f494e4445585f4f564552464c4f5700000000000000000000000000000000000060448201526064016106bb565b5086547fffffffffffffffffffffffffffffffffffffff00000000000000000000000000166cffffffffffffffffffffffffff821617875560016131cc426135f0565b885463ffffffff919091167801000000000000000000000000000000000000000000000000027fffffffff00000000ffffffffffffffffffffffffffffffffffffffffffffffff909116178855613275565b613227426135f0565b885463ffffffff919091167801000000000000000000000000000000000000000000000000027fffffffff00000000ffffffffffffffffffffffffffffffffffffffffffffffff9091161788555b9097909650945050505050565b60005b81518110156106e9576132f18282815181106132a3576132a3613d67565b602002602001015160000151848484815181106132c2576132c2613d67565b6020026020010151602001518585815181106132e0576132e0613d67565b602002602001015160400151611ca0565b806132fb81613ddd565b915050613285565b60006fffffffffffffffffffffffffffffffff82111561338b5760405162461bcd60e51b815260206004820152602760248201527f53616665436173743a2076616c756520646f65736e27742066697420696e203160448201527f323820626974730000000000000000000000000000000000000000000000000060648201526084016106bb565b5090565b6001600160a01b038281166000818152603a60205260408082205490517f16beb9820000000000000000000000000000000000000000000000000000000081528785166004820152602481019390935260448301859052909216919082906316beb982906064016020604051808303816000875af1158015613415573d6000803e3d6000fd5b505050506040513d601f19601f820116820180604052508101906134399190614050565b905060018115151461348d5760405162461bcd60e51b815260206004820152600e60248201527f5452414e534645525f4552524f5200000000000000000000000000000000000060448201526064016106bb565b5050505050565b6001600160a01b038416600090815260018601602052604081205481906cffffffffffffffffffffffffff16818582148015906135bd576001600160a01b038916600090815260018b016020526040902080547fffffffffffffffffffffffffffffffffffffff00000000000000000000000000166cffffffffffffffffffffffffff891617905587156135bd5761352e888885896135cc565b915061353982613303565b6001600160a01b038a16600090815260018c01602052604090208054600d906135869084906d010000000000000000000000000090046fffffffffffffffffffffffffffffffff16614072565b92506101000a8154816fffffffffffffffffffffffffffffffff02191690836fffffffffffffffffffffffffffffffff1602179055505b90999098509650505050505050565b6000806135d98486613fb5565b6135e39087613ff0565b9290920495945050505050565b600063ffffffff82111561338b5760405162461bcd60e51b815260206004820152602660248201527f53616665436173743a2076616c756520646f65736e27742066697420696e203360448201527f322062697473000000000000000000000000000000000000000000000000000060648201526084016106bb565b6001600160a01b0381168114610fa657600080fd5b6000806040838503121561369457600080fd5b823561369f8161366c565b915060208301356136af8161366c565b809150509250929050565b60008083601f8401126136cc57600080fd5b50813567ffffffffffffffff8111156136e457600080fd5b6020830191508360208260051b8501011115610dd657600080fd5b60008060008060006080868803121561371757600080fd5b853567ffffffffffffffff81111561372e57600080fd5b61373a888289016136ba565b9096509450506020860135925060408601356137558161366c565b915060608601356137658161366c565b809150509295509295909350565b60006020828403121561378557600080fd5b81356137908161366c565b9392505050565b6000806000606084860312156137ac57600080fd5b83356137b78161366c565b95602085013595506040909401359392505050565b60008060008060008060a087890312156137e557600080fd5b863567ffffffffffffffff8111156137fc57600080fd5b61380889828a016136ba565b9097509550506020870135935060408701356138238161366c565b925060608701356138338161366c565b915060808701356138438161366c565b809150509295509295509295565b60008060006040848603121561386657600080fd5b833567ffffffffffffffff81111561387d57600080fd5b613889868287016136ba565b909450925050602084013561389d8161366c565b809150509250925092565b600081518084526020808501945080840160005b838110156138e15781516001600160a01b0316875295820195908201906001016138bc565b509495945050505050565b6040815260006138ff60408301856138a8565b82810360208481019190915284518083528582019282019060005b818110156139365784518352938301939183019160010161391a565b5090979650505050505050565b60008060006060848603121561395857600080fd5b83356139638161366c565b925060208401356139738161366c565b9150604084013561389d8161366c565b6000806000806060858703121561399957600080fd5b843567ffffffffffffffff8111156139b057600080fd5b6139bc878288016136ba565b9095509350506020850135915060408501356139d78161366c565b939692955090935050565b60208152600061379060208301846138a8565b60008060008060608587031215613a0b57600080fd5b843567ffffffffffffffff811115613a2257600080fd5b613a2e878288016136ba565b9095509350506020850135613a428161366c565b915060408501356139d78161366c565b7f4e487b7100000000000000000000000000000000000000000000000000000000600052604160045260246000fd5b60405160e0810167ffffffffffffffff81118282101715613aa457613aa4613a52565b60405290565b604051601f82017fffffffffffffffffffffffffffffffffffffffffffffffffffffffffffffffe016810167ffffffffffffffff81118282101715613af157613af1613a52565b604052919050565b80356affffffffffffffffffffff81168114613b1457600080fd5b919050565b803563ffffffff81168114613b1457600080fd5b60006020808385031215613b4057600080fd5b823567ffffffffffffffff80821115613b5857600080fd5b818501915085601f830112613b6c57600080fd5b813581811115613b7e57613b7e613a52565b613b8c848260051b01613aaa565b818152848101925060e0918202840185019188831115613bab57600080fd5b938501935b82851015613c4f5780858a031215613bc85760008081fd5b613bd0613a81565b613bd986613af9565b815286860135878201526040613bf0818801613b19565b90820152606086810135613c038161366c565b90820152608086810135613c168161366c565b9082015260a086810135613c298161366c565b9082015260c086810135613c3c8161366c565b9082015284529384019392850192613bb0565b50979650505050505050565b60008060208385031215613c6e57600080fd5b823567ffffffffffffffff811115613c8557600080fd5b613c91858286016136ba565b90969095509350505050565b600080600060608486031215613cb257600080fd5b8335613cbd8161366c565b92506020840135613ccd8161366c565b9150613cdb60408501613b19565b90509250925092565b600080600080600060608688031215613cfc57600080fd5b8535613d078161366c565b9450602086013567ffffffffffffffff80821115613d2457600080fd5b613d3089838a016136ba565b90965094506040880135915080821115613d4957600080fd5b50613d56888289016136ba565b969995985093965092949392505050565b7f4e487b7100000000000000000000000000000000000000000000000000000000600052603260045260246000fd5b7f4e487b7100000000000000000000000000000000000000000000000000000000600052601160045260246000fd5b60008219821115613dd857613dd8613d96565b500190565b60007fffffffffffffffffffffffffffffffffffffffffffffffffffffffffffffffff821415613e0f57613e0f613d96565b5060010190565b60006fffffffffffffffffffffffffffffffff80831681811415613e3c57613e3c613d96565b6001019392505050565b600060208284031215613e5857600080fd5b5051919050565b600181815b80851115613eb857817fffffffffffffffffffffffffffffffffffffffffffffffffffffffffffffffff04821115613e9e57613e9e613d96565b80851615613eab57918102915b93841c9390800290613e64565b509250929050565b600082613ecf57506001610661565b81613edc57506000610661565b8160018114613ef25760028114613efc57613f18565b6001915050610661565b60ff841115613f0d57613f0d613d96565b50506001821b610661565b5060208310610133831016604e8410600b8410161715613f3b575081810a610661565b613f458383613e5f565b807fffffffffffffffffffffffffffffffffffffffffffffffffffffffffffffffff04821115613f7757613f77613d96565b029392505050565b600061379060ff841683613ec0565b60006137908383613ec0565b600060208284031215613fac57600080fd5b61379082613af9565b600082821015613fc757613fc7613d96565b500390565b60008060408385031215613fdf57600080fd5b505080516020909101519092909150565b6000817fffffffffffffffffffffffffffffffffffffffffffffffffffffffffffffffff048311821515161561402857614028613d96565b500290565b60006020828403121561403f57600080fd5b815160ff8116811461379057600080fd5b60006020828403121561406257600080fd5b8151801515811461379057600080fd5b60006fffffffffffffffffffffffffffffffff80831681851680830382111561409d5761409d613d96565b0194935050505056fea264697066735822122063ec269b5dc68cba11df628b77f5f04d4f07df48bb7208e60b89a2797377797c64736f6c634300080a0033",
  "devdoc": {
    "author": "Aave*",
    "kind": "dev",
    "methods": {
      "claimAllRewards(address[],address)": {
        "details": "Claims all rewards for a user to the desired address, on all the assets of the pool, accumulating the pending rewards",
        "params": {
          "assets": "The list of assets to check eligible distributions before claiming rewards",
          "to": "The address that will be receiving the rewards"
        },
        "returns": {
          "claimedAmounts": "List that contains the claimed amount per reward, following same order as \"rewardList\"*",
          "rewardsList": "List of addresses of the reward tokens"
        }
      },
      "claimAllRewardsOnBehalf(address[],address,address)": {
        "details": "Claims all rewards for a user on behalf, on all the assets of the pool, accumulating the pending rewards. The caller must be whitelisted via \"allowClaimOnBehalf\" function by the RewardsAdmin role manager",
        "params": {
          "assets": "The list of assets to check eligible distributions before claiming rewards",
          "to": "The address that will be receiving the rewards",
          "user": "The address to check and claim rewards"
        },
        "returns": {
          "claimedAmounts": "List that contains the claimed amount per reward, following same order as \"rewardsList\"*",
          "rewardsList": "List of addresses of the reward tokens"
        }
      },
      "claimAllRewardsToSelf(address[])": {
        "details": "Claims all reward for msg.sender, on all the assets of the pool, accumulating the pending rewards",
        "params": {
          "assets": "The list of assets to check eligible distributions before claiming rewards"
        },
        "returns": {
          "claimedAmounts": "List that contains the claimed amount per reward, following same order as \"rewardsList\"*",
          "rewardsList": "List of addresses of the reward tokens"
        }
      },
      "claimRewards(address[],uint256,address,address)": {
        "details": "Claims reward for a user to the desired address, on all the assets of the pool, accumulating the pending rewards",
        "params": {
          "amount": "The amount of rewards to claim",
          "assets": "List of assets to check eligible distributions before claiming rewards",
          "reward": "The address of the reward token",
          "to": "The address that will be receiving the rewards"
        },
        "returns": {
          "_0": "The amount of rewards claimed*"
        }
      },
      "claimRewardsOnBehalf(address[],uint256,address,address,address)": {
        "details": "Claims reward for a user on behalf, on all the assets of the pool, accumulating the pending rewards. The caller must be whitelisted via \"allowClaimOnBehalf\" function by the RewardsAdmin role manager",
        "params": {
          "amount": "The amount of rewards to claim",
          "assets": "The list of assets to check eligible distributions before claiming rewards",
          "reward": "The address of the reward token",
          "to": "The address that will be receiving the rewards",
          "user": "The address to check and claim rewards"
        },
        "returns": {
          "_0": "The amount of rewards claimed*"
        }
      },
      "claimRewardsToSelf(address[],uint256,address)": {
        "details": "Claims reward for msg.sender, on all the assets of the pool, accumulating the pending rewards",
        "params": {
          "amount": "The amount of rewards to claim",
          "assets": "The list of assets to check eligible distributions before claiming rewards",
          "reward": "The address of the reward token"
        },
        "returns": {
          "_0": "The amount of rewards claimed*"
        }
      },
      "configureAssets((uint88,uint256,uint32,address,address,address,address)[])": {
        "details": "Configure assets to incentivize with an emission of rewards per second until the end of distribution.",
        "params": {
          "config": "The assets configuration input, the list of structs contains the following fields:   uint104 emissionPerSecond: The emission per second following rewards unit decimals.   uint256 totalSupply: The total supply of the asset to incentivize   uint40 distributionEnd: The end of the distribution of the incentives for an asset   address asset: The asset address to incentivize   address reward: The reward token address   ITransferStrategy transferStrategy: The TransferStrategy address with the install hook and claim logic.   IEACAggregatorProxy rewardOracle: The Price Oracle of a reward to visualize the incentives at the UI Frontend.                                     Must follow Chainlink Aggregator IEACAggregatorProxy interface to be compatible."
        }
      },
      "getAllUserRewards(address[],address)": {
        "details": "Returns a list all rewards of a user, including already accrued and unrealized claimable rewards",
        "params": {
          "assets": "List of incentivized assets to check eligible distributions",
          "user": "The address of the user"
        },
        "returns": {
          "rewardsList": "The list of reward addresses",
          "unclaimedAmounts": "The list of unclaimed amount of rewards*"
        }
      },
      "getAssetDecimals(address)": {
        "details": "Returns the decimals of an asset to calculate the distribution delta",
        "params": {
          "asset": "The address to retrieve decimals"
        },
        "returns": {
          "_0": "The decimals of an underlying asset"
        }
      },
      "getAssetIndex(address,address)": {
        "details": "Calculates the next value of an specific distribution index, with validations.",
        "params": {
          "asset": "The incentivized asset",
          "reward": "The reward token of the incentivized asset"
        },
        "returns": {
          "_0": "The old index of the asset distribution",
          "_1": "The new index of the asset distribution*"
        }
      },
      "getClaimer(address)": {
        "details": "Returns the whitelisted claimer for a certain address (0x0 if not set)",
        "params": {
          "user": "The address of the user"
        },
        "returns": {
          "_0": "The claimer address"
        }
      },
      "getDistributionEnd(address,address)": {
        "details": "Gets the end date for the distribution",
        "params": {
          "asset": "The incentivized asset",
          "reward": "The reward token of the incentivized asset"
        },
        "returns": {
          "_0": "The timestamp with the end of the distribution, in unix time format*"
        }
      },
      "getEmissionManager()": {
        "details": "Returns the address of the emission manager. Deprecated: This getter is maintained for compatibility purposes. Use the `EMISSION_MANAGER()` function instead.",
        "returns": {
          "_0": "The address of the EmissionManager"
        }
      },
      "getRewardOracle(address)": {
        "details": "Get the price aggregator oracle address",
        "params": {
          "reward": "The address of the reward"
        },
        "returns": {
          "_0": "The price oracle of the reward"
        }
      },
      "getRewardsByAsset(address)": {
        "details": "Returns the list of available reward token addresses of an incentivized asset",
        "params": {
          "asset": "The incentivized asset"
        },
        "returns": {
          "_0": "List of rewards addresses of the input asset*"
        }
      },
      "getRewardsData(address,address)": {
        "details": "Returns the configuration of the distribution reward for a certain asset",
        "params": {
          "asset": "The incentivized asset",
          "reward": "The reward token of the incentivized asset"
        },
        "returns": {
          "_0": "The index of the asset distribution",
          "_1": "The emission per second of the reward distribution",
          "_2": "The timestamp of the last update of the index",
          "_3": "The timestamp of the distribution end*"
        }
      },
      "getRewardsList()": {
        "details": "Returns the list of available reward addresses",
        "returns": {
          "_0": "List of rewards supported in this contract*"
        }
      },
      "getTransferStrategy(address)": {
        "details": "Returns the Transfer Strategy implementation contract address being used for a reward address",
        "params": {
          "reward": "The address of the reward"
        },
        "returns": {
          "_0": "The address of the TransferStrategy contract"
        }
      },
      "getUserAccruedRewards(address,address)": {
        "details": "Returns the accrued rewards balance of a user, not including virtually accrued rewards since last distribution.",
        "params": {
          "reward": "The address of the reward token",
          "user": "The address of the user"
        },
        "returns": {
          "_0": "Unclaimed rewards, not including new distributions*"
        }
      },
      "getUserAssetIndex(address,address,address)": {
        "details": "Returns the index of a user on a reward distribution",
        "params": {
          "asset": "The incentivized asset",
          "reward": "The reward token of the incentivized asset",
          "user": "Address of the user"
        },
        "returns": {
          "_0": "The current user asset index, not including new distributions*"
        }
      },
      "getUserRewards(address[],address,address)": {
        "details": "Returns a single rewards balance of a user, including virtually accrued and unrealized claimable rewards.",
        "params": {
          "assets": "List of incentivized assets to check eligible distributions",
          "reward": "The address of the reward token",
          "user": "The address of the user"
        },
        "returns": {
          "_0": "The rewards amount*"
        }
      },
      "handleAction(address,uint256,uint256)": {
        "details": "Called by the corresponding asset on transfer hook in order to update the rewards distribution.The units of `totalSupply` and `userBalance` should be the same.",
        "params": {
          "totalSupply": "The total supply of the asset prior to user balance change",
          "user": "The address of the user whose asset balance has changed",
          "userBalance": "The previous user balance prior to balance change*"
        }
      },
      "initialize(address)": {
        "details": "Initialize for RewardsControllerIt expects an address as argument since its initialized via PoolAddressesProvider._updateImpl()*"
      },
      "setClaimer(address,address)": {
        "details": "Whitelists an address to claim the rewards on behalf of another address",
        "params": {
          "claimer": "The address of the claimer",
          "user": "The address of the user"
        }
      },
      "setDistributionEnd(address,address,uint32)": {
        "details": "Sets the end date for the distribution",
        "params": {
          "asset": "The asset to incentivize",
          "newDistributionEnd": "The end date of the incentivization, in unix time format*",
          "reward": "The reward token that incentives the asset"
        }
      },
      "setEmissionPerSecond(address,address[],uint88[])": {
        "details": "Sets the emission per second of a set of reward distributions",
        "params": {
          "asset": "The asset is being incentivized",
          "newEmissionsPerSecond": "List of new reward emissions per second",
          "rewards": "List of reward addresses are being distributed"
        }
      },
      "setRewardOracle(address,address)": {
        "details": "Sets an Aave Oracle contract to enforce rewards with a source of value.",
        "params": {
          "reward": "The address of the reward to set the price aggregator",
          "rewardOracle": "The address of price aggregator that follows IEACAggregatorProxy interface"
        }
      },
      "setTransferStrategy(address,address)": {
        "details": "Sets a TransferStrategy logic contract that determines the logic of the rewards transfer",
        "params": {
          "reward": "The address of the reward token",
          "transferStrategy": "The address of the TransferStrategy logic contract"
        }
      }
    },
    "title": "RewardsController",
    "version": 1
  },
  "userdoc": {
    "kind": "user",
    "methods": {
      "setRewardOracle(address,address)": {
        "notice": "At the moment of reward configuration, the Incentives Controller performs a check to see if the reward asset oracle is compatible with IEACAggregator proxy. This check is enforced for integrators to be able to show incentives at the current Aave UI without the need to setup an external price registry"
      }
    },
    "notice": "Abstract contract template to build Distributors contracts for ERC20 rewards to protocol participants",
    "version": 1
  },
  "storageLayout": {
    "storage": [
      {
        "astId": 38342,
        "contract": "@aave/periphery-v3/contracts/rewards/RewardsController.sol:RewardsController",
        "label": "_emissionManager",
        "offset": 0,
        "slot": "0",
        "type": "t_address"
      },
      {
        "astId": 38347,
        "contract": "@aave/periphery-v3/contracts/rewards/RewardsController.sol:RewardsController",
        "label": "_assets",
        "offset": 0,
        "slot": "1",
        "type": "t_mapping(t_address,t_struct(AssetData)40448_storage)"
      },
      {
        "astId": 38351,
        "contract": "@aave/periphery-v3/contracts/rewards/RewardsController.sol:RewardsController",
        "label": "_isRewardEnabled",
        "offset": 0,
        "slot": "2",
        "type": "t_mapping(t_address,t_bool)"
      },
      {
        "astId": 38354,
        "contract": "@aave/periphery-v3/contracts/rewards/RewardsController.sol:RewardsController",
        "label": "_rewardsList",
        "offset": 0,
        "slot": "3",
        "type": "t_array(t_address)dyn_storage"
      },
      {
        "astId": 38357,
        "contract": "@aave/periphery-v3/contracts/rewards/RewardsController.sol:RewardsController",
        "label": "_assetsList",
        "offset": 0,
        "slot": "4",
        "type": "t_array(t_address)dyn_storage"
      },
      {
        "astId": 11182,
        "contract": "@aave/periphery-v3/contracts/rewards/RewardsController.sol:RewardsController",
        "label": "lastInitializedRevision",
        "offset": 0,
        "slot": "5",
        "type": "t_uint256"
      },
      {
        "astId": 11185,
        "contract": "@aave/periphery-v3/contracts/rewards/RewardsController.sol:RewardsController",
        "label": "initializing",
        "offset": 0,
        "slot": "6",
        "type": "t_bool"
      },
      {
        "astId": 11255,
        "contract": "@aave/periphery-v3/contracts/rewards/RewardsController.sol:RewardsController",
        "label": "______gap",
        "offset": 0,
        "slot": "7",
        "type": "t_array(t_uint256)50_storage"
      },
      {
        "astId": 37326,
        "contract": "@aave/periphery-v3/contracts/rewards/RewardsController.sol:RewardsController",
        "label": "_authorizedClaimers",
        "offset": 0,
        "slot": "57",
        "type": "t_mapping(t_address,t_address)"
      },
      {
        "astId": 37331,
        "contract": "@aave/periphery-v3/contracts/rewards/RewardsController.sol:RewardsController",
        "label": "_transferStrategy",
        "offset": 0,
        "slot": "58",
        "type": "t_mapping(t_address,t_contract(ITransferStrategyBase)40385)"
      },
      {
        "astId": 37336,
        "contract": "@aave/periphery-v3/contracts/rewards/RewardsController.sol:RewardsController",
        "label": "_rewardOracle",
        "offset": 0,
        "slot": "59",
        "type": "t_mapping(t_address,t_contract(IEACAggregatorProxy)35825)"
      }
    ],
    "types": {
      "t_address": {
        "encoding": "inplace",
        "label": "address",
        "numberOfBytes": "20"
      },
      "t_array(t_address)dyn_storage": {
        "base": "t_address",
        "encoding": "dynamic_array",
        "label": "address[]",
        "numberOfBytes": "32"
      },
      "t_array(t_uint256)50_storage": {
        "base": "t_uint256",
        "encoding": "inplace",
        "label": "uint256[50]",
        "numberOfBytes": "1600"
      },
      "t_bool": {
        "encoding": "inplace",
        "label": "bool",
        "numberOfBytes": "1"
      },
      "t_contract(IEACAggregatorProxy)35825": {
        "encoding": "inplace",
        "label": "contract IEACAggregatorProxy",
        "numberOfBytes": "20"
      },
      "t_contract(ITransferStrategyBase)40385": {
        "encoding": "inplace",
        "label": "contract ITransferStrategyBase",
        "numberOfBytes": "20"
      },
      "t_mapping(t_address,t_address)": {
        "encoding": "mapping",
        "key": "t_address",
        "label": "mapping(address => address)",
        "numberOfBytes": "32",
        "value": "t_address"
      },
      "t_mapping(t_address,t_bool)": {
        "encoding": "mapping",
        "key": "t_address",
        "label": "mapping(address => bool)",
        "numberOfBytes": "32",
        "value": "t_bool"
      },
      "t_mapping(t_address,t_contract(IEACAggregatorProxy)35825)": {
        "encoding": "mapping",
        "key": "t_address",
        "label": "mapping(address => contract IEACAggregatorProxy)",
        "numberOfBytes": "32",
        "value": "t_contract(IEACAggregatorProxy)35825"
      },
      "t_mapping(t_address,t_contract(ITransferStrategyBase)40385)": {
        "encoding": "mapping",
        "key": "t_address",
        "label": "mapping(address => contract ITransferStrategyBase)",
        "numberOfBytes": "32",
        "value": "t_contract(ITransferStrategyBase)40385"
      },
      "t_mapping(t_address,t_struct(AssetData)40448_storage)": {
        "encoding": "mapping",
        "key": "t_address",
        "label": "mapping(address => struct RewardsDataTypes.AssetData)",
        "numberOfBytes": "32",
        "value": "t_struct(AssetData)40448_storage"
      },
      "t_mapping(t_address,t_struct(RewardData)40434_storage)": {
        "encoding": "mapping",
        "key": "t_address",
        "label": "mapping(address => struct RewardsDataTypes.RewardData)",
        "numberOfBytes": "32",
        "value": "t_struct(RewardData)40434_storage"
      },
      "t_mapping(t_address,t_struct(UserData)40420_storage)": {
        "encoding": "mapping",
        "key": "t_address",
        "label": "mapping(address => struct RewardsDataTypes.UserData)",
        "numberOfBytes": "32",
        "value": "t_struct(UserData)40420_storage"
      },
      "t_mapping(t_uint128,t_address)": {
        "encoding": "mapping",
        "key": "t_uint128",
        "label": "mapping(uint128 => address)",
        "numberOfBytes": "32",
        "value": "t_address"
      },
      "t_struct(AssetData)40448_storage": {
        "encoding": "inplace",
        "label": "struct RewardsDataTypes.AssetData",
        "members": [
          {
            "astId": 40439,
            "contract": "@aave/periphery-v3/contracts/rewards/RewardsController.sol:RewardsController",
            "label": "rewards",
            "offset": 0,
            "slot": "0",
            "type": "t_mapping(t_address,t_struct(RewardData)40434_storage)"
          },
          {
            "astId": 40443,
            "contract": "@aave/periphery-v3/contracts/rewards/RewardsController.sol:RewardsController",
            "label": "availableRewards",
            "offset": 0,
            "slot": "1",
            "type": "t_mapping(t_uint128,t_address)"
          },
          {
            "astId": 40445,
            "contract": "@aave/periphery-v3/contracts/rewards/RewardsController.sol:RewardsController",
            "label": "availableRewardsCount",
            "offset": 0,
            "slot": "2",
            "type": "t_uint128"
          },
          {
            "astId": 40447,
            "contract": "@aave/periphery-v3/contracts/rewards/RewardsController.sol:RewardsController",
            "label": "decimals",
            "offset": 16,
            "slot": "2",
            "type": "t_uint8"
          }
        ],
        "numberOfBytes": "96"
      },
      "t_struct(RewardData)40434_storage": {
        "encoding": "inplace",
        "label": "struct RewardsDataTypes.RewardData",
        "members": [
          {
            "astId": 40422,
            "contract": "@aave/periphery-v3/contracts/rewards/RewardsController.sol:RewardsController",
            "label": "index",
            "offset": 0,
            "slot": "0",
            "type": "t_uint104"
          },
          {
            "astId": 40424,
            "contract": "@aave/periphery-v3/contracts/rewards/RewardsController.sol:RewardsController",
            "label": "emissionPerSecond",
            "offset": 13,
            "slot": "0",
            "type": "t_uint88"
          },
          {
            "astId": 40426,
            "contract": "@aave/periphery-v3/contracts/rewards/RewardsController.sol:RewardsController",
            "label": "lastUpdateTimestamp",
            "offset": 24,
            "slot": "0",
            "type": "t_uint32"
          },
          {
            "astId": 40428,
            "contract": "@aave/periphery-v3/contracts/rewards/RewardsController.sol:RewardsController",
            "label": "distributionEnd",
            "offset": 28,
            "slot": "0",
            "type": "t_uint32"
          },
          {
            "astId": 40433,
            "contract": "@aave/periphery-v3/contracts/rewards/RewardsController.sol:RewardsController",
            "label": "usersData",
            "offset": 0,
            "slot": "1",
            "type": "t_mapping(t_address,t_struct(UserData)40420_storage)"
          }
        ],
        "numberOfBytes": "64"
      },
      "t_struct(UserData)40420_storage": {
        "encoding": "inplace",
        "label": "struct RewardsDataTypes.UserData",
        "members": [
          {
            "astId": 40417,
            "contract": "@aave/periphery-v3/contracts/rewards/RewardsController.sol:RewardsController",
            "label": "index",
            "offset": 0,
            "slot": "0",
            "type": "t_uint104"
          },
          {
            "astId": 40419,
            "contract": "@aave/periphery-v3/contracts/rewards/RewardsController.sol:RewardsController",
            "label": "accrued",
            "offset": 13,
            "slot": "0",
            "type": "t_uint128"
          }
        ],
        "numberOfBytes": "32"
      },
      "t_uint104": {
        "encoding": "inplace",
        "label": "uint104",
        "numberOfBytes": "13"
      },
      "t_uint128": {
        "encoding": "inplace",
        "label": "uint128",
        "numberOfBytes": "16"
      },
      "t_uint256": {
        "encoding": "inplace",
        "label": "uint256",
        "numberOfBytes": "32"
      },
      "t_uint32": {
        "encoding": "inplace",
        "label": "uint32",
        "numberOfBytes": "4"
      },
      "t_uint8": {
        "encoding": "inplace",
        "label": "uint8",
        "numberOfBytes": "1"
      },
      "t_uint88": {
        "encoding": "inplace",
        "label": "uint88",
        "numberOfBytes": "11"
      }
    }
  }
}