{
  "_format": "hh-sol-artifact-1",
  "contractName": "MockStakingProtocol",
  "sourceName": "contracts/mocks/MockProtocols.sol",
  "abi": [
    {
      "inputs": [],
      "stateMutability": "nonpayable",
      "type": "constructor"
    },
    {
      "anonymous": false,
      "inputs": [
        {
          "indexed": true,
          "internalType": "address",
          "name": "user",
          "type": "address"
        },
        {
          "indexed": true,
          "internalType": "address",
          "name": "token",
          "type": "address"
        },
        {
          "indexed": false,
          "internalType": "uint256",
          "name": "reward",
          "type": "uint256"
        }
      ],
      "name": "RewardsClaimed",
      "type": "event"
    },
    {
      "anonymous": false,
      "inputs": [
        {
          "indexed": true,
          "internalType": "bytes32",
          "name": "role",
          "type": "bytes32"
        },
        {
          "indexed": true,
          "internalType": "bytes32",
          "name": "previousAdminRole",
          "type": "bytes32"
        },
        {
          "indexed": true,
          "internalType": "bytes32",
          "name": "newAdminRole",
          "type": "bytes32"
        }
      ],
      "name": "RoleAdminChanged",
      "type": "event"
    },
    {
      "anonymous": false,
      "inputs": [
        {
          "indexed": true,
          "internalType": "bytes32",
          "name": "role",
          "type": "bytes32"
        },
        {
          "indexed": true,
          "internalType": "address",
          "name": "account",
          "type": "address"
        },
        {
          "indexed": true,
          "internalType": "address",
          "name": "sender",
          "type": "address"
        }
      ],
      "name": "RoleGranted",
      "type": "event"
    },
    {
      "anonymous": false,
      "inputs": [
        {
          "indexed": true,
          "internalType": "bytes32",
          "name": "role",
          "type": "bytes32"
        },
        {
          "indexed": true,
          "internalType": "address",
          "name": "account",
          "type": "address"
        },
        {
          "indexed": true,
          "internalType": "address",
          "name": "sender",
          "type": "address"
        }
      ],
      "name": "RoleRevoked",
      "type": "event"
    },
    {
      "anonymous": false,
      "inputs": [
        {
          "indexed": true,
          "internalType": "address",
          "name": "user",
          "type": "address"
        },
        {
          "indexed": true,
          "internalType": "address",
          "name": "token",
          "type": "address"
        },
        {
          "indexed": false,
          "internalType": "uint256",
          "name": "amount",
          "type": "uint256"
        }
      ],
      "name": "Staked",
      "type": "event"
    },
    {
      "anonymous": false,
      "inputs": [
        {
          "indexed": true,
          "internalType": "address",
          "name": "user",
          "type": "address"
        },
        {
          "indexed": true,
          "internalType": "address",
          "name": "token",
          "type": "address"
        },
        {
          "indexed": false,
          "internalType": "uint256",
          "name": "amount",
          "type": "uint256"
        }
      ],
      "name": "Unstaked",
      "type": "event"
    },
    {
      "inputs": [],
      "name": "ADMIN_ROLE",
      "outputs": [
        {
          "internalType": "bytes32",
          "name": "",
          "type": "bytes32"
        }
      ],
      "stateMutability": "view",
      "type": "function"
    },
    {
      "inputs": [],
      "name": "DEFAULT_ADMIN_ROLE",
      "outputs": [
        {
          "internalType": "bytes32",
          "name": "",
          "type": "bytes32"
        }
      ],
      "stateMutability": "view",
      "type": "function"
    },
    {
      "inputs": [],
      "name": "claimRewards",
      "outputs": [
        {
          "internalType": "uint256",
          "name": "",
          "type": "uint256"
        }
      ],
      "stateMutability": "nonpayable",
      "type": "function"
    },
    {
      "inputs": [
        {
          "internalType": "address",
          "name": "token",
          "type": "address"
        },
        {
          "internalType": "uint256",
          "name": "rewardRate",
          "type": "uint256"
        }
      ],
      "name": "createStakingPool",
      "outputs": [],
      "stateMutability": "nonpayable",
      "type": "function"
    },
    {
      "inputs": [
        {
          "internalType": "address",
          "name": "token",
          "type": "address"
        },
        {
          "internalType": "address",
          "name": "user",
          "type": "address"
        }
      ],
      "name": "earned",
      "outputs": [
        {
          "internalType": "uint256",
          "name": "",
          "type": "uint256"
        }
      ],
      "stateMutability": "view",
      "type": "function"
    },
    {
      "inputs": [],
      "name": "getAPR",
      "outputs": [
        {
          "internalType": "uint256",
          "name": "",
          "type": "uint256"
        }
      ],
      "stateMutability": "view",
      "type": "function"
    },
    {
      "inputs": [
        {
          "internalType": "bytes32",
          "name": "role",
          "type": "bytes32"
        }
      ],
      "name": "getRoleAdmin",
      "outputs": [
        {
          "internalType": "bytes32",
          "name": "",
          "type": "bytes32"
        }
      ],
      "stateMutability": "view",
      "type": "function"
    },
    {
      "inputs": [
        {
          "internalType": "address",
          "name": "user",
          "type": "address"
        }
      ],
      "name": "getStakedBalance",
      "outputs": [
        {
          "internalType": "uint256",
          "name": "",
          "type": "uint256"
        }
      ],
      "stateMutability": "view",
      "type": "function"
    },
    {
      "inputs": [
        {
          "internalType": "bytes32",
          "name": "role",
          "type": "bytes32"
        },
        {
          "internalType": "address",
          "name": "account",
          "type": "address"
        }
      ],
      "name": "grantRole",
      "outputs": [],
      "stateMutability": "nonpayable",
      "type": "function"
    },
    {
      "inputs": [
        {
          "internalType": "bytes32",
          "name": "role",
          "type": "bytes32"
        },
        {
          "internalType": "address",
          "name": "account",
          "type": "address"
        }
      ],
      "name": "hasRole",
      "outputs": [
        {
          "internalType": "bool",
          "name": "",
          "type": "bool"
        }
      ],
      "stateMutability": "view",
      "type": "function"
    },
    {
      "inputs": [
        {
          "internalType": "bytes32",
          "name": "role",
          "type": "bytes32"
        },
        {
          "internalType": "address",
          "name": "account",
          "type": "address"
        }
      ],
      "name": "renounceRole",
      "outputs": [],
      "stateMutability": "nonpayable",
      "type": "function"
    },
    {
      "inputs": [
        {
          "internalType": "bytes32",
          "name": "role",
          "type": "bytes32"
        },
        {
          "internalType": "address",
          "name": "account",
          "type": "address"
        }
      ],
      "name": "revokeRole",
      "outputs": [],
      "stateMutability": "nonpayable",
      "type": "function"
    },
    {
      "inputs": [
        {
          "internalType": "address",
          "name": "token",
          "type": "address"
        }
      ],
      "name": "rewardPerToken",
      "outputs": [
        {
          "internalType": "uint256",
          "name": "",
          "type": "uint256"
        }
      ],
      "stateMutability": "view",
      "type": "function"
    },
    {
      "inputs": [
        {
          "internalType": "uint256",
          "name": "amount",
          "type": "uint256"
        }
      ],
      "name": "stake",
      "outputs": [],
      "stateMutability": "nonpayable",
      "type": "function"
    },
    {
      "inputs": [
        {
          "internalType": "address",
          "name": "",
          "type": "address"
        }
      ],
      "name": "stakingPools",
      "outputs": [
        {
          "internalType": "contract IERC20",
          "name": "stakingToken",
          "type": "address"
        },
        {
          "internalType": "uint256",
          "name": "rewardRate",
          "type": "uint256"
        },
        {
          "internalType": "uint256",
          "name": "totalStaked",
          "type": "uint256"
        },
        {
          "internalType": "uint256",
          "name": "lastUpdateTime",
          "type": "uint256"
        },
        {
          "internalType": "uint256",
          "name": "rewardPerTokenStored",
          "type": "uint256"
        },
        {
          "internalType": "bool",
          "name": "active",
          "type": "bool"
        }
      ],
      "stateMutability": "view",
      "type": "function"
    },
    {
      "inputs": [
        {
          "internalType": "bytes4",
          "name": "interfaceId",
          "type": "bytes4"
        }
      ],
      "name": "supportsInterface",
      "outputs": [
        {
          "internalType": "bool",
          "name": "",
          "type": "bool"
        }
      ],
      "stateMutability": "view",
      "type": "function"
    },
    {
      "inputs": [
        {
          "internalType": "uint256",
          "name": "amount",
          "type": "uint256"
        }
      ],
      "name": "unstake",
      "outputs": [],
      "stateMutability": "nonpayable",
      "type": "function"
    },
    {
      "inputs": [
        {
          "internalType": "address",
          "name": "",
          "type": "address"
        },
        {
          "internalType": "address",
          "name": "",
          "type": "address"
        }
      ],
      "name": "userInfo",
      "outputs": [
        {
          "internalType": "uint256",
          "name": "stakedAmount",
          "type": "uint256"
        },
        {
          "internalType": "uint256",
          "name": "userRewardPerTokenPaid",
          "type": "uint256"
        },
        {
          "internalType": "uint256",
          "name": "rewards",
          "type": "uint256"
        },
        {
          "internalType": "uint256",
          "name": "lastStakeTime",
          "type": "uint256"
        }
      ],
      "stateMutability": "view",
      "type": "function"
    }
  ],
  "bytecode": "0x60806040523461010657336000908152600080516020611495833981519152602052604090205460ff16156100c6575b336000908152600080516020611475833981519152602052604090205460ff1615610064575b604051611349908161010c8239f35b33600081815260008051602061147583398151915260205260408120805460ff1916600117905581907fa49807205ce4d355092ef5a8a18f56e8913cf4a201fbe287825b095693c21775906000805160206114558339815191529080a4610055565b33600081815260008051602061149583398151915260205260408120805460ff1916600117905581906000805160206114558339815191528180a461002f565b600080fdfe608080604052600436101561001357600080fd5b60003560e01c90816301ffc9a714610a57575080630f208beb146109df578063211dc32d146109b3578063248a9ca3146109865780632e17de781461083e5780632f2ff15d1461077757806336568abe146106d8578063372500ab1461063e5780633a02a42d146105f75780635ef5ccbf1461041157806375b238fc146103d657806391d1485414610388578063a217fddf1461036c578063a694fc3a146101f8578063ad935e9714610179578063c89d5b8b1461015c578063d547741f146101155763f1229777146100e557600080fd5b34610110576020366003190112610110576020610108610103610af5565b610c62565b604051908152f35b600080fd5b346101105760403660031901126101105761015a600435610134610b0b565b9061015561015082600052600060205260016040600020015490565b610de7565b610e31565b005b346101105760003660031901126101105760206040516113888152f35b34610110576020366003190112610110576001600160a01b0361019a610af5565b16600052600160205260c060406000206001600160a01b0381541690600181015490600281015460038201549060ff6005600485015494015416936040519586526020860152604085015260608401526080830152151560a0820152f35b3461011057602036600319011261011057600435336000526001602052604060002060ff60058201541615610328576002906102343333610d3e565b6102926001600160a01b03825416604051907f23b872dd0000000000000000000000000000000000000000000000000000000060208301523360248301523060448301528560648301526064825261028d608483610b53565b610eda565b336000528160205260406000206001600160a01b03331660005260205260406000206102bf848254610bab565b9055016102cd828254610bab565b905533600052600260205260406000206001600160a01b033316600052602052604060002060034291015560405190815233907f5dac0c1b1112564a045ba943c9d50270893e8e826c49be8e7073adc713ab7bd760203392a3005b606460405162461bcd60e51b815260206004820152600f60248201527f506f6f6c206e6f742061637469766500000000000000000000000000000000006044820152fd5b3461011057600036600319011261011057602060405160008152f35b34610110576040366003190112610110576103a1610b0b565b60043560005260006020526001600160a01b0360406000209116600052602052602060ff604060002054166040519015158152f35b346101105760003660031901126101105760206040517fa49807205ce4d355092ef5a8a18f56e8913cf4a201fbe287825b095693c217758152f35b346101105760403660031901126101105761042a610af5565b3360009081527f7d7ffb7a348e1c6a02869081a26547b49160dd3df72d1d75a570eb9b698292ec602052604090205460ff1615610513576001600160a01b0316600560405161047881610b21565b8281526020810160243581526040820160008152606083019042825260808401926000845260a08501966001885260005260016020526001600160a01b0360406000209551167fffffffffffffffffffffffff0000000000000000000000000000000000000000865416178555516001850155516002840155516003830155516004820155019051151560ff80198354169116179055600080f35b6105f361051f3361107d565b6105db601161054d7fa49807205ce4d355092ef5a8a18f56e8913cf4a201fbe287825b095693c217756111ca565b9260376040519485927f416363657373436f6e74726f6c3a206163636f756e7420000000000000000000602085015261058f8151809260208688019101611007565b83017f206973206d697373696e6720726f6c6520000000000000000000000000000000838201526105ca825180936020604885019101611007565b01010301601f198101835282610b53565b60405191829162461bcd60e51b83526004830161102a565b0390fd5b3461011057602036600319011261011057610610610af5565b3360005260026020526001600160a01b03604060002091166000526020526020604060002054604051908152f35b34610110576000366003190112610110576106593333610d3e565b33600090815260026020818152604080842082529092200154806106ad575b60405181815233907f9310ccfcb8de723f578a9e4282ea9f521f05ae40dc08f3068dfad528a65ee3c7843392a3604051908152f35b336000526002825260406000206001600160a01b033316600052825260006002604082200155610678565b34610110576040366003190112610110576106f1610b0b565b336001600160a01b0382160361070d5761015a90600435610e31565b608460405162461bcd60e51b815260206004820152602f60248201527f416363657373436f6e74726f6c3a2063616e206f6e6c792072656e6f756e636560448201527f20726f6c657320666f722073656c6600000000000000000000000000000000006064820152fd5b3461011057604036600319011261011057600435610793610b0b565b906107af61015082600052600060205260016040600020015490565b80600052600060205260406000206001600160a01b03831660005260205260ff60406000205416156107dd57005b80600052600060205260406000206001600160a01b0383166000526020526040600020600160ff198254161790556001600160a01b03339216907f2f8788117e7eff1d82e926ec794901d17c78024a50270940304540a733656f0d600080a4005b346101105760203660031901126101105760043561085c3333610d3e565b33600052600260205260406000206001600160a01b03331660005260205260406000208054828110610942578261089291610b75565b905533600052600160205260026040600020016108b0828254610b75565b90553360005260016020526109126001600160a01b0360406000205416604051907fa9059cbb0000000000000000000000000000000000000000000000000000000060208301523360248301528360448301526044825261028d606483610b53565b60405190815233907fd8654fcc8cf5b36d30b3f5e4688fc78118e6d68de60b9994e09902268b57c3e360203392a3005b606460405162461bcd60e51b815260206004820152601a60248201527f496e73756666696369656e74207374616b656420616d6f756e740000000000006044820152fd5b34610110576020366003190112610110576020610108600435600052600060205260016040600020015490565b346101105760403660031901126101105760206101086109d1610af5565b6109d9610b0b565b90610bb8565b3461011057604036600319011261011057608060406109fc610af5565b6001600160a01b03610a0c610b0b565b91166000526002602052816000206001600160a01b03600092168252602052208054906001810154906003600282015491015491604051938452602084015260408301526060820152f35b3461011057602036600319011261011057600435907fffffffff00000000000000000000000000000000000000000000000000000000821680920361011057817f7965db0b0000000000000000000000000000000000000000000000000000000060209314908115610acb575b5015158152f35b7f01ffc9a70000000000000000000000000000000000000000000000000000000091501483610ac4565b600435906001600160a01b038216820361011057565b602435906001600160a01b038216820361011057565b60c0810190811067ffffffffffffffff821117610b3d57604052565b634e487b7160e01b600052604160045260246000fd5b90601f8019910116810190811067ffffffffffffffff821117610b3d57604052565b91908203918211610b8257565b634e487b7160e01b600052601160045260246000fd5b81810292918115918404141715610b8257565b91908201809211610b8257565b906040906001600160a01b0383166000526002602052816000206001600160a01b0360009216825260205220604051608081019080821067ffffffffffffffff831117610b3d57610c5f93610c50610c5692670de0b6b3a764000094604052610c48865493848352600188015492602081019384526060600360028b01549a604084019b8c520154910152610c62565b905190610b75565b90610b98565b04905190610bab565b90565b6001600160a01b03166000526001602052604060002060405190610c8582610b21565b6001600160a01b038154168252600181015460208301908152600282015492604081019380855260038401549182606082015260a060ff6005600488015497886080860152015416151591015215610d375790610ce5610ced9242610b75565b905190610b98565b91670de0b6b3a7640000830292808404670de0b6b3a76400001490151715610b8257518015610d2157610c5f920490610bab565b634e487b7160e01b600052601260045260246000fd5b5050905090565b906001600160a01b03821691826000526001602052604060002090610d6281610c62565b91600481019283556003429101556001600160a01b038316610d85575b50505050565b82610d8f91610bb8565b83600052600260205260406000206001600160a01b038416600052602052600260406000200155549160005260026020526001600160a01b036040600020911660005260205260016040600020015538808080610d7f565b80600052600060205260406000206001600160a01b03331660005260205260ff6040600020541615610e165750565b6105f3906105db601161054d610e2b3361107d565b936111ca565b80600052600060205260406000206001600160a01b03831660005260205260ff60406000205416610e60575050565b80600052600060205260406000206001600160a01b038316600052602052604060002060ff1981541690556001600160a01b03339216907ff6391f5c32d9c69d2a47ea670b442974b53935d1edc7fd64eb21e047a839171b600080a4565b67ffffffffffffffff8111610b3d57601f01601f191660200190565b6001600160a01b03610f5c911691604092600080855193610efb8786610b53565b602085527f5361666545524332303a206c6f772d6c6576656c2063616c6c206661696c6564602086015260208151910182855af13d15610fff573d91610f4083610ebe565b92610f4d87519485610b53565b83523d6000602085013e611283565b8051908115918215610fdc575b505015610f735750565b6084905162461bcd60e51b815260206004820152602a60248201527f5361666545524332303a204552433230206f7065726174696f6e20646964206e60448201527f6f742073756363656564000000000000000000000000000000000000000000006064820152fd5b819250906020918101031261011057602001518015158103610110573880610f69565b606091611283565b60005b83811061101a5750506000910152565b818101518382015260200161100a565b6040916020825261104a8151809281602086015260208686019101611007565b601f01601f1916010190565b908151811015611067570160200190565b634e487b7160e01b600052603260045260246000fd5b60009061108a602a610ebe565b916110986040519384610b53565b602a83526110a6602a610ebe565b6020840190601f19013682378351156111b657603090538251600110156111a2576078602184015350602960005b600182116111295750506110e55790565b606460405162461bcd60e51b815260206004820152602060248201527f537472696e67733a20686578206c656e67746820696e73756666696369656e746044820152fd5b9091600f8116601081101561118e577f3031323334353637383961626364656600000000000000000000000000000000901a6111658486611056565b5360041c91801561117a5760001901906110d4565b602482634e487b7160e01b81526011600452fd5b602483634e487b7160e01b81526032600452fd5b80634e487b7160e01b602492526032600452fd5b602482634e487b7160e01b81526032600452fd5b6000906111d76042610ebe565b916111e56040519384610b53565b604283526111f36042610ebe565b6020840190601f19013682378351156111b657603090538251600110156111a2576078602184015350604160005b600182116112325750506110e55790565b9091600f8116601081101561118e577f3031323334353637383961626364656600000000000000000000000000000000901a61126e8486611056565b5360041c91801561117a576000190190611221565b919290156112e45750815115611297575090565b3b156112a05790565b606460405162461bcd60e51b815260206004820152601d60248201527f416464726573733a2063616c6c20746f206e6f6e2d636f6e74726163740000006044820152fd5b8251909150156112f75750805190602001fd5b6105f39060405191829162461bcd60e51b83526004830161102a56fea2646970667358221220995e05fcd01bdc5be74d00bc1ece6b58df483c527f144b5dc5611d0a5030dce964736f6c634300081c00332f8788117e7eff1d82e926ec794901d17c78024a50270940304540a733656f0d7d7ffb7a348e1c6a02869081a26547b49160dd3df72d1d75a570eb9b698292ecad3228b676f7d3cd4284a5443f17f1962b36e491b30a40b2405849e597ba5fb5",
  "linkReferences": {},
  "deployedLinkReferences": {}
}