{
  "_format": "hh-sol-artifact-1",
  "contractName": "MockLendingProtocol",
  "sourceName": "contracts/mocks/MockProtocols.sol",
  "abi": [
    {
      "inputs": [],
      "stateMutability": "nonpayable",
      "type": "constructor"
    },
    {
      "anonymous": false,
      "inputs": [
        {
          "indexed": true,
          "internalType": "address",
          "name": "asset",
          "type": "address"
        },
        {
          "indexed": false,
          "internalType": "uint256",
          "name": "supplyRate",
          "type": "uint256"
        }
      ],
      "name": "MarketAdded",
      "type": "event"
    },
    {
      "anonymous": false,
      "inputs": [
        {
          "indexed": true,
          "internalType": "bytes32",
          "name": "role",
          "type": "bytes32"
        },
        {
          "indexed": true,
          "internalType": "bytes32",
          "name": "previousAdminRole",
          "type": "bytes32"
        },
        {
          "indexed": true,
          "internalType": "bytes32",
          "name": "newAdminRole",
          "type": "bytes32"
        }
      ],
      "name": "RoleAdminChanged",
      "type": "event"
    },
    {
      "anonymous": false,
      "inputs": [
        {
          "indexed": true,
          "internalType": "bytes32",
          "name": "role",
          "type": "bytes32"
        },
        {
          "indexed": true,
          "internalType": "address",
          "name": "account",
          "type": "address"
        },
        {
          "indexed": true,
          "internalType": "address",
          "name": "sender",
          "type": "address"
        }
      ],
      "name": "RoleGranted",
      "type": "event"
    },
    {
      "anonymous": false,
      "inputs": [
        {
          "indexed": true,
          "internalType": "bytes32",
          "name": "role",
          "type": "bytes32"
        },
        {
          "indexed": true,
          "internalType": "address",
          "name": "account",
          "type": "address"
        },
        {
          "indexed": true,
          "internalType": "address",
          "name": "sender",
          "type": "address"
        }
      ],
      "name": "RoleRevoked",
      "type": "event"
    },
    {
      "anonymous": false,
      "inputs": [
        {
          "indexed": true,
          "internalType": "address",
          "name": "user",
          "type": "address"
        },
        {
          "indexed": true,
          "internalType": "address",
          "name": "asset",
          "type": "address"
        },
        {
          "indexed": false,
          "internalType": "uint256",
          "name": "amount",
          "type": "uint256"
        }
      ],
      "name": "Supply",
      "type": "event"
    },
    {
      "anonymous": false,
      "inputs": [
        {
          "indexed": true,
          "internalType": "address",
          "name": "user",
          "type": "address"
        },
        {
          "indexed": true,
          "internalType": "address",
          "name": "asset",
          "type": "address"
        },
        {
          "indexed": false,
          "internalType": "uint256",
          "name": "amount",
          "type": "uint256"
        }
      ],
      "name": "Withdraw",
      "type": "event"
    },
    {
      "inputs": [],
      "name": "ADMIN_ROLE",
      "outputs": [
        {
          "internalType": "bytes32",
          "name": "",
          "type": "bytes32"
        }
      ],
      "stateMutability": "view",
      "type": "function"
    },
    {
      "inputs": [],
      "name": "DEFAULT_ADMIN_ROLE",
      "outputs": [
        {
          "internalType": "bytes32",
          "name": "",
          "type": "bytes32"
        }
      ],
      "stateMutability": "view",
      "type": "function"
    },
    {
      "inputs": [
        {
          "internalType": "address",
          "name": "asset",
          "type": "address"
        },
        {
          "internalType": "uint256",
          "name": "supplyRate",
          "type": "uint256"
        },
        {
          "internalType": "uint256",
          "name": "borrowRate",
          "type": "uint256"
        }
      ],
      "name": "addMarket",
      "outputs": [],
      "stateMutability": "nonpayable",
      "type": "function"
    },
    {
      "inputs": [
        {
          "internalType": "address",
          "name": "user",
          "type": "address"
        }
      ],
      "name": "claimRewards",
      "outputs": [
        {
          "internalType": "uint256",
          "name": "",
          "type": "uint256"
        }
      ],
      "stateMutability": "nonpayable",
      "type": "function"
    },
    {
      "inputs": [
        {
          "internalType": "bytes32",
          "name": "role",
          "type": "bytes32"
        }
      ],
      "name": "getRoleAdmin",
      "outputs": [
        {
          "internalType": "bytes32",
          "name": "",
          "type": "bytes32"
        }
      ],
      "stateMutability": "view",
      "type": "function"
    },
    {
      "inputs": [
        {
          "internalType": "address",
          "name": "asset",
          "type": "address"
        },
        {
          "internalType": "address",
          "name": "user",
          "type": "address"
        }
      ],
      "name": "getSupplyBalance",
      "outputs": [
        {
          "internalType": "uint256",
          "name": "",
          "type": "uint256"
        }
      ],
      "stateMutability": "view",
      "type": "function"
    },
    {
      "inputs": [
        {
          "internalType": "address",
          "name": "asset",
          "type": "address"
        }
      ],
      "name": "getSupplyRate",
      "outputs": [
        {
          "internalType": "uint256",
          "name": "",
          "type": "uint256"
        }
      ],
      "stateMutability": "view",
      "type": "function"
    },
    {
      "inputs": [
        {
          "internalType": "bytes32",
          "name": "role",
          "type": "bytes32"
        },
        {
          "internalType": "address",
          "name": "account",
          "type": "address"
        }
      ],
      "name": "grantRole",
      "outputs": [],
      "stateMutability": "nonpayable",
      "type": "function"
    },
    {
      "inputs": [
        {
          "internalType": "bytes32",
          "name": "role",
          "type": "bytes32"
        },
        {
          "internalType": "address",
          "name": "account",
          "type": "address"
        }
      ],
      "name": "hasRole",
      "outputs": [
        {
          "internalType": "bool",
          "name": "",
          "type": "bool"
        }
      ],
      "stateMutability": "view",
      "type": "function"
    },
    {
      "inputs": [
        {
          "internalType": "address",
          "name": "",
          "type": "address"
        },
        {
          "internalType": "address",
          "name": "",
          "type": "address"
        }
      ],
      "name": "lastUpdateTime",
      "outputs": [
        {
          "internalType": "uint256",
          "name": "",
          "type": "uint256"
        }
      ],
      "stateMutability": "view",
      "type": "function"
    },
    {
      "inputs": [
        {
          "internalType": "address",
          "name": "",
          "type": "address"
        }
      ],
      "name": "markets",
      "outputs": [
        {
          "internalType": "uint256",
          "name": "totalSupply",
          "type": "uint256"
        },
        {
          "internalType": "uint256",
          "name": "totalBorrow",
          "type": "uint256"
        },
        {
          "internalType": "uint256",
          "name": "supplyRate",
          "type": "uint256"
        },
        {
          "internalType": "uint256",
          "name": "borrowRate",
          "type": "uint256"
        },
        {
          "internalType": "uint256",
          "name": "utilizationRate",
          "type": "uint256"
        },
        {
          "internalType": "bool",
          "name": "active",
          "type": "bool"
        }
      ],
      "stateMutability": "view",
      "type": "function"
    },
    {
      "inputs": [
        {
          "internalType": "bytes32",
          "name": "role",
          "type": "bytes32"
        },
        {
          "internalType": "address",
          "name": "account",
          "type": "address"
        }
      ],
      "name": "renounceRole",
      "outputs": [],
      "stateMutability": "nonpayable",
      "type": "function"
    },
    {
      "inputs": [
        {
          "internalType": "bytes32",
          "name": "role",
          "type": "bytes32"
        },
        {
          "internalType": "address",
          "name": "account",
          "type": "address"
        }
      ],
      "name": "revokeRole",
      "outputs": [],
      "stateMutability": "nonpayable",
      "type": "function"
    },
    {
      "inputs": [
        {
          "internalType": "address",
          "name": "asset",
          "type": "address"
        },
        {
          "internalType": "uint256",
          "name": "newRate",
          "type": "uint256"
        }
      ],
      "name": "setSupplyRate",
      "outputs": [],
      "stateMutability": "nonpayable",
      "type": "function"
    },
    {
      "inputs": [
        {
          "internalType": "address",
          "name": "asset",
          "type": "address"
        },
        {
          "internalType": "uint256",
          "name": "amount",
          "type": "uint256"
        },
        {
          "internalType": "address",
          "name": "onBehalfOf",
          "type": "address"
        }
      ],
      "name": "supply",
      "outputs": [],
      "stateMutability": "nonpayable",
      "type": "function"
    },
    {
      "inputs": [
        {
          "internalType": "bytes4",
          "name": "interfaceId",
          "type": "bytes4"
        }
      ],
      "name": "supportsInterface",
      "outputs": [
        {
          "internalType": "bool",
          "name": "",
          "type": "bool"
        }
      ],
      "stateMutability": "view",
      "type": "function"
    },
    {
      "inputs": [
        {
          "internalType": "address",
          "name": "",
          "type": "address"
        },
        {
          "internalType": "address",
          "name": "",
          "type": "address"
        }
      ],
      "name": "userSupplies",
      "outputs": [
        {
          "internalType": "uint256",
          "name": "",
          "type": "uint256"
        }
      ],
      "stateMutability": "view",
      "type": "function"
    },
    {
      "inputs": [
        {
          "internalType": "address",
          "name": "asset",
          "type": "address"
        },
        {
          "internalType": "uint256",
          "name": "amount",
          "type": "uint256"
        },
        {
          "internalType": "address",
          "name": "to",
          "type": "address"
        }
      ],
      "name": "withdraw",
      "outputs": [
        {
          "internalType": "uint256",
          "name": "",
          "type": "uint256"
        }
      ],
      "stateMutability": "nonpayable",
      "type": "function"
    }
  ],
  "bytecode": "0x60806040523461010657336000908152600080516020611507833981519152602052604090205460ff16156100c6575b3360009081526000805160206114e7833981519152602052604090205460ff1615610064575b6040516113bb908161010c8239f35b3360008181526000805160206114e783398151915260205260408120805460ff1916600117905581907fa49807205ce4d355092ef5a8a18f56e8913cf4a201fbe287825b095693c21775906000805160206114c78339815191529080a4610055565b33600081815260008051602061150783398151915260205260408120805460ff1916600117905581906000805160206114c78339815191528180a461002f565b600080fdfe608080604052600436101561001357600080fd5b60003560e01c90816301ffc9a71461094057508063028cc651146108e8578063248a9ca3146108bb5780632f2ff15d146107f45780632f88b48d1461079c57806336568abe146106fd57806369328dec146105685780636b5441a91461052b57806375b238fc146104f05780638b2a4df51461037e5780638e8f294b1461030857806391d14854146102ba578063a217fddf1461029e578063ba3777311461026a578063c0ffb80914610199578063d3fe312e14610156578063d547741f1461010f5763ef5cfb8c146100e557600080fd5b3461010a57602036600319011261010a576100fe6109de565b50602060405160008152f35b600080fd5b3461010a57604036600319011261010a5761015460043561012e6109f4565b9061014f61014a82600052600060205260016040600020015490565b610d28565b610d72565b005b3461010a57604036600319011261010a576001600160a01b036101776109de565b61017f610c0b565b166000526001602052602435600260406000200155600080f35b3461010a57606036600319011261010a576101b26109de565b7fa64754291535175942be6f35fba8deab36d97ea608b17d06cc5efb985e17215f60206024356101e0610c0b565b604051936101ed85610abf565b6000855260058386019560008752604081018481526060820160443581526080830191600083526001600160a01b0360a08501966001885216998a60005260018952604060002094518555516001850155516002840155516003830155516004820155019051151560ff80198354169116179055604051908152a2005b3461010a57604036600319011261010a5760206102966102886109de565b6102906109f4565b90610b26565b604051908152f35b3461010a57600036600319011261010a57602060405160008152f35b3461010a57604036600319011261010a576102d36109f4565b60043560005260006020526001600160a01b0360406000209116600052602052602060ff604060002054166040519015158152f35b3461010a57602036600319011261010a576001600160a01b036103296109de565b16600052600160205260c06040600020805490600181015490600281015460038201549060ff6005600485015494015416936040519586526020860152604085015260608401526080830152151560a0820152f35b3461010a5761038c36610a0a565b916001600160a01b038116928360005260016020526103b560ff60056040600020015416610a44565b82156104ac576001600160a01b03816104436020937fd1cf3d156d5f8f0d50f6c122ed609cec09d35c9b9fb3fff6ea0959134dae424e9561043e6040517f23b872dd000000000000000000000000000000000000000000000000000000008882015233602482015230604482015289606482015260648152610438608482610af1565b8a610f9b565b610dff565b8560005260028352604060002082821660005283526040600020610468868254610ab2565b905585600052600183526040600020610482868254610ab2565b905585600052600383526040600020828216600052835260406000204290556040519485521692a3005b606460405162461bcd60e51b815260206004820152601760248201527f416d6f756e74206d75737420626520706f7369746976650000000000000000006044820152fd5b3461010a57600036600319011261010a5760206040517fa49807205ce4d355092ef5a8a18f56e8913cf4a201fbe287825b095693c217758152f35b3461010a57602036600319011261010a576001600160a01b0361054c6109de565b1660005260016020526020600260406000200154604051908152f35b3461010a5761057636610a0a565b91816105aa6001600160a01b038316928360005260016020526105a360ff60056040600020015416610a44565b3390610dff565b81600052600260205260406000206001600160a01b03331660005260205260406000205490600019146106f5575b82116106b15761067e602093826000526002855260406000206001600160a01b03331660005285526040600020610610858254610a8f565b90558260005260018552604060002061062a858254610a8f565b90556001600160a01b03604051917fa9059cbb000000000000000000000000000000000000000000000000000000008784015216602482015283604482015260448152610678606482610af1565b82610f9b565b6040518281527f9b1bfa7fa9ee420a16e124f794c35ac9f90472acc99140eb2f6447c714cad8eb843392a3604051908152f35b606460405162461bcd60e51b815260206004820152601460248201527f496e73756666696369656e742062616c616e63650000000000000000000000006044820152fd5b9150816105d8565b3461010a57604036600319011261010a576107166109f4565b336001600160a01b038216036107325761015490600435610d72565b608460405162461bcd60e51b815260206004820152602f60248201527f416363657373436f6e74726f6c3a2063616e206f6e6c792072656e6f756e636560448201527f20726f6c657320666f722073656c6600000000000000000000000000000000006064820152fd5b3461010a57604036600319011261010a576107b56109de565b6001600160a01b036107c56109f4565b911660005260036020526001600160a01b03604060002091166000526020526020604060002054604051908152f35b3461010a57604036600319011261010a576004356108106109f4565b9061082c61014a82600052600060205260016040600020015490565b80600052600060205260406000206001600160a01b03831660005260205260ff604060002054161561085a57005b80600052600060205260406000206001600160a01b0383166000526020526040600020600160ff198254161790556001600160a01b03339216907f2f8788117e7eff1d82e926ec794901d17c78024a50270940304540a733656f0d600080a4005b3461010a57602036600319011261010a576020610296600435600052600060205260016040600020015490565b3461010a57604036600319011261010a576109016109de565b6001600160a01b036109116109f4565b911660005260026020526001600160a01b03604060002091166000526020526020604060002054604051908152f35b3461010a57602036600319011261010a57600435907fffffffff00000000000000000000000000000000000000000000000000000000821680920361010a57817f7965db0b00000000000000000000000000000000000000000000000000000000602093149081156109b4575b5015158152f35b7f01ffc9a700000000000000000000000000000000000000000000000000000000915014836109ad565b600435906001600160a01b038216820361010a57565b602435906001600160a01b038216820361010a57565b606090600319011261010a576004356001600160a01b038116810361010a5790602435906044356001600160a01b038116810361010a5790565b15610a4b57565b606460405162461bcd60e51b815260206004820152601160248201527f4d61726b6574206e6f74206163746976650000000000000000000000000000006044820152fd5b91908203918211610a9c57565b634e487b7160e01b600052601160045260246000fd5b91908201809211610a9c57565b60c0810190811067ffffffffffffffff821117610adb57604052565b634e487b7160e01b600052604160045260246000fd5b90601f8019910116810190811067ffffffffffffffff821117610adb57604052565b81810292918115918404141715610a9c57565b6001600160a01b031680600052600260205260406000206001600160a01b038316600052602052604060002054908115610c0357610bf981610c009464496cebb8009360005260036020526001600160a01b0360406000209116600052602052610b9560406000205442610a8f565b906000526001602052610bf46040600020604051610bb281610abf565b815481526001820154602082015260a060ff60056002850154948560408601526003810154606086015260048101546080860152015416151591015285610b13565b610b13565b0490610ab2565b90565b505050600090565b3360009081527f7d7ffb7a348e1c6a02869081a26547b49160dd3df72d1d75a570eb9b698292ec602052604090205460ff1615610c4457565b610d24610c50336110ef565b610d0c6011610c7e7fa49807205ce4d355092ef5a8a18f56e8913cf4a201fbe287825b095693c2177561123c565b9260376040519485927f416363657373436f6e74726f6c3a206163636f756e74200000000000000000006020850152610cc08151809260208688019101610f30565b83017f206973206d697373696e6720726f6c652000000000000000000000000000000083820152610cfb825180936020604885019101610f30565b01010301601f198101835282610af1565b60405191829162461bcd60e51b835260048301610f53565b0390fd5b80600052600060205260406000206001600160a01b03331660005260205260ff6040600020541615610d575750565b610d2490610d0c6011610c7e610d6c336110ef565b9361123c565b80600052600060205260406000206001600160a01b03831660005260205260ff60406000205416610da1575050565b80600052600060205260406000206001600160a01b038316600052602052604060002060ff1981541690556001600160a01b03339216907ff6391f5c32d9c69d2a47ea670b442974b53935d1edc7fd64eb21e047a839171b600080a4565b6001600160a01b031680600052600360205260406000206001600160a01b038316600052602052610e3560406000205442610a8f565b80158015610f05575b610f005781600052600160205264496cebb800610e8c60406000209284600052600260205260406000206001600160a01b038716600052602052610bf4604060002054600286015490610b13565b0480610ebc575b505060005260036020526001600160a01b03604060002091166000526020526040600020429055565b610ef79083600052600260205260406000206001600160a01b0386166000526020526040600020610eee828254610ab2565b90558254610ab2565b90553880610e93565b505050565b5081600052600260205260406000206001600160a01b03841660005260205260406000205415610e3e565b60005b838110610f435750506000910152565b8181015183820152602001610f33565b60409160208252610f738151809281602086015260208686019101610f30565b601f01601f1916010190565b67ffffffffffffffff8111610adb57601f01601f191660200190565b6001600160a01b0361101d911691604092600080855193610fbc8786610af1565b602085527f5361666545524332303a206c6f772d6c6576656c2063616c6c206661696c6564602086015260208151910182855af13d156110c0573d9161100183610f7f565b9261100e87519485610af1565b83523d6000602085013e6112f5565b805190811591821561109d575b5050156110345750565b6084905162461bcd60e51b815260206004820152602a60248201527f5361666545524332303a204552433230206f7065726174696f6e20646964206e60448201527f6f742073756363656564000000000000000000000000000000000000000000006064820152fd5b819250906020918101031261010a5760200151801515810361010a57388061102a565b6060916112f5565b9081518110156110d9570160200190565b634e487b7160e01b600052603260045260246000fd5b6000906110fc602a610f7f565b9161110a6040519384610af1565b602a8352611118602a610f7f565b6020840190601f19013682378351156112285760309053825160011015611214576078602184015350602960005b6001821161119b5750506111575790565b606460405162461bcd60e51b815260206004820152602060248201527f537472696e67733a20686578206c656e67746820696e73756666696369656e746044820152fd5b9091600f81166010811015611200577f3031323334353637383961626364656600000000000000000000000000000000901a6111d784866110c8565b5360041c9180156111ec576000190190611146565b602482634e487b7160e01b81526011600452fd5b602483634e487b7160e01b81526032600452fd5b80634e487b7160e01b602492526032600452fd5b602482634e487b7160e01b81526032600452fd5b6000906112496042610f7f565b916112576040519384610af1565b604283526112656042610f7f565b6020840190601f19013682378351156112285760309053825160011015611214576078602184015350604160005b600182116112a45750506111575790565b9091600f81166010811015611200577f3031323334353637383961626364656600000000000000000000000000000000901a6112e084866110c8565b5360041c9180156111ec576000190190611293565b919290156113565750815115611309575090565b3b156113125790565b606460405162461bcd60e51b815260206004820152601d60248201527f416464726573733a2063616c6c20746f206e6f6e2d636f6e74726163740000006044820152fd5b8251909150156113695750805190602001fd5b610d249060405191829162461bcd60e51b835260048301610f5356fea264697066735822122012391363fb2b564d959db9ce6f564f6018ba182071254051a47d5e645efed94a64736f6c634300081c00332f8788117e7eff1d82e926ec794901d17c78024a50270940304540a733656f0d7d7ffb7a348e1c6a02869081a26547b49160dd3df72d1d75a570eb9b698292ecad3228b676f7d3cd4284a5443f17f1962b36e491b30a40b2405849e597ba5fb5",
  "linkReferences": {},
  "deployedLinkReferences": {}
}