{
  "_format": "hh-sol-artifact-1",
  "contractName": "MockDEXProtocol",
  "sourceName": "contracts/mocks/MockProtocols.sol",
  "abi": [
    {
      "inputs": [],
      "stateMutability": "nonpayable",
      "type": "constructor"
    },
    {
      "anonymous": false,
      "inputs": [
        {
          "indexed": true,
          "internalType": "bytes32",
          "name": "poolId",
          "type": "bytes32"
        },
        {
          "indexed": false,
          "internalType": "address",
          "name": "user",
          "type": "address"
        },
        {
          "indexed": false,
          "internalType": "uint256",
          "name": "liquidity",
          "type": "uint256"
        }
      ],
      "name": "LiquidityAdded",
      "type": "event"
    },
    {
      "anonymous": false,
      "inputs": [
        {
          "indexed": true,
          "internalType": "bytes32",
          "name": "poolId",
          "type": "bytes32"
        },
        {
          "indexed": false,
          "internalType": "address",
          "name": "user",
          "type": "address"
        },
        {
          "indexed": false,
          "internalType": "uint256",
          "name": "liquidity",
          "type": "uint256"
        }
      ],
      "name": "LiquidityRemoved",
      "type": "event"
    },
    {
      "anonymous": false,
      "inputs": [
        {
          "indexed": true,
          "internalType": "bytes32",
          "name": "poolId",
          "type": "bytes32"
        },
        {
          "indexed": false,
          "internalType": "address",
          "name": "tokenA",
          "type": "address"
        },
        {
          "indexed": false,
          "internalType": "address",
          "name": "tokenB",
          "type": "address"
        }
      ],
      "name": "PoolCreated",
      "type": "event"
    },
    {
      "anonymous": false,
      "inputs": [
        {
          "indexed": true,
          "internalType": "bytes32",
          "name": "role",
          "type": "bytes32"
        },
        {
          "indexed": true,
          "internalType": "bytes32",
          "name": "previousAdminRole",
          "type": "bytes32"
        },
        {
          "indexed": true,
          "internalType": "bytes32",
          "name": "newAdminRole",
          "type": "bytes32"
        }
      ],
      "name": "RoleAdminChanged",
      "type": "event"
    },
    {
      "anonymous": false,
      "inputs": [
        {
          "indexed": true,
          "internalType": "bytes32",
          "name": "role",
          "type": "bytes32"
        },
        {
          "indexed": true,
          "internalType": "address",
          "name": "account",
          "type": "address"
        },
        {
          "indexed": true,
          "internalType": "address",
          "name": "sender",
          "type": "address"
        }
      ],
      "name": "RoleGranted",
      "type": "event"
    },
    {
      "anonymous": false,
      "inputs": [
        {
          "indexed": true,
          "internalType": "bytes32",
          "name": "role",
          "type": "bytes32"
        },
        {
          "indexed": true,
          "internalType": "address",
          "name": "account",
          "type": "address"
        },
        {
          "indexed": true,
          "internalType": "address",
          "name": "sender",
          "type": "address"
        }
      ],
      "name": "RoleRevoked",
      "type": "event"
    },
    {
      "anonymous": false,
      "inputs": [
        {
          "indexed": true,
          "internalType": "address",
          "name": "user",
          "type": "address"
        },
        {
          "indexed": false,
          "internalType": "address",
          "name": "tokenIn",
          "type": "address"
        },
        {
          "indexed": false,
          "internalType": "address",
          "name": "tokenOut",
          "type": "address"
        },
        {
          "indexed": false,
          "internalType": "uint256",
          "name": "amountIn",
          "type": "uint256"
        },
        {
          "indexed": false,
          "internalType": "uint256",
          "name": "amountOut",
          "type": "uint256"
        }
      ],
      "name": "Swap",
      "type": "event"
    },
    {
      "inputs": [],
      "name": "ADMIN_ROLE",
      "outputs": [
        {
          "internalType": "bytes32",
          "name": "",
          "type": "bytes32"
        }
      ],
      "stateMutability": "view",
      "type": "function"
    },
    {
      "inputs": [],
      "name": "DEFAULT_ADMIN_ROLE",
      "outputs": [
        {
          "internalType": "bytes32",
          "name": "",
          "type": "bytes32"
        }
      ],
      "stateMutability": "view",
      "type": "function"
    },
    {
      "inputs": [
        {
          "internalType": "address",
          "name": "tokenA",
          "type": "address"
        },
        {
          "internalType": "address",
          "name": "tokenB",
          "type": "address"
        },
        {
          "internalType": "uint256",
          "name": "amountADesired",
          "type": "uint256"
        },
        {
          "internalType": "uint256",
          "name": "amountBDesired",
          "type": "uint256"
        },
        {
          "internalType": "uint256",
          "name": "amountAMin",
          "type": "uint256"
        },
        {
          "internalType": "uint256",
          "name": "amountBMin",
          "type": "uint256"
        },
        {
          "internalType": "address",
          "name": "to",
          "type": "address"
        },
        {
          "internalType": "uint256",
          "name": "deadline",
          "type": "uint256"
        }
      ],
      "name": "addLiquidity",
      "outputs": [
        {
          "internalType": "uint256",
          "name": "amountA",
          "type": "uint256"
        },
        {
          "internalType": "uint256",
          "name": "amountB",
          "type": "uint256"
        },
        {
          "internalType": "uint256",
          "name": "liquidity",
          "type": "uint256"
        }
      ],
      "stateMutability": "nonpayable",
      "type": "function"
    },
    {
      "inputs": [
        {
          "internalType": "address",
          "name": "tokenA",
          "type": "address"
        },
        {
          "internalType": "address",
          "name": "tokenB",
          "type": "address"
        },
        {
          "internalType": "uint256",
          "name": "feeRate",
          "type": "uint256"
        }
      ],
      "name": "createPool",
      "outputs": [
        {
          "internalType": "bytes32",
          "name": "poolId",
          "type": "bytes32"
        }
      ],
      "stateMutability": "nonpayable",
      "type": "function"
    },
    {
      "inputs": [
        {
          "internalType": "address",
          "name": "",
          "type": "address"
        }
      ],
      "name": "exchangeRates",
      "outputs": [
        {
          "internalType": "uint256",
          "name": "",
          "type": "uint256"
        }
      ],
      "stateMutability": "view",
      "type": "function"
    },
    {
      "inputs": [
        {
          "internalType": "uint256",
          "name": "amountIn",
          "type": "uint256"
        },
        {
          "internalType": "address",
          "name": "tokenIn",
          "type": "address"
        },
        {
          "internalType": "address",
          "name": "tokenOut",
          "type": "address"
        }
      ],
      "name": "getAmountOut",
      "outputs": [
        {
          "internalType": "uint256",
          "name": "",
          "type": "uint256"
        }
      ],
      "stateMutability": "view",
      "type": "function"
    },
    {
      "inputs": [
        {
          "internalType": "uint256",
          "name": "amountIn",
          "type": "uint256"
        },
        {
          "internalType": "address[]",
          "name": "path",
          "type": "address[]"
        }
      ],
      "name": "getAmountsOut",
      "outputs": [
        {
          "internalType": "uint256[]",
          "name": "amounts",
          "type": "uint256[]"
        }
      ],
      "stateMutability": "view",
      "type": "function"
    },
    {
      "inputs": [
        {
          "internalType": "address",
          "name": "tokenA",
          "type": "address"
        },
        {
          "internalType": "address",
          "name": "tokenB",
          "type": "address"
        }
      ],
      "name": "getPoolInfo",
      "outputs": [
        {
          "components": [
            {
              "internalType": "address",
              "name": "tokenA",
              "type": "address"
            },
            {
              "internalType": "address",
              "name": "tokenB",
              "type": "address"
            },
            {
              "internalType": "uint256",
              "name": "reserveA",
              "type": "uint256"
            },
            {
              "internalType": "uint256",
              "name": "reserveB",
              "type": "uint256"
            },
            {
              "internalType": "uint256",
              "name": "totalLiquidity",
              "type": "uint256"
            },
            {
              "internalType": "uint256",
              "name": "feeRate",
              "type": "uint256"
            },
            {
              "internalType": "bool",
              "name": "active",
              "type": "bool"
            }
          ],
          "internalType": "struct MockDEXProtocol.Pool",
          "name": "",
          "type": "tuple"
        }
      ],
      "stateMutability": "view",
      "type": "function"
    },
    {
      "inputs": [
        {
          "internalType": "bytes32",
          "name": "role",
          "type": "bytes32"
        }
      ],
      "name": "getRoleAdmin",
      "outputs": [
        {
          "internalType": "bytes32",
          "name": "",
          "type": "bytes32"
        }
      ],
      "stateMutability": "view",
      "type": "function"
    },
    {
      "inputs": [
        {
          "internalType": "address",
          "name": "tokenA",
          "type": "address"
        },
        {
          "internalType": "address",
          "name": "tokenB",
          "type": "address"
        },
        {
          "internalType": "address",
          "name": "user",
          "type": "address"
        }
      ],
      "name": "getUserLiquidity",
      "outputs": [
        {
          "internalType": "uint256",
          "name": "",
          "type": "uint256"
        }
      ],
      "stateMutability": "view",
      "type": "function"
    },
    {
      "inputs": [
        {
          "internalType": "bytes32",
          "name": "role",
          "type": "bytes32"
        },
        {
          "internalType": "address",
          "name": "account",
          "type": "address"
        }
      ],
      "name": "grantRole",
      "outputs": [],
      "stateMutability": "nonpayable",
      "type": "function"
    },
    {
      "inputs": [
        {
          "internalType": "bytes32",
          "name": "role",
          "type": "bytes32"
        },
        {
          "internalType": "address",
          "name": "account",
          "type": "address"
        }
      ],
      "name": "hasRole",
      "outputs": [
        {
          "internalType": "bool",
          "name": "",
          "type": "bool"
        }
      ],
      "stateMutability": "view",
      "type": "function"
    },
    {
      "inputs": [
        {
          "internalType": "bytes32",
          "name": "",
          "type": "bytes32"
        }
      ],
      "name": "pools",
      "outputs": [
        {
          "internalType": "address",
          "name": "tokenA",
          "type": "address"
        },
        {
          "internalType": "address",
          "name": "tokenB",
          "type": "address"
        },
        {
          "internalType": "uint256",
          "name": "reserveA",
          "type": "uint256"
        },
        {
          "internalType": "uint256",
          "name": "reserveB",
          "type": "uint256"
        },
        {
          "internalType": "uint256",
          "name": "totalLiquidity",
          "type": "uint256"
        },
        {
          "internalType": "uint256",
          "name": "feeRate",
          "type": "uint256"
        },
        {
          "internalType": "bool",
          "name": "active",
          "type": "bool"
        }
      ],
      "stateMutability": "view",
      "type": "function"
    },
    {
      "inputs": [
        {
          "internalType": "address",
          "name": "tokenA",
          "type": "address"
        },
        {
          "internalType": "address",
          "name": "tokenB",
          "type": "address"
        },
        {
          "internalType": "uint256",
          "name": "liquidity",
          "type": "uint256"
        },
        {
          "internalType": "uint256",
          "name": "amountAMin",
          "type": "uint256"
        },
        {
          "internalType": "uint256",
          "name": "amountBMin",
          "type": "uint256"
        },
        {
          "internalType": "address",
          "name": "to",
          "type": "address"
        },
        {
          "internalType": "uint256",
          "name": "deadline",
          "type": "uint256"
        }
      ],
      "name": "removeLiquidity",
      "outputs": [
        {
          "internalType": "uint256",
          "name": "amountA",
          "type": "uint256"
        },
        {
          "internalType": "uint256",
          "name": "amountB",
          "type": "uint256"
        }
      ],
      "stateMutability": "nonpayable",
      "type": "function"
    },
    {
      "inputs": [
        {
          "internalType": "bytes32",
          "name": "role",
          "type": "bytes32"
        },
        {
          "internalType": "address",
          "name": "account",
          "type": "address"
        }
      ],
      "name": "renounceRole",
      "outputs": [],
      "stateMutability": "nonpayable",
      "type": "function"
    },
    {
      "inputs": [
        {
          "internalType": "bytes32",
          "name": "role",
          "type": "bytes32"
        },
        {
          "internalType": "address",
          "name": "account",
          "type": "address"
        }
      ],
      "name": "revokeRole",
      "outputs": [],
      "stateMutability": "nonpayable",
      "type": "function"
    },
    {
      "inputs": [
        {
          "internalType": "address",
          "name": "token",
          "type": "address"
        },
        {
          "internalType": "uint256",
          "name": "rate",
          "type": "uint256"
        }
      ],
      "name": "setExchangeRate",
      "outputs": [],
      "stateMutability": "nonpayable",
      "type": "function"
    },
    {
      "inputs": [
        {
          "internalType": "bytes4",
          "name": "interfaceId",
          "type": "bytes4"
        }
      ],
      "name": "supportsInterface",
      "outputs": [
        {
          "internalType": "bool",
          "name": "",
          "type": "bool"
        }
      ],
      "stateMutability": "view",
      "type": "function"
    },
    {
      "inputs": [
        {
          "internalType": "uint256",
          "name": "amountIn",
          "type": "uint256"
        },
        {
          "internalType": "uint256",
          "name": "amountOutMin",
          "type": "uint256"
        },
        {
          "internalType": "address[]",
          "name": "path",
          "type": "address[]"
        },
        {
          "internalType": "address",
          "name": "to",
          "type": "address"
        },
        {
          "internalType": "uint256",
          "name": "deadline",
          "type": "uint256"
        }
      ],
      "name": "swapExactTokensForTokens",
      "outputs": [
        {
          "internalType": "uint256[]",
          "name": "amounts",
          "type": "uint256[]"
        }
      ],
      "stateMutability": "nonpayable",
      "type": "function"
    },
    {
      "inputs": [
        {
          "internalType": "bytes32",
          "name": "",
          "type": "bytes32"
        },
        {
          "internalType": "address",
          "name": "",
          "type": "address"
        }
      ],
      "name": "userLiquidity",
      "outputs": [
        {
          "internalType": "uint256",
          "name": "",
          "type": "uint256"
        }
      ],
      "stateMutability": "view",
      "type": "function"
    }
  ],
  "bytecode": "0x60806040523461010657336000908152600080516020611b8c833981519152602052604090205460ff16156100c6575b336000908152600080516020611b6c833981519152602052604090205460ff1615610064575b604051611a40908161010c8239f35b336000818152600080516020611b6c83398151915260205260408120805460ff1916600117905581907fa49807205ce4d355092ef5a8a18f56e8913cf4a201fbe287825b095693c2177590600080516020611b4c8339815191529080a4610055565b336000818152600080516020611b8c83398151915260205260408120805460ff191660011790558190600080516020611b4c8339815191528180a461002f565b600080fdfe608080604052600436101561001357600080fd5b60003560e01c90816301ffc9a714610f0c57508063248a9ca314610edf5780632f2ff15d14610e1857806336568abe14610d7957806338ed173914610b8f578063486e51f414610a7957806351810fb5146108775780635e1e63251461084057806375b238fc1461080557806385c15d9a146107cb57806391d148541461077d5780639c8d8cf11461071e578063a217fddf14610702578063b5217bb41461067e578063baa2abde14610488578063bd5c542014610448578063d06ca61f14610354578063d50600c01461030b578063d547741f146102c45763e8e33700146100fb57600080fd5b346102bf576101003660031901126102bf57610115610fc0565b61011d610faa565b6044359060643560c435936001600160a01b03851685036102bf5761014660e435421115611057565b610150838261155b565b90816000526001602052604060002060ff6006820154161561027b576060966101c0856004976101ae8a7f683099446c7fbe19cc3f41dfb6598bc59360e7ba13b94615ad8ebfc6600a71189730906001600160a01b033391166114a5565b30906001600160a01b033391166114a5565b6101ca85886112a4565b9586926084358910158061026f575b6101e290611259565b600281016101f18a82546112a4565b9055600381016102028882546112a4565b9055016102108382546112a4565b905583600052600260205260406000206001600160a01b03821660005260205260406000206102408382546112a4565b9055604080516001600160a01b039290921682526020820192909252a260405192835260208301526040820152f35b5060a4358710156101d9565b606460405162461bcd60e51b815260206004820152600f60248201527f506f6f6c206e6f742061637469766500000000000000000000000000000000006044820152fd5b600080fd5b346102bf5760403660031901126102bf576103096004356102e3610faa565b906103046102ff82600052600060205260016040600020015490565b6113ce565b611418565b005b346102bf5760403660031901126102bf57610324610faa565b60043560005260026020526001600160a01b03604060002091166000526020526020604060002054604051908152f35b346102bf5760403660031901126102bf5760243567ffffffffffffffff81116102bf57610385903690600401610fec565b9061038f82611127565b9061039d6040519283611105565b828252601f196103ac84611127565b013660208401376004356103bf8361113f565b5260015b8381106103dc57604051806103d8858261101d565b0390f35b600019810190808211610432576104218261040d6104086103ff6001968961114c565b519289886110a2565b6110b2565b61041b610408858a896110a2565b91611193565b61042b828661114c565b52016103c3565b634e487b7160e01b600052601160045260246000fd5b346102bf5760403660031901126102bf576001600160a01b03610469610fc0565b6104716112b1565b166000526003602052602435604060002055600080f35b346102bf5760e03660031901126102bf576104a1610fc0565b6104a9610faa565b60443560a435926001600160a01b03841684036102bf576104ce60c435421115611057565b6104d8838261155b565b9081600052600160205260406000209382600052600260205260406000206001600160a01b033316600052602052836040600020541061063a5760028501938085549061052491611160565b6004870192888454928361053791611173565b98600301928484549061054991611160565b9061055391611173565b978892888b6064358110159d6001600160a01b0360409f9b61061f9b6106089a83987f2caa55c3b397d3118f964b0d47f8dbff7a71deffd9deb5e3b9c7d5d5594e12599f97886106029961062e575b6105ab90611259565b6000526002602052604060002085331660005260205260406105d38f916000209182546110c6565b90556105e08782546110c6565b90556105ed8b82546110c6565b90556105fa8c82546110c6565b905516611506565b16611506565b865133815260208101919091529081906040820190565b0390a282519182526020820152f35b506084358d10156105a2565b606460405162461bcd60e51b815260206004820152601660248201527f496e73756666696369656e74206c6971756964697479000000000000000000006044820152fd5b346102bf5760203660031901126102bf57600435600052600160205260e060406000206001600160a01b03815416906001600160a01b03600182015416906002810154600382015460048301549160ff600660058601549501541694604051968752602087015260408601526060850152608084015260a0830152151560c0820152f35b346102bf5760003660031901126102bf57602060405160008152f35b346102bf5760603660031901126102bf57610737610fc0565b610750610742610faa565b61074a610fd6565b9261155b565b60005260026020526001600160a01b03604060002091166000526020526020604060002054604051908152f35b346102bf5760403660031901126102bf57610796610faa565b60043560005260006020526001600160a01b0360406000209116600052602052602060ff604060002054166040519015158152f35b346102bf5760203660031901126102bf576001600160a01b036107ec610fc0565b1660005260036020526020604060002054604051908152f35b346102bf5760003660031901126102bf5760206040517fa49807205ce4d355092ef5a8a18f56e8913cf4a201fbe287825b095693c217758152f35b346102bf5760603660031901126102bf57602061086f61085e610faa565b610866610fd6565b90600435611193565b604051908152f35b346102bf5760603660031901126102bf57610890610fc0565b610898610faa565b6108a06112b1565b8082906001600160a01b038116936001600160a01b03811694808614610a355760209511610a2a575b505060408051606083811b6bffffffffffffffffffffffff199081168784019081529186901b1660148201527fc0c143d18100b0ec0b6c08cc52247dd860ffd3fc2af30733326e5f980c19635a929161092f81602884015b03601f198101835282611105565b5190209384936001600160a01b03835191610949836110d3565b169182825260066001600160a01b0389840192169283835285810160008152606082016000815260808301906000825260a084019260443584526001600160a01b0360c0860197600189528d6000528f6001905281808d6000209851161673ffffffffffffffffffffffffffffffffffffffff1988541617875551166001600160a01b0360018701911673ffffffffffffffffffffffffffffffffffffffff19825416179055516002850155516003840155516004830155516005820155019051151560ff80198354169116179055825191825286820152a2604051908152f35b9250905083806108c9565b606460405162461bcd60e51b815260206004820152601060248201527f4964656e746963616c20746f6b656e73000000000000000000000000000000006044820152fd5b346102bf5760403660031901126102bf57610ad6610a95610fc0565b610a9d610faa565b90600060c0604051610aae816110d3565b8281528260208201528260408201528260608201528260808201528260a0820152015261155b565b600052600160205260e06040600020604051610af1816110d3565b6001600160a01b03825416918282526001600160a01b0360018201541660208301908152600282015460408401908152600383015490606085019182526001600160a01b036004850154936080870194855260c060ff600660058901549860a08b01998a5201541697019615158752604051978852511660208701525160408601525160608501525160808401525160a083015251151560c0820152f35b346102bf5760a03660031901126102bf5760043560443567ffffffffffffffff81116102bf57610bc3903690600401610fec565b9190606435926001600160a01b03841684036102bf5760028110610d3557610bef608435421115611057565b8015610cdb57610bfe826110b2565b91600019820182811161043257610c1892610408926110a2565b610c39816001600160a01b03841693610c33863033886114a5565b85611193565b906024358210610cf157816001600160a01b03610c5892169586611506565b606060405193610c688286611105565b60028552601f19820136602087013780610c818661113f565b52845160011015610cdb576103d895836040870152604051948552602085015260408401528201527fcd3829a3813dc3cdd188fd3d01dcf3268c16be2fdd2dd21d0665418816e4606260803392a26040519182918261101d565b634e487b7160e01b600052603260045260246000fd5b606460405162461bcd60e51b815260206004820152601a60248201527f496e73756666696369656e74206f757470757420616d6f756e740000000000006044820152fd5b606460405162461bcd60e51b815260206004820152600c60248201527f496e76616c6964207061746800000000000000000000000000000000000000006044820152fd5b346102bf5760403660031901126102bf57610d92610faa565b336001600160a01b03821603610dae5761030990600435611418565b608460405162461bcd60e51b815260206004820152602f60248201527f416363657373436f6e74726f6c3a2063616e206f6e6c792072656e6f756e636560448201527f20726f6c657320666f722073656c6600000000000000000000000000000000006064820152fd5b346102bf5760403660031901126102bf57600435610e34610faa565b90610e506102ff82600052600060205260016040600020015490565b80600052600060205260406000206001600160a01b03831660005260205260ff6040600020541615610e7e57005b80600052600060205260406000206001600160a01b0383166000526020526040600020600160ff198254161790556001600160a01b03339216907f2f8788117e7eff1d82e926ec794901d17c78024a50270940304540a733656f0d600080a4005b346102bf5760203660031901126102bf57602061086f600435600052600060205260016040600020015490565b346102bf5760203660031901126102bf57600435907fffffffff0000000000000000000000000000000000000000000000000000000082168092036102bf57817f7965db0b0000000000000000000000000000000000000000000000000000000060209314908115610f80575b5015158152f35b7f01ffc9a70000000000000000000000000000000000000000000000000000000091501483610f79565b602435906001600160a01b03821682036102bf57565b600435906001600160a01b03821682036102bf57565b604435906001600160a01b03821682036102bf57565b9181601f840112156102bf5782359167ffffffffffffffff83116102bf576020808501948460051b0101116102bf57565b602060408183019282815284518094520192019060005b8181106110415750505090565b8251845260209384019390920191600101611034565b1561105e57565b606460405162461bcd60e51b815260206004820152600760248201527f45787069726564000000000000000000000000000000000000000000000000006044820152fd5b9190811015610cdb5760051b0190565b356001600160a01b03811681036102bf5790565b9190820391821161043257565b60e0810190811067ffffffffffffffff8211176110ef57604052565b634e487b7160e01b600052604160045260246000fd5b90601f8019910116810190811067ffffffffffffffff8211176110ef57604052565b67ffffffffffffffff81116110ef5760051b60200190565b805115610cdb5760200190565b8051821015610cdb5760209160051b010190565b8181029291811591840414171561043257565b811561117d570490565b634e487b7160e01b600052601260045260246000fd5b916001600160a01b036111fa921680600052600360205260406000205415156000146112415760005260036020526001600160a01b03604060002054915b166000818152600360205260409020541561123157600052600360205260406000205492611160565b906103e58202918083046103e51490151715610432576103e88102908082046103e814901517156104325761122e91611173565b90565b50670de0b6b3a764000092611160565b506001600160a01b03670de0b6b3a7640000916111d1565b1561126057565b606460405162461bcd60e51b815260206004820152601460248201527f496e73756666696369656e7420616d6f756e74730000000000000000000000006044820152fd5b9190820180921161043257565b3360009081527f7d7ffb7a348e1c6a02869081a26547b49160dd3df72d1d75a570eb9b698292ec602052604090205460ff16156112ea57565b6113ca6112f633611774565b6113b260116113247fa49807205ce4d355092ef5a8a18f56e8913cf4a201fbe287825b095693c217756118c1565b9260376040519485927f416363657373436f6e74726f6c3a206163636f756e7420000000000000000000602085015261136681518092602086880191016115cb565b83017f206973206d697373696e6720726f6c6520000000000000000000000000000000838201526113a18251809360206048850191016115cb565b01010301601f198101835282611105565b60405191829162461bcd60e51b8352600483016115ee565b0390fd5b80600052600060205260406000206001600160a01b03331660005260205260ff60406000205416156113fd5750565b6113ca906113b2601161132461141233611774565b936118c1565b80600052600060205260406000206001600160a01b03831660005260205260ff60406000205416611447575050565b80600052600060205260406000206001600160a01b038316600052602052604060002060ff1981541690556001600160a01b03339216907ff6391f5c32d9c69d2a47ea670b442974b53935d1edc7fd64eb21e047a839171b600080a4565b9091926001600160a01b036115049481604051957f23b872dd0000000000000000000000000000000000000000000000000000000060208801521660248601521660448401526064830152606482526114ff608483611105565b611636565b565b6040517fa9059cbb0000000000000000000000000000000000000000000000000000000060208201526001600160a01b03929092166024830152604480830193909352918152611504916114ff606483611105565b906115bf610921916001600160a01b0381166001600160a01b038516116115c5575b60405192839160208301958690916028926bffffffffffffffffffffffff199060601b1682526bffffffffffffffffffffffff199060601b1660148201520190565b51902090565b9261157d565b60005b8381106115de5750506000910152565b81810151838201526020016115ce565b6040916020825261160e81518092816020860152602086860191016115cb565b601f01601f1916010190565b67ffffffffffffffff81116110ef57601f01601f191660200190565b6001600160a01b036116b89116916040926000808551936116578786611105565b602085527f5361666545524332303a206c6f772d6c6576656c2063616c6c206661696c6564602086015260208151910182855af13d1561175b573d9161169c8361161a565b926116a987519485611105565b83523d6000602085013e61197a565b8051908115918215611738575b5050156116cf5750565b6084905162461bcd60e51b815260206004820152602a60248201527f5361666545524332303a204552433230206f7065726174696f6e20646964206e60448201527f6f742073756363656564000000000000000000000000000000000000000000006064820152fd5b81925090602091810103126102bf576020015180151581036102bf5738806116c5565b60609161197a565b908151811015610cdb570160200190565b600090611781602a61161a565b9161178f6040519384611105565b602a835261179d602a61161a565b6020840190601f19013682378351156118ad5760309053825160011015611899576078602184015350602960005b600182116118205750506117dc5790565b606460405162461bcd60e51b815260206004820152602060248201527f537472696e67733a20686578206c656e67746820696e73756666696369656e746044820152fd5b9091600f81166010811015611885577f3031323334353637383961626364656600000000000000000000000000000000901a61185c8486611763565b5360041c9180156118715760001901906117cb565b602482634e487b7160e01b81526011600452fd5b602483634e487b7160e01b81526032600452fd5b80634e487b7160e01b602492526032600452fd5b602482634e487b7160e01b81526032600452fd5b6000906118ce604261161a565b916118dc6040519384611105565b604283526118ea604261161a565b6020840190601f19013682378351156118ad5760309053825160011015611899576078602184015350604160005b600182116119295750506117dc5790565b9091600f81166010811015611885577f3031323334353637383961626364656600000000000000000000000000000000901a6119658486611763565b5360041c918015611871576000190190611918565b919290156119db575081511561198e575090565b3b156119975790565b606460405162461bcd60e51b815260206004820152601d60248201527f416464726573733a2063616c6c20746f206e6f6e2d636f6e74726163740000006044820152fd5b8251909150156119ee5750805190602001fd5b6113ca9060405191829162461bcd60e51b8352600483016115ee56fea2646970667358221220b4f5916e9562295afaadbb68c92860f9ab3c1344fbed84cb16b5c1ad218f896864736f6c634300081c00332f8788117e7eff1d82e926ec794901d17c78024a50270940304540a733656f0d7d7ffb7a348e1c6a02869081a26547b49160dd3df72d1d75a570eb9b698292ecad3228b676f7d3cd4284a5443f17f1962b36e491b30a40b2405849e597ba5fb5",
  "linkReferences": {},
  "deployedLinkReferences": {}
}