{
  "_format": "hh-sol-artifact-1",
  "contractName": "EtherlinkYieldLottery",
  "sourceName": "contracts/strategies/EtherlinkYieldLottery.sol",
  "abi": [
    {
      "inputs": [
        {
          "internalType": "address",
          "name": "_asset",
          "type": "address"
        },
        {
          "internalType": "address",
          "name": "_vault",
          "type": "address"
        },
        {
          "internalType": "address",
          "name": "_pythonAgent",
          "type": "address"
        }
      ],
      "stateMutability": "nonpayable",
      "type": "constructor"
    },
    {
      "anonymous": false,
      "inputs": [
        {
          "indexed": false,
          "internalType": "uint256",
          "name": "amount",
          "type": "uint256"
        }
      ],
      "name": "Deposit",
      "type": "event"
    },
    {
      "anonymous": false,
      "inputs": [
        {
          "indexed": false,
          "internalType": "uint256",
          "name": "amount",
          "type": "uint256"
        }
      ],
      "name": "EmergencyExit",
      "type": "event"
    },
    {
      "anonymous": false,
      "inputs": [
        {
          "indexed": false,
          "internalType": "uint256",
          "name": "earned",
          "type": "uint256"
        }
      ],
      "name": "Harvest",
      "type": "event"
    },
    {
      "anonymous": false,
      "inputs": [
        {
          "indexed": true,
          "internalType": "uint256",
          "name": "lotteryId",
          "type": "uint256"
        },
        {
          "indexed": true,
          "internalType": "address",
          "name": "winner",
          "type": "address"
        },
        {
          "indexed": false,
          "internalType": "uint256",
          "name": "payout",
          "type": "uint256"
        },
        {
          "indexed": false,
          "internalType": "uint256",
          "name": "participants",
          "type": "uint256"
        }
      ],
      "name": "LotteryExecuted",
      "type": "event"
    },
    {
      "anonymous": false,
      "inputs": [
        {
          "indexed": true,
          "internalType": "address",
          "name": "participant",
          "type": "address"
        },
        {
          "indexed": false,
          "internalType": "uint256",
          "name": "amount",
          "type": "uint256"
        }
      ],
      "name": "ParticipantAdded",
      "type": "event"
    },
    {
      "anonymous": false,
      "inputs": [
        {
          "indexed": true,
          "internalType": "address",
          "name": "participant",
          "type": "address"
        },
        {
          "indexed": false,
          "internalType": "uint256",
          "name": "amount",
          "type": "uint256"
        }
      ],
      "name": "ParticipantRemoved",
      "type": "event"
    },
    {
      "anonymous": false,
      "inputs": [
        {
          "indexed": false,
          "internalType": "uint256",
          "name": "oldAmount",
          "type": "uint256"
        },
        {
          "indexed": false,
          "internalType": "uint256",
          "name": "newAmount",
          "type": "uint256"
        }
      ],
      "name": "PrizePoolUpdated",
      "type": "event"
    },
    {
      "anonymous": false,
      "inputs": [
        {
          "indexed": true,
          "internalType": "uint256",
          "name": "lotteryId",
          "type": "uint256"
        },
        {
          "indexed": false,
          "internalType": "bytes32",
          "name": "requestId",
          "type": "bytes32"
        }
      ],
      "name": "RandomnessRequested",
      "type": "event"
    },
    {
      "anonymous": false,
      "inputs": [
        {
          "indexed": true,
          "internalType": "bytes32",
          "name": "role",
          "type": "bytes32"
        },
        {
          "indexed": true,
          "internalType": "bytes32",
          "name": "previousAdminRole",
          "type": "bytes32"
        },
        {
          "indexed": true,
          "internalType": "bytes32",
          "name": "newAdminRole",
          "type": "bytes32"
        }
      ],
      "name": "RoleAdminChanged",
      "type": "event"
    },
    {
      "anonymous": false,
      "inputs": [
        {
          "indexed": true,
          "internalType": "bytes32",
          "name": "role",
          "type": "bytes32"
        },
        {
          "indexed": true,
          "internalType": "address",
          "name": "account",
          "type": "address"
        },
        {
          "indexed": true,
          "internalType": "address",
          "name": "sender",
          "type": "address"
        }
      ],
      "name": "RoleGranted",
      "type": "event"
    },
    {
      "anonymous": false,
      "inputs": [
        {
          "indexed": true,
          "internalType": "bytes32",
          "name": "role",
          "type": "bytes32"
        },
        {
          "indexed": true,
          "internalType": "address",
          "name": "account",
          "type": "address"
        },
        {
          "indexed": true,
          "internalType": "address",
          "name": "sender",
          "type": "address"
        }
      ],
      "name": "RoleRevoked",
      "type": "event"
    },
    {
      "anonymous": false,
      "inputs": [
        {
          "indexed": false,
          "internalType": "uint256",
          "name": "amount",
          "type": "uint256"
        }
      ],
      "name": "Withdraw",
      "type": "event"
    },
    {
      "anonymous": false,
      "inputs": [
        {
          "indexed": true,
          "internalType": "address",
          "name": "depositor",
          "type": "address"
        },
        {
          "indexed": false,
          "internalType": "uint256",
          "name": "amount",
          "type": "uint256"
        },
        {
          "indexed": false,
          "internalType": "uint256",
          "name": "newPrizePool",
          "type": "uint256"
        }
      ],
      "name": "YieldDeposited",
      "type": "event"
    },
    {
      "inputs": [],
      "name": "AGENT_ROLE",
      "outputs": [
        {
          "internalType": "bytes32",
          "name": "",
          "type": "bytes32"
        }
      ],
      "stateMutability": "view",
      "type": "function"
    },
    {
      "inputs": [],
      "name": "DEFAULT_ADMIN_ROLE",
      "outputs": [
        {
          "internalType": "bytes32",
          "name": "",
          "type": "bytes32"
        }
      ],
      "stateMutability": "view",
      "type": "function"
    },
    {
      "inputs": [],
      "name": "LOTTERY_INTERVAL",
      "outputs": [
        {
          "internalType": "uint256",
          "name": "",
          "type": "uint256"
        }
      ],
      "stateMutability": "view",
      "type": "function"
    },
    {
      "inputs": [],
      "name": "LOTTERY_MANAGER_ROLE",
      "outputs": [
        {
          "internalType": "bytes32",
          "name": "",
          "type": "bytes32"
        }
      ],
      "stateMutability": "view",
      "type": "function"
    },
    {
      "inputs": [],
      "name": "MAX_PARTICIPANTS",
      "outputs": [
        {
          "internalType": "uint256",
          "name": "",
          "type": "uint256"
        }
      ],
      "stateMutability": "view",
      "type": "function"
    },
    {
      "inputs": [],
      "name": "MIN_PRIZE_POOL",
      "outputs": [
        {
          "internalType": "uint256",
          "name": "",
          "type": "uint256"
        }
      ],
      "stateMutability": "view",
      "type": "function"
    },
    {
      "inputs": [],
      "name": "VAULT_ROLE",
      "outputs": [
        {
          "internalType": "bytes32",
          "name": "",
          "type": "bytes32"
        }
      ],
      "stateMutability": "view",
      "type": "function"
    },
    {
      "inputs": [],
      "name": "_paused",
      "outputs": [
        {
          "internalType": "bool",
          "name": "",
          "type": "bool"
        }
      ],
      "stateMutability": "view",
      "type": "function"
    },
    {
      "inputs": [],
      "name": "_underlyingToken",
      "outputs": [
        {
          "internalType": "contract IERC20",
          "name": "",
          "type": "address"
        }
      ],
      "stateMutability": "view",
      "type": "function"
    },
    {
      "inputs": [
        {
          "internalType": "address",
          "name": "participant",
          "type": "address"
        },
        {
          "internalType": "uint256",
          "name": "amount",
          "type": "uint256"
        }
      ],
      "name": "addParticipant",
      "outputs": [],
      "stateMutability": "nonpayable",
      "type": "function"
    },
    {
      "inputs": [
        {
          "internalType": "uint256",
          "name": "amount",
          "type": "uint256"
        }
      ],
      "name": "depositYield",
      "outputs": [],
      "stateMutability": "nonpayable",
      "type": "function"
    },
    {
      "inputs": [
        {
          "internalType": "bytes",
          "name": "data",
          "type": "bytes"
        }
      ],
      "name": "emergencyExit",
      "outputs": [],
      "stateMutability": "nonpayable",
      "type": "function"
    },
    {
      "inputs": [
        {
          "internalType": "uint256",
          "name": "amount",
          "type": "uint256"
        },
        {
          "internalType": "address",
          "name": "to",
          "type": "address"
        }
      ],
      "name": "emergencyWithdraw",
      "outputs": [],
      "stateMutability": "nonpayable",
      "type": "function"
    },
    {
      "inputs": [
        {
          "internalType": "uint256",
          "name": "amount",
          "type": "uint256"
        },
        {
          "internalType": "bytes",
          "name": "data",
          "type": "bytes"
        }
      ],
      "name": "execute",
      "outputs": [],
      "stateMutability": "nonpayable",
      "type": "function"
    },
    {
      "inputs": [],
      "name": "getBalance",
      "outputs": [
        {
          "internalType": "uint256",
          "name": "",
          "type": "uint256"
        }
      ],
      "stateMutability": "view",
      "type": "function"
    },
    {
      "inputs": [
        {
          "internalType": "uint256",
          "name": "count",
          "type": "uint256"
        }
      ],
      "name": "getLotteryHistory",
      "outputs": [
        {
          "internalType": "address[]",
          "name": "winners",
          "type": "address[]"
        },
        {
          "internalType": "uint256[]",
          "name": "payouts",
          "type": "uint256[]"
        }
      ],
      "stateMutability": "view",
      "type": "function"
    },
    {
      "inputs": [],
      "name": "getLotteryInfo",
      "outputs": [
        {
          "internalType": "uint256",
          "name": "currentPrizePool",
          "type": "uint256"
        },
        {
          "internalType": "uint256",
          "name": "timeUntilNextLottery",
          "type": "uint256"
        },
        {
          "internalType": "uint256",
          "name": "numberOfParticipants",
          "type": "uint256"
        },
        {
          "internalType": "address",
          "name": "currentWinner",
          "type": "address"
        },
        {
          "internalType": "uint256",
          "name": "lastPayoutAmount",
          "type": "uint256"
        },
        {
          "internalType": "uint256",
          "name": "lotteryNumber",
          "type": "uint256"
        }
      ],
      "stateMutability": "view",
      "type": "function"
    },
    {
      "inputs": [
        {
          "internalType": "address",
          "name": "participant",
          "type": "address"
        }
      ],
      "name": "getParticipant",
      "outputs": [
        {
          "components": [
            {
              "internalType": "uint256",
              "name": "depositAmount",
              "type": "uint256"
            },
            {
              "internalType": "uint256",
              "name": "depositTime",
              "type": "uint256"
            },
            {
              "internalType": "bool",
              "name": "active",
              "type": "bool"
            }
          ],
          "internalType": "struct EtherlinkYieldLottery.Participant",
          "name": "",
          "type": "tuple"
        }
      ],
      "stateMutability": "view",
      "type": "function"
    },
    {
      "inputs": [],
      "name": "getParticipantList",
      "outputs": [
        {
          "internalType": "address[]",
          "name": "",
          "type": "address[]"
        }
      ],
      "stateMutability": "view",
      "type": "function"
    },
    {
      "inputs": [
        {
          "internalType": "bytes32",
          "name": "role",
          "type": "bytes32"
        }
      ],
      "name": "getRoleAdmin",
      "outputs": [
        {
          "internalType": "bytes32",
          "name": "",
          "type": "bytes32"
        }
      ],
      "stateMutability": "view",
      "type": "function"
    },
    {
      "inputs": [
        {
          "internalType": "address",
          "name": "participant",
          "type": "address"
        }
      ],
      "name": "getWinProbability",
      "outputs": [
        {
          "internalType": "uint256",
          "name": "",
          "type": "uint256"
        }
      ],
      "stateMutability": "view",
      "type": "function"
    },
    {
      "inputs": [
        {
          "internalType": "bytes32",
          "name": "role",
          "type": "bytes32"
        },
        {
          "internalType": "address",
          "name": "account",
          "type": "address"
        }
      ],
      "name": "grantRole",
      "outputs": [],
      "stateMutability": "nonpayable",
      "type": "function"
    },
    {
      "inputs": [
        {
          "internalType": "bytes",
          "name": "data",
          "type": "bytes"
        }
      ],
      "name": "harvest",
      "outputs": [],
      "stateMutability": "nonpayable",
      "type": "function"
    },
    {
      "inputs": [
        {
          "internalType": "bytes32",
          "name": "role",
          "type": "bytes32"
        },
        {
          "internalType": "address",
          "name": "account",
          "type": "address"
        }
      ],
      "name": "hasRole",
      "outputs": [
        {
          "internalType": "bool",
          "name": "",
          "type": "bool"
        }
      ],
      "stateMutability": "view",
      "type": "function"
    },
    {
      "inputs": [],
      "name": "isLotteryReady",
      "outputs": [
        {
          "internalType": "bool",
          "name": "",
          "type": "bool"
        }
      ],
      "stateMutability": "view",
      "type": "function"
    },
    {
      "inputs": [],
      "name": "lastLotteryTime",
      "outputs": [
        {
          "internalType": "uint256",
          "name": "",
          "type": "uint256"
        }
      ],
      "stateMutability": "view",
      "type": "function"
    },
    {
      "inputs": [],
      "name": "lastPayout",
      "outputs": [
        {
          "internalType": "uint256",
          "name": "",
          "type": "uint256"
        }
      ],
      "stateMutability": "view",
      "type": "function"
    },
    {
      "inputs": [],
      "name": "lastWinner",
      "outputs": [
        {
          "internalType": "address",
          "name": "",
          "type": "address"
        }
      ],
      "stateMutability": "view",
      "type": "function"
    },
    {
      "inputs": [],
      "name": "lotteryCount",
      "outputs": [
        {
          "internalType": "uint256",
          "name": "",
          "type": "uint256"
        }
      ],
      "stateMutability": "view",
      "type": "function"
    },
    {
      "inputs": [
        {
          "internalType": "uint256",
          "name": "",
          "type": "uint256"
        }
      ],
      "name": "lotteryPayouts",
      "outputs": [
        {
          "internalType": "uint256",
          "name": "",
          "type": "uint256"
        }
      ],
      "stateMutability": "view",
      "type": "function"
    },
    {
      "inputs": [
        {
          "internalType": "uint256",
          "name": "",
          "type": "uint256"
        }
      ],
      "name": "lotteryWinners",
      "outputs": [
        {
          "internalType": "address",
          "name": "",
          "type": "address"
        }
      ],
      "stateMutability": "view",
      "type": "function"
    },
    {
      "inputs": [
        {
          "internalType": "address",
          "name": "",
          "type": "address"
        }
      ],
      "name": "participantIndex",
      "outputs": [
        {
          "internalType": "uint256",
          "name": "",
          "type": "uint256"
        }
      ],
      "stateMutability": "view",
      "type": "function"
    },
    {
      "inputs": [
        {
          "internalType": "uint256",
          "name": "",
          "type": "uint256"
        }
      ],
      "name": "participantList",
      "outputs": [
        {
          "internalType": "address",
          "name": "",
          "type": "address"
        }
      ],
      "stateMutability": "view",
      "type": "function"
    },
    {
      "inputs": [
        {
          "internalType": "address",
          "name": "",
          "type": "address"
        }
      ],
      "name": "participants",
      "outputs": [
        {
          "internalType": "uint256",
          "name": "depositAmount",
          "type": "uint256"
        },
        {
          "internalType": "uint256",
          "name": "depositTime",
          "type": "uint256"
        },
        {
          "internalType": "bool",
          "name": "active",
          "type": "bool"
        }
      ],
      "stateMutability": "view",
      "type": "function"
    },
    {
      "inputs": [],
      "name": "paused",
      "outputs": [
        {
          "internalType": "bool",
          "name": "",
          "type": "bool"
        }
      ],
      "stateMutability": "view",
      "type": "function"
    },
    {
      "inputs": [],
      "name": "prizePool",
      "outputs": [
        {
          "internalType": "uint256",
          "name": "",
          "type": "uint256"
        }
      ],
      "stateMutability": "view",
      "type": "function"
    },
    {
      "inputs": [],
      "name": "protocol",
      "outputs": [
        {
          "internalType": "address",
          "name": "",
          "type": "address"
        }
      ],
      "stateMutability": "view",
      "type": "function"
    },
    {
      "inputs": [],
      "name": "pythonAgent",
      "outputs": [
        {
          "internalType": "address",
          "name": "",
          "type": "address"
        }
      ],
      "stateMutability": "view",
      "type": "function"
    },
    {
      "inputs": [
        {
          "internalType": "address",
          "name": "participant",
          "type": "address"
        }
      ],
      "name": "removeParticipant",
      "outputs": [],
      "stateMutability": "nonpayable",
      "type": "function"
    },
    {
      "inputs": [
        {
          "internalType": "bytes32",
          "name": "role",
          "type": "bytes32"
        },
        {
          "internalType": "address",
          "name": "account",
          "type": "address"
        }
      ],
      "name": "renounceRole",
      "outputs": [],
      "stateMutability": "nonpayable",
      "type": "function"
    },
    {
      "inputs": [
        {
          "internalType": "bytes32",
          "name": "role",
          "type": "bytes32"
        },
        {
          "internalType": "address",
          "name": "account",
          "type": "address"
        }
      ],
      "name": "revokeRole",
      "outputs": [],
      "stateMutability": "nonpayable",
      "type": "function"
    },
    {
      "inputs": [
        {
          "internalType": "bool",
          "name": "pauseState",
          "type": "bool"
        }
      ],
      "name": "setPaused",
      "outputs": [],
      "stateMutability": "nonpayable",
      "type": "function"
    },
    {
      "inputs": [
        {
          "internalType": "address",
          "name": "newAgent",
          "type": "address"
        }
      ],
      "name": "setPythonAgent",
      "outputs": [],
      "stateMutability": "nonpayable",
      "type": "function"
    },
    {
      "inputs": [
        {
          "internalType": "address",
          "name": "newVault",
          "type": "address"
        }
      ],
      "name": "setVault",
      "outputs": [],
      "stateMutability": "nonpayable",
      "type": "function"
    },
    {
      "inputs": [
        {
          "internalType": "bytes4",
          "name": "interfaceId",
          "type": "bytes4"
        }
      ],
      "name": "supportsInterface",
      "outputs": [
        {
          "internalType": "bool",
          "name": "",
          "type": "bool"
        }
      ],
      "stateMutability": "view",
      "type": "function"
    },
    {
      "inputs": [],
      "name": "totalParticipants",
      "outputs": [
        {
          "internalType": "uint256",
          "name": "",
          "type": "uint256"
        }
      ],
      "stateMutability": "view",
      "type": "function"
    },
    {
      "inputs": [],
      "name": "totalYieldDeposited",
      "outputs": [
        {
          "internalType": "uint256",
          "name": "",
          "type": "uint256"
        }
      ],
      "stateMutability": "view",
      "type": "function"
    },
    {
      "inputs": [],
      "name": "triggerLottery",
      "outputs": [],
      "stateMutability": "nonpayable",
      "type": "function"
    },
    {
      "inputs": [],
      "name": "underlyingToken",
      "outputs": [
        {
          "internalType": "address",
          "name": "",
          "type": "address"
        }
      ],
      "stateMutability": "view",
      "type": "function"
    },
    {
      "inputs": [
        {
          "internalType": "uint256",
          "name": "newAmount",
          "type": "uint256"
        }
      ],
      "name": "updatePrizePool",
      "outputs": [],
      "stateMutability": "nonpayable",
      "type": "function"
    },
    {
      "inputs": [],
      "name": "vault",
      "outputs": [
        {
          "internalType": "address",
          "name": "",
          "type": "address"
        }
      ],
      "stateMutability": "view",
      "type": "function"
    }
  ],
  "bytecode": "0x60a0346103ee57601f612e4c38819003918201601f19168301916001600160401b038311848410176103f3578084926060946040528339810103126103ee5761004781610409565b61005f604061005860208501610409565b9301610409565b600180556001600160a01b039091169182156103b9576001600160a01b0316908115610384576001600160a01b031691821561033f57608052600280546001600160a01b03199081168317909155600380549091168317905542600655336000908152600080516020612e2c833981519152602052604090205460ff16156102ff575b60008181527f57c45785f0bfdd0436a24ca59ce8cf4a246623230045d7db55b0ff1db74c5822602052604090205460ff161561028a575b506000818152600080516020612e0c833981519152602052604090205460ff1615610227575b503360009081527f9d7ac59855a36a917de86cf11335ccc17e4300d5dfeadf9288f88851d6b39fb2602052604090205460ff16156101b3575b6040516129ce908161041e82396080518181816102dd015281816107f801528181611090015281816112b90152818161150b015261232e0152f35b3360008181527f9d7ac59855a36a917de86cf11335ccc17e4300d5dfeadf9288f88851d6b39fb260205260408120805460ff1916600117905581907f16b9b21c34f72b61b038f4735d1e3b86ea577a372ef2c98f5d64e83848a713c290600080516020612dec8339815191529080a4610178565b6000818152600080516020612e0c83398151915260205260408120805460ff191660011790553391907fcab5a0bfe0b79d2c4b1c2e02599fa044d115b7511f9659307cb427695096770990600080516020612dec8339815191529080a43861013f565b60008181527f57c45785f0bfdd0436a24ca59ce8cf4a246623230045d7db55b0ff1db74c582260205260408120805460ff191660011790553391907f31e0210044b4f6757ce6aa31f9c6e8d4896d24a755014887391a926c5224d95990600080516020612dec8339815191529080a438610119565b336000818152600080516020612e2c83398151915260205260408120805460ff191660011790558190600080516020612dec8339815191528180a46100e2565b60405162461bcd60e51b815260206004820152601460248201527f496e76616c696420507974686f6e206167656e740000000000000000000000006044820152606490fd5b60405162461bcd60e51b815260206004820152600d60248201526c125b9d985b1a59081d985d5b1d609a1b6044820152606490fd5b60405162461bcd60e51b815260206004820152600d60248201526c125b9d985b1a5908185cdcd95d609a1b6044820152606490fd5b600080fd5b634e487b7160e01b600052604160045260246000fd5b51906001600160a01b03821682036103ee5756fe6080604052600436101561001257600080fd5b60003560e01c806301e7fefe146119fa57806301ffc9a714611959578063083b91371461191f57806309e69ede146118c95780630bc1bcb11461188e5780630e6fdaa11461184d578063101c5ce9146117d257806312065fe014610af657806316c38b3c1461177d57806316c61ccc14610fb357806322459e1814611742578063248a9ca3146117155780632495a599146102bd5780632a3a0571146115b15780632c1c1276146114aa5780632f2ff15d146113e35780632f940c701461128357806336568abe146111e4578063442208b2146111c657806353b77f521461114c57806359efcb1514610fd95780635c975abb14610fb3578063668a200114610dff5780636817031b14610be0578063687c9db014610bc25780636fe9d09a14610ba45780637143059f14610b14578063719ce73e14610af65780637726c898146108d75780637cf4c01b146107665780637f4f2dc1146107125780638186f418146106f45780638ce74426146106d957806391d148541461068b57806398c4f1ac146106505780639a4ecd64146106255780639eef6b9b14610600578063a217fddf146105e4578063a26dbf26146105c6578063b9db102a146105a8578063c6f6d9d91461058a578063ce5c7f6114610468578063d547741f14610421578063d7a1a5b9146103ec578063e555c585146103c0578063e6785ae714610399578063ed214fff14610301578063eebefee6146102bd578063f3baf070146102a0578063fbfa77cf146102795763fe1881841461024d57600080fd5b346102745760003660031901126102745760206001600160a01b03600c5416604051908152f35b600080fd5b346102745760003660031901126102745760206001600160a01b0360025416604051908152f35b346102745760003660031901126102745760206040516103e88152f35b346102745760003660031901126102745760206040516001600160a01b037f0000000000000000000000000000000000000000000000000000000000000000168152f35b346102745760003660031901126102745760405180602060095491828152019060096000527f6e1540171b6c0c960b71a7020d9f60077f6af931a8bbf590da0223dacf75c7af9060005b81811061037a576103768561036281870382611b6e565b604051918291602083526020830190611ab7565b0390f35b82546001600160a01b031684526020909301926001928301920161034b565b346102745760003660031901126102745760206001600160a01b0360035416604051908152f35b3461027457602036600319011261027457600435600052600f6020526020604060002054604051908152f35b3461027457602036600319011261027457600435600052600e60205260206001600160a01b0360406000205416604051908152f35b3461027457604036600319011261027457610466600435610440611a3d565b9061046161045c82600052600060205260016040600020015490565b611f12565b6121a1565b005b346102745760203660031901126102745760043567ffffffffffffffff811161027457610499903690600401611af4565b50503360009081527f57c45785f0bfdd0436a24ca59ce8cf4a246623230045d7db55b0ff1db74c5822602052604090205460ff168015610552575b801561053e575b8015610525575b6104eb90611bbc565b6104f361222e565b61050560ff60035460a01c1615611c07565b61050d612283565b610518575b60018055005b6105206122bc565b610512565b506104eb6001600160a01b0360025416331490506104e2565b506001600160a01b036003541633146104db565b503360009081527fe298cb3514b0702cec56ac2053c1ecb2187cfdc8a325f22a672bc5027eadc9e2602052604090205460ff166104d4565b34610274576000366003190112610274576020600754604051908152f35b34610274576000366003190112610274576020600d54604051908152f35b34610274576000366003190112610274576020600b54604051908152f35b3461027457600036600319011261027457602060405160008152f35b3461027457600036600319011261027457602061061b612283565b6040519015158152f35b34610274576020366003190112610274576020610648610643611a27565b611caa565b604051908152f35b346102745760003660031901126102745760206040517f31e0210044b4f6757ce6aa31f9c6e8d4896d24a755014887391a926c5224d9598152f35b34610274576040366003190112610274576106a4611a3d565b60043560005260006020526001600160a01b0360406000209116600052602052602060ff604060002054166040519015158152f35b34610274576000366003190112610274576020604051308152f35b34610274576000366003190112610274576020604051629896808152f35b34610274576020366003190112610274577f14f8e85417eecedfed3e5ee8717ea0cd751e834889ece1727aa9457e713c07216040600435610751611da1565b600454908060045582519182526020820152a1005b34610274576020366003190112610274573360009081527f57c45785f0bfdd0436a24ca59ce8cf4a246623230045d7db55b0ff1db74c582260205260409020546004359060ff16801561089f575b801561088b575b8015610872575b6107cb90611bbc565b6107d361222e565b6107de811515611c52565b6107f060ff60035460a01c1615611c07565b61081c8130337f0000000000000000000000000000000000000000000000000000000000000000612402565b61082881600454611b22565b8060045561083882600554611b22565b60055560405191825260208201527fb24442c467cfb2dbd9bcf3c4591b5136dd8aea12ac4dbf019c5be97b1bc0a64a60403392a260018055005b506107cb6001600160a01b0360025416331490506107c2565b506001600160a01b036003541633146107bb565b503360009081527fe298cb3514b0702cec56ac2053c1ecb2187cfdc8a325f22a672bc5027eadc9e2602052604090205460ff166107b4565b34610274576020366003190112610274576001600160a01b036108f8611a27565b610900611ebe565b168015610ab2576003546001600160a01b031660008181527fe298cb3514b0702cec56ac2053c1ecb2187cfdc8a325f22a672bc5027eadc9e2602052604090205460ff16610a24575b506003805473ffffffffffffffffffffffffffffffffffffffff19168217905560008181527fe298cb3514b0702cec56ac2053c1ecb2187cfdc8a325f22a672bc5027eadc9e2602052604090205460ff16156109a157005b60008181527fe298cb3514b0702cec56ac2053c1ecb2187cfdc8a325f22a672bc5027eadc9e260205260408120805460ff191660011790553391907fcab5a0bfe0b79d2c4b1c2e02599fa044d115b7511f9659307cb4276950967709907f2f8788117e7eff1d82e926ec794901d17c78024a50270940304540a733656f0d9080a4005b6001600160a01b03811660009081527fe298cb3514b0702cec56ac2053c1ecb2187cfdc8a325f22a672bc5027eadc9e260205260408120805460ff191690553391907fcab5a0bfe0b79d2c4b1c2e02599fa044d115b7511f9659307cb4276950967709907ff6391f5c32d9c69d2a47ea670b442974b53935d1edc7fd64eb21e047a839171b9080a481610949565b606460405162461bcd60e51b815260206004820152600d60248201527f496e76616c6964206167656e74000000000000000000000000000000000000006044820152fd5b34610274576000366003190112610274576020600454604051908152f35b34610274576020366003190112610274576001600160a01b03610b35611a27565b600060408051610b4481611b3c565b828152826020820152015216600052600860205260606040600020604051610b6b81611b3c565b815491828252604060ff600260018401549360208601948552015416920191151582526040519283525160208301525115156040820152f35b3461027457600036600319011261027457602060405162093a808152f35b34610274576000366003190112610274576020600554604051908152f35b34610274576020366003190112610274576001600160a01b03610c01611a27565b610c09611ebe565b168015610dbb576002546001600160a01b031660008181527f57c45785f0bfdd0436a24ca59ce8cf4a246623230045d7db55b0ff1db74c5822602052604090205460ff16610d2d575b506002805473ffffffffffffffffffffffffffffffffffffffff19168217905560008181527f57c45785f0bfdd0436a24ca59ce8cf4a246623230045d7db55b0ff1db74c5822602052604090205460ff1615610caa57005b60008181527f57c45785f0bfdd0436a24ca59ce8cf4a246623230045d7db55b0ff1db74c582260205260408120805460ff191660011790553391907f31e0210044b4f6757ce6aa31f9c6e8d4896d24a755014887391a926c5224d959907f2f8788117e7eff1d82e926ec794901d17c78024a50270940304540a733656f0d9080a4005b6001600160a01b03811660009081527f57c45785f0bfdd0436a24ca59ce8cf4a246623230045d7db55b0ff1db74c582260205260408120805460ff191690553391907f31e0210044b4f6757ce6aa31f9c6e8d4896d24a755014887391a926c5224d959907ff6391f5c32d9c69d2a47ea670b442974b53935d1edc7fd64eb21e047a839171b9080a481610c52565b606460405162461bcd60e51b815260206004820152600d60248201527f496e76616c6964207661756c74000000000000000000000000000000000000006044820152fd5b34610274576020366003190112610274576001600160a01b03610e20611a27565b610e28611da1565b1680600052600860205260ff6002604060002001541615610f6f5780600052600860205260406000205481600052600a6020526040600020546009546000198101908111610f5957610e816001600160a01b0391611a53565b90549060031b1c16610eb581610e9684611a53565b9091906001600160a01b038084549260031b9316831b921b1916179055565b600052600a6020526040600020556009548015610f43577f5c77dfcb1f101d66f3e9b3e7b6be09da9c0bfea8055273b6e13303649ecc64979160209160001901610efe81611a53565b6001600160a01b0382549160031b1b191690556009558360005260088252600260406000200160ff198154169055610f37600b54611c9d565b600b55604051908152a2005b634e487b7160e01b600052603160045260246000fd5b634e487b7160e01b600052601160045260246000fd5b606460405162461bcd60e51b815260206004820152601660248201527f5061727469636970616e74206e6f7420616374697665000000000000000000006044820152fd5b3461027457600036600319011261027457602060ff60035460a01c166040519015158152f35b346102745760403660031901126102745760043560243567ffffffffffffffff81116102745761100d903690600401611af4565b3360009081527f57c45785f0bfdd0436a24ca59ce8cf4a246623230045d7db55b0ff1db74c5822602052604090205460ff168015611114575b8015611100575b80156110e7575b61105d90611bbc565b61106561222e565b61107760ff60035460a01c1615611c07565b611082831515611c52565b806110b4575b6105128330337f0000000000000000000000000000000000000000000000000000000000000000612402565b81602091810103126102745735906001600160a01b038216809203610274576110e08161051293611f6b565b9082611088565b5061105d6001600160a01b036002541633149050611054565b506001600160a01b0360035416331461104d565b503360009081527fe298cb3514b0702cec56ac2053c1ecb2187cfdc8a325f22a672bc5027eadc9e2602052604090205460ff16611046565b3461027457600036600319011261027457611165611da1565b61116d61222e565b611175612283565b15611182576105126122bc565b606460405162461bcd60e51b815260206004820152601a60248201527f4c6f747465727920636f6e646974696f6e73206e6f74206d65740000000000006044820152fd5b34610274576000366003190112610274576020600654604051908152f35b34610274576040366003190112610274576111fd611a3d565b336001600160a01b0382160361121957610466906004356121a1565b608460405162461bcd60e51b815260206004820152602f60248201527f416363657373436f6e74726f6c3a2063616e206f6e6c792072656e6f756e636560448201527f20726f6c657320666f722073656c6600000000000000000000000000000000006064820152fd5b346102745760403660031901126102745760043561129f611a3d565b906112a8611ebe565b6001600160a01b0382161561139f577f0000000000000000000000000000000000000000000000000000000000000000916040516370a0823160e01b81523060048201526020816024816001600160a01b0388165afa90811561139357600091611361575b50821161131d576104669261214a565b606460405162461bcd60e51b815260206004820152601460248201527f496e73756666696369656e742062616c616e63650000000000000000000000006044820152fd5b90506020813d60201161138b575b8161137c60209383611b6e565b8101031261027457518461130d565b3d915061136f565b6040513d6000823e3d90fd5b606460405162461bcd60e51b815260206004820152601160248201527f496e76616c696420726563697069656e740000000000000000000000000000006044820152fd5b34610274576040366003190112610274576004356113ff611a3d565b9061141b61045c82600052600060205260016040600020015490565b80600052600060205260406000206001600160a01b03831660005260205260ff604060002054161561144957005b80600052600060205260406000206001600160a01b0383166000526020526040600020600160ff198254161790556001600160a01b03339216907f2f8788117e7eff1d82e926ec794901d17c78024a50270940304540a733656f0d600080a4005b346102745760203660031901126102745760043567ffffffffffffffff8111610274576114db903690600401611af4565b50506114e5611ebe565b7401000000000000000000000000000000000000000060ff60a01b1960035416176003557f00000000000000000000000000000000000000000000000000000000000000006040516370a0823160e01b81523060048201526020816024816001600160a01b0386165afa9081156113935760009161157c575b508061156657005b610466916001600160a01b03600254169061214a565b906020823d6020116115a9575b8161159660209383611b6e565b810103126115a65750518261155e565b80fd5b3d9150611589565b346102745760203660031901126102745760075460043580821115611708576115da9082611b2f565b60018101809111610f59576115f0908092611b2f565b9060018201809211610f595761160582611b90565b916116136040519384611b6e565b808352601f1961162282611b90565b0136602085013761163281611b90565b906116406040519283611b6e565b80825261164c81611b90565b602083019390601f190136853760005b8281106116b95761167f8686866020604051948594604086526040860190611ab7565b9184830382860152519182815201919060005b8181106116a0575050500390f35b8251845285945060209384019390920191600101611692565b806116c660019284611b22565b80600052600e6020526001600160a01b03604060002054166116e8838a611ba8565b52600052600f6020526040600020546117018287611ba8565b520161165c565b506115f060018092611b2f565b34610274576020366003190112610274576020610648600435600052600060205260016040600020015490565b346102745760003660031901126102745760206040517fcab5a0bfe0b79d2c4b1c2e02599fa044d115b7511f9659307cb42769509677098152f35b3461027457602036600319011261027457600435801515809103610274576117a3611ebe565b60ff60a01b1974ff00000000000000000000000000000000000000006003549260a01b16911617600355600080f35b34610274576000366003190112610274576004546006549062093a808201809211610f595760c091428111156118455761180d904290611b2f565b600b546001600160a01b03600c5416600d549160075493604051958652602086015260408501526060840152608083015260a0820152f35b50600061180d565b3461027457602036600319011261027457600435600954811015610274576001600160a01b0361187e602092611a53565b90549060031b1c16604051908152f35b346102745760003660031901126102745760206040517f16b9b21c34f72b61b038f4735d1e3b86ea577a372ef2c98f5d64e83848a713c28152f35b34610274576020366003190112610274576001600160a01b036118ea611a27565b1660005260086020526060604060002080549060ff600260018301549201541690604051928352602083015215156040820152f35b34610274576020366003190112610274576001600160a01b03611940611a27565b16600052600a6020526020604060002054604051908152f35b34610274576020366003190112610274576004357fffffffff00000000000000000000000000000000000000000000000000000000811680910361027457807f7965db0b00000000000000000000000000000000000000000000000000000000602092149081156119d0575b506040519015158152f35b7f01ffc9a700000000000000000000000000000000000000000000000000000000915014826119c5565b3461027457604036600319011261027457610466611a16611a27565b611a1e611da1565b60243590611f6b565b600435906001600160a01b038216820361027457565b602435906001600160a01b038216820361027457565b600954811015611a6e57600960005260206000200190600090565b634e487b7160e01b600052603260045260246000fd5b60095415611a6e57600960009081527f6e1540171b6c0c960b71a7020d9f60077f6af931a8bbf590da0223dacf75c7af91565b906020808351928381520192019060005b818110611ad55750505090565b82516001600160a01b0316845260209384019390920191600101611ac8565b9181601f840112156102745782359167ffffffffffffffff8311610274576020838186019501011161027457565b91908201809211610f5957565b91908203918211610f5957565b6060810190811067ffffffffffffffff821117611b5857604052565b634e487b7160e01b600052604160045260246000fd5b90601f8019910116810190811067ffffffffffffffff821117611b5857604052565b67ffffffffffffffff8111611b585760051b60200190565b8051821015611a6e5760209160051b010190565b15611bc357565b606460405162461bcd60e51b815260206004820152600e60248201527f4e6f7420617574686f72697a65640000000000000000000000000000000000006044820152fd5b15611c0e57565b606460405162461bcd60e51b815260206004820152601260248201527f53747261746567792069732070617573656400000000000000000000000000006044820152fd5b15611c5957565b606460405162461bcd60e51b815260206004820152601d60248201527f416d6f756e74206d7573742062652067726561746572207468616e20300000006044820152fd5b8015610f59576000190190565b6001600160a01b031680600052600860205260ff60026040600020015416158015611d97575b611d91576000906000600954905b818110611d1b5750508115611d145760005260086020526040600020546127108102908082046127101490151715610f59570490565b5050600090565b6001600160a01b03611d2c82611a53565b90549060031b1c16600052600860205260ff60026040600020015416611d55575b600101611cde565b92611d896001916001600160a01b03611d6d87611a53565b90549060031b1c16600052600860205260406000205490611b22565b939050611d4d565b50600090565b50600b5415611cd0565b3360009081527f9d7ac59855a36a917de86cf11335ccc17e4300d5dfeadf9288f88851d6b39fb2602052604090205460ff1615611dda57565b611eba611de633612722565b611ea26011611e147f16b9b21c34f72b61b038f4735d1e3b86ea577a372ef2c98f5d64e83848a713c261285a565b9260376040519485927f416363657373436f6e74726f6c3a206163636f756e74200000000000000000006020850152611e56815180926020868801910161245c565b83017f206973206d697373696e6720726f6c652000000000000000000000000000000083820152611e9182518093602060488501910161245c565b01010301601f198101835282611b6e565b60405191829162461bcd60e51b83526004830161247f565b0390fd5b3360009081527fad3228b676f7d3cd4284a5443f17f1962b36e491b30a40b2405849e597ba5fb5602052604090205460ff1615611ef757565b611eba611f0333612722565b611ea26011611e14600061285a565b80600052600060205260406000206001600160a01b03331660005260205260ff6040600020541615611f415750565b611eba90611ea26011611e14611f5633612722565b9361285a565b6000198114610f595760010190565b906001600160a01b03821691821561210657611f88821515611c52565b6103e8600b5410156120c25782600052600860205260ff600260406000200154161560001461207e57604051611fbd81611b3c565b82815260026020820191428352604081019260018452866000526008602052604060002091518255516001820155019051151560ff801983541691161790556009549068010000000000000000821015611b5857610e968260016120249401600955611a53565b6009546000198101908111610f59577f287ab65235aa9a0baeed5b973fda48c77ebdc6f3dd931cfda1c082c0aecc1e739160209184600052600a8352604060002055612071600b54611f5c565b600b555b604051908152a2565b5060207f287ab65235aa9a0baeed5b973fda48c77ebdc6f3dd931cfda1c082c0aecc1e7391836000526008825260406000206120bb828254611b22565b9055612075565b606460405162461bcd60e51b815260206004820152601860248201527f4d6178207061727469636970616e7473207265616368656400000000000000006044820152fd5b606460405162461bcd60e51b815260206004820152601360248201527f496e76616c6964207061727469636970616e74000000000000000000000000006044820152fd5b61219f926001600160a01b03604051937fa9059cbb00000000000000000000000000000000000000000000000000000000602086015216602484015260448301526044825261219a606483611b6e565b6124c7565b565b80600052600060205260406000206001600160a01b03831660005260205260ff604060002054166121d0575050565b80600052600060205260406000206001600160a01b038316600052602052604060002060ff1981541690556001600160a01b03339216907ff6391f5c32d9c69d2a47ea670b442974b53935d1edc7fd64eb21e047a839171b600080a4565b60026001541461223f576002600155565b606460405162461bcd60e51b815260206004820152601f60248201527f5265656e7472616e637947756172643a207265656e7472616e742063616c6c006044820152fd5b60065462093a808101809111610f5957421015806122ad575b806122a45790565b50600b54151590565b5062989680600454101561229c565b6122ce60ff60035460a01c1615611c07565b6000194301438111610f59576001600160a01b03612327600b54926004549360405190602082019242845244604084015240606083015260808201528460a082015260a0815261231f60c082611b6e565b5190206125f4565b61235283827f000000000000000000000000000000000000000000000000000000000000000061214a565b16908173ffffffffffffffffffffffffffffffffffffffff19600c541617600c5580600d5542600655612386600754611f5c565b80600755600052600e60205260406000208273ffffffffffffffffffffffffffffffffffffffff19825416179055600754600052600f6020528060406000205560006004557f6e20d176495738fad4a1e2b0684bb324f2a51ea223f46809896371ac0044e564604060075492600b5482519182526020820152a3565b9091926001600160a01b0361219f9481604051957f23b872dd00000000000000000000000000000000000000000000000000000000602088015216602486015216604484015260648301526064825261219a608483611b6e565b60005b83811061246f5750506000910152565b818101518382015260200161245f565b6040916020825261249f815180928160208601526020868601910161245c565b601f01601f1916010190565b67ffffffffffffffff8111611b5857601f01601f191660200190565b6001600160a01b036125499116916040926000808551936124e88786611b6e565b602085527f5361666545524332303a206c6f772d6c6576656c2063616c6c206661696c6564602086015260208151910182855af13d156125ec573d9161252d836124ab565b9261253a87519485611b6e565b83523d6000602085013e612908565b80519081159182156125c9575b5050156125605750565b6084905162461bcd60e51b815260206004820152602a60248201527f5361666545524332303a204552433230206f7065726174696f6e20646964206e60448201527f6f742073756363656564000000000000000000000000000000000000000000006064820152fd5b819250906020918101031261027457602001518015158103610274573880612556565b606091612908565b600b5415611d9157600954906000805b8381106126b7575080156126a4576000910681825b8481106126405750505050506001600160a01b03612635611a84565b90549060031b1c1690565b6001600160a01b0361265182611a53565b90549060031b1c16808552600860205260ff60026040872001541661267a575b50600101612619565b91612692908386526008602052604086205490611b22565b91828410156126715794505050505090565b5050506001600160a01b03612635611a84565b6001600160a01b036126c882611a53565b90549060031b1c16600052600860205260ff600260406000200154166126f1575b600101612604565b906127096001916001600160a01b03611d6d85611a53565b9190506126e9565b908151811015611a6e570160200190565b60009061272f602a6124ab565b9161273d6040519384611b6e565b602a835261274b602a6124ab565b6020840190601f19013682378351156128465760309053825160011015612832576078602184015350602960005b600182116127ce57505061278a5790565b606460405162461bcd60e51b815260206004820152602060248201527f537472696e67733a20686578206c656e67746820696e73756666696369656e746044820152fd5b9091600f8116601081101561281e57907f3031323334353637383961626364656600000000000000000000000000000000612818921a61280e8587612711565b5360041c92611c9d565b90612779565b602483634e487b7160e01b81526032600452fd5b80634e487b7160e01b602492526032600452fd5b602482634e487b7160e01b81526032600452fd5b60009061286760426124ab565b916128756040519384611b6e565b6042835261288360426124ab565b6020840190601f19013682378351156128465760309053825160011015612832576078602184015350604160005b600182116128c257505061278a5790565b9091600f8116601081101561281e57907f3031323334353637383961626364656600000000000000000000000000000000612902921a61280e8587612711565b906128b1565b91929015612969575081511561291c575090565b3b156129255790565b606460405162461bcd60e51b815260206004820152601d60248201527f416464726573733a2063616c6c20746f206e6f6e2d636f6e74726163740000006044820152fd5b82519091501561297c5750805190602001fd5b611eba9060405191829162461bcd60e51b83526004830161247f56fea26469706673582212205f50316fd413ef32f953f07562cc6c53a6b6236e9c4836660d3ff078eb221f1364736f6c634300081c00332f8788117e7eff1d82e926ec794901d17c78024a50270940304540a733656f0de298cb3514b0702cec56ac2053c1ecb2187cfdc8a325f22a672bc5027eadc9e2ad3228b676f7d3cd4284a5443f17f1962b36e491b30a40b2405849e597ba5fb5",
  "linkReferences": {},
  "deployedLinkReferences": {}
}