{
  "_format": "hh-sol-artifact-1",
  "contractName": "LotteryExtension",
  "sourceName": "contracts/core/LotteryExtension.sol",
  "abi": [
    {
      "inputs": [
        {
          "internalType": "address",
          "name": "_vault",
          "type": "address"
        },
        {
          "internalType": "address",
          "name": "_asset",
          "type": "address"
        }
      ],
      "stateMutability": "nonpayable",
      "type": "constructor"
    },
    {
      "anonymous": false,
      "inputs": [
        {
          "indexed": true,
          "internalType": "uint256",
          "name": "lotteryId",
          "type": "uint256"
        },
        {
          "indexed": true,
          "internalType": "address",
          "name": "winner",
          "type": "address"
        },
        {
          "indexed": false,
          "internalType": "uint256",
          "name": "payout",
          "type": "uint256"
        },
        {
          "indexed": false,
          "internalType": "uint256",
          "name": "participants",
          "type": "uint256"
        }
      ],
      "name": "LotteryExecuted",
      "type": "event"
    },
    {
      "anonymous": false,
      "inputs": [
        {
          "indexed": true,
          "internalType": "bytes32",
          "name": "role",
          "type": "bytes32"
        },
        {
          "indexed": true,
          "internalType": "bytes32",
          "name": "previousAdminRole",
          "type": "bytes32"
        },
        {
          "indexed": true,
          "internalType": "bytes32",
          "name": "newAdminRole",
          "type": "bytes32"
        }
      ],
      "name": "RoleAdminChanged",
      "type": "event"
    },
    {
      "anonymous": false,
      "inputs": [
        {
          "indexed": true,
          "internalType": "bytes32",
          "name": "role",
          "type": "bytes32"
        },
        {
          "indexed": true,
          "internalType": "address",
          "name": "account",
          "type": "address"
        },
        {
          "indexed": true,
          "internalType": "address",
          "name": "sender",
          "type": "address"
        }
      ],
      "name": "RoleGranted",
      "type": "event"
    },
    {
      "anonymous": false,
      "inputs": [
        {
          "indexed": true,
          "internalType": "bytes32",
          "name": "role",
          "type": "bytes32"
        },
        {
          "indexed": true,
          "internalType": "address",
          "name": "account",
          "type": "address"
        },
        {
          "indexed": true,
          "internalType": "address",
          "name": "sender",
          "type": "address"
        }
      ],
      "name": "RoleRevoked",
      "type": "event"
    },
    {
      "anonymous": false,
      "inputs": [
        {
          "indexed": true,
          "internalType": "address",
          "name": "user",
          "type": "address"
        },
        {
          "indexed": false,
          "internalType": "uint256",
          "name": "amount",
          "type": "uint256"
        },
        {
          "indexed": false,
          "internalType": "bool",
          "name": "isDeposit",
          "type": "bool"
        }
      ],
      "name": "UserDepositUpdated",
      "type": "event"
    },
    {
      "anonymous": false,
      "inputs": [
        {
          "indexed": false,
          "internalType": "uint256",
          "name": "amount",
          "type": "uint256"
        },
        {
          "indexed": false,
          "internalType": "uint256",
          "name": "totalAccumulated",
          "type": "uint256"
        }
      ],
      "name": "YieldAccumulated",
      "type": "event"
    },
    {
      "inputs": [],
      "name": "DEFAULT_ADMIN_ROLE",
      "outputs": [
        {
          "internalType": "bytes32",
          "name": "",
          "type": "bytes32"
        }
      ],
      "stateMutability": "view",
      "type": "function"
    },
    {
      "inputs": [],
      "name": "LOTTERY_MANAGER_ROLE",
      "outputs": [
        {
          "internalType": "bytes32",
          "name": "",
          "type": "bytes32"
        }
      ],
      "stateMutability": "view",
      "type": "function"
    },
    {
      "inputs": [],
      "name": "VAULT_ROLE",
      "outputs": [
        {
          "internalType": "bytes32",
          "name": "",
          "type": "bytes32"
        }
      ],
      "stateMutability": "view",
      "type": "function"
    },
    {
      "inputs": [],
      "name": "accumulatedYield",
      "outputs": [
        {
          "internalType": "uint256",
          "name": "",
          "type": "uint256"
        }
      ],
      "stateMutability": "view",
      "type": "function"
    },
    {
      "inputs": [],
      "name": "asset",
      "outputs": [
        {
          "internalType": "contract IERC20",
          "name": "",
          "type": "address"
        }
      ],
      "stateMutability": "view",
      "type": "function"
    },
    {
      "inputs": [
        {
          "internalType": "uint256",
          "name": "amount",
          "type": "uint256"
        }
      ],
      "name": "depositYieldForLottery",
      "outputs": [],
      "stateMutability": "nonpayable",
      "type": "function"
    },
    {
      "inputs": [
        {
          "internalType": "address",
          "name": "",
          "type": "address"
        }
      ],
      "name": "depositorIndex",
      "outputs": [
        {
          "internalType": "uint256",
          "name": "",
          "type": "uint256"
        }
      ],
      "stateMutability": "view",
      "type": "function"
    },
    {
      "inputs": [
        {
          "internalType": "uint256",
          "name": "",
          "type": "uint256"
        }
      ],
      "name": "depositors",
      "outputs": [
        {
          "internalType": "address",
          "name": "",
          "type": "address"
        }
      ],
      "stateMutability": "view",
      "type": "function"
    },
    {
      "inputs": [
        {
          "internalType": "uint256",
          "name": "amount",
          "type": "uint256"
        },
        {
          "internalType": "address",
          "name": "to",
          "type": "address"
        }
      ],
      "name": "emergencyWithdraw",
      "outputs": [],
      "stateMutability": "nonpayable",
      "type": "function"
    },
    {
      "inputs": [],
      "name": "executeLottery",
      "outputs": [
        {
          "internalType": "address",
          "name": "winner",
          "type": "address"
        }
      ],
      "stateMutability": "nonpayable",
      "type": "function"
    },
    {
      "inputs": [],
      "name": "getDepositors",
      "outputs": [
        {
          "internalType": "address[]",
          "name": "",
          "type": "address[]"
        }
      ],
      "stateMutability": "view",
      "type": "function"
    },
    {
      "inputs": [
        {
          "internalType": "uint256",
          "name": "count",
          "type": "uint256"
        }
      ],
      "name": "getLotteryHistory",
      "outputs": [
        {
          "internalType": "address[]",
          "name": "winners",
          "type": "address[]"
        },
        {
          "internalType": "uint256[]",
          "name": "payouts",
          "type": "uint256[]"
        },
        {
          "internalType": "uint256[]",
          "name": "lotteryIds",
          "type": "uint256[]"
        }
      ],
      "stateMutability": "view",
      "type": "function"
    },
    {
      "inputs": [],
      "name": "getLotteryInfo",
      "outputs": [
        {
          "internalType": "uint256",
          "name": "prizePool",
          "type": "uint256"
        },
        {
          "internalType": "address",
          "name": "winner",
          "type": "address"
        },
        {
          "internalType": "bool",
          "name": "lotteryReady",
          "type": "bool"
        },
        {
          "internalType": "uint256",
          "name": "timeUntilLottery",
          "type": "uint256"
        }
      ],
      "stateMutability": "view",
      "type": "function"
    },
    {
      "inputs": [
        {
          "internalType": "bytes32",
          "name": "role",
          "type": "bytes32"
        }
      ],
      "name": "getRoleAdmin",
      "outputs": [
        {
          "internalType": "bytes32",
          "name": "",
          "type": "bytes32"
        }
      ],
      "stateMutability": "view",
      "type": "function"
    },
    {
      "inputs": [
        {
          "internalType": "address",
          "name": "user",
          "type": "address"
        }
      ],
      "name": "getUserLotteryInfo",
      "outputs": [
        {
          "internalType": "uint256",
          "name": "currentDeposit",
          "type": "uint256"
        },
        {
          "internalType": "uint256",
          "name": "winProbability",
          "type": "uint256"
        },
        {
          "internalType": "uint256",
          "name": "lifetimeRewards",
          "type": "uint256"
        },
        {
          "internalType": "bool",
          "name": "isActive",
          "type": "bool"
        }
      ],
      "stateMutability": "view",
      "type": "function"
    },
    {
      "inputs": [
        {
          "internalType": "bytes32",
          "name": "role",
          "type": "bytes32"
        },
        {
          "internalType": "address",
          "name": "account",
          "type": "address"
        }
      ],
      "name": "grantRole",
      "outputs": [],
      "stateMutability": "nonpayable",
      "type": "function"
    },
    {
      "inputs": [
        {
          "internalType": "bytes32",
          "name": "role",
          "type": "bytes32"
        },
        {
          "internalType": "address",
          "name": "account",
          "type": "address"
        }
      ],
      "name": "hasRole",
      "outputs": [
        {
          "internalType": "bool",
          "name": "",
          "type": "bool"
        }
      ],
      "stateMutability": "view",
      "type": "function"
    },
    {
      "inputs": [],
      "name": "isLotteryReady",
      "outputs": [
        {
          "internalType": "bool",
          "name": "",
          "type": "bool"
        }
      ],
      "stateMutability": "view",
      "type": "function"
    },
    {
      "inputs": [],
      "name": "lastLotteryTime",
      "outputs": [
        {
          "internalType": "uint256",
          "name": "",
          "type": "uint256"
        }
      ],
      "stateMutability": "view",
      "type": "function"
    },
    {
      "inputs": [],
      "name": "lastPayout",
      "outputs": [
        {
          "internalType": "uint256",
          "name": "",
          "type": "uint256"
        }
      ],
      "stateMutability": "view",
      "type": "function"
    },
    {
      "inputs": [],
      "name": "lastWinner",
      "outputs": [
        {
          "internalType": "address",
          "name": "",
          "type": "address"
        }
      ],
      "stateMutability": "view",
      "type": "function"
    },
    {
      "inputs": [],
      "name": "lotteryCount",
      "outputs": [
        {
          "internalType": "uint256",
          "name": "",
          "type": "uint256"
        }
      ],
      "stateMutability": "view",
      "type": "function"
    },
    {
      "inputs": [],
      "name": "lotteryInterval",
      "outputs": [
        {
          "internalType": "uint256",
          "name": "",
          "type": "uint256"
        }
      ],
      "stateMutability": "view",
      "type": "function"
    },
    {
      "inputs": [
        {
          "internalType": "uint256",
          "name": "",
          "type": "uint256"
        }
      ],
      "name": "lotteryPayouts",
      "outputs": [
        {
          "internalType": "uint256",
          "name": "",
          "type": "uint256"
        }
      ],
      "stateMutability": "view",
      "type": "function"
    },
    {
      "inputs": [
        {
          "internalType": "uint256",
          "name": "",
          "type": "uint256"
        }
      ],
      "name": "lotteryWinners",
      "outputs": [
        {
          "internalType": "address",
          "name": "",
          "type": "address"
        }
      ],
      "stateMutability": "view",
      "type": "function"
    },
    {
      "inputs": [
        {
          "internalType": "address",
          "name": "user",
          "type": "address"
        },
        {
          "internalType": "uint256",
          "name": "amount",
          "type": "uint256"
        }
      ],
      "name": "onDeposit",
      "outputs": [],
      "stateMutability": "nonpayable",
      "type": "function"
    },
    {
      "inputs": [
        {
          "internalType": "address",
          "name": "user",
          "type": "address"
        },
        {
          "internalType": "uint256",
          "name": "amount",
          "type": "uint256"
        }
      ],
      "name": "onWithdraw",
      "outputs": [],
      "stateMutability": "nonpayable",
      "type": "function"
    },
    {
      "inputs": [
        {
          "internalType": "uint256",
          "name": "amount",
          "type": "uint256"
        }
      ],
      "name": "onYieldHarvested",
      "outputs": [],
      "stateMutability": "nonpayable",
      "type": "function"
    },
    {
      "inputs": [
        {
          "internalType": "bytes32",
          "name": "role",
          "type": "bytes32"
        },
        {
          "internalType": "address",
          "name": "account",
          "type": "address"
        }
      ],
      "name": "renounceRole",
      "outputs": [],
      "stateMutability": "nonpayable",
      "type": "function"
    },
    {
      "inputs": [
        {
          "internalType": "bytes32",
          "name": "role",
          "type": "bytes32"
        },
        {
          "internalType": "address",
          "name": "account",
          "type": "address"
        }
      ],
      "name": "revokeRole",
      "outputs": [],
      "stateMutability": "nonpayable",
      "type": "function"
    },
    {
      "inputs": [
        {
          "internalType": "uint256",
          "name": "_interval",
          "type": "uint256"
        }
      ],
      "name": "setLotteryInterval",
      "outputs": [],
      "stateMutability": "nonpayable",
      "type": "function"
    },
    {
      "inputs": [
        {
          "internalType": "address",
          "name": "_newVault",
          "type": "address"
        }
      ],
      "name": "setVault",
      "outputs": [],
      "stateMutability": "nonpayable",
      "type": "function"
    },
    {
      "inputs": [
        {
          "internalType": "bytes4",
          "name": "interfaceId",
          "type": "bytes4"
        }
      ],
      "name": "supportsInterface",
      "outputs": [
        {
          "internalType": "bool",
          "name": "",
          "type": "bool"
        }
      ],
      "stateMutability": "view",
      "type": "function"
    },
    {
      "inputs": [],
      "name": "totalLotteryDeposits",
      "outputs": [
        {
          "internalType": "uint256",
          "name": "",
          "type": "uint256"
        }
      ],
      "stateMutability": "view",
      "type": "function"
    },
    {
      "inputs": [
        {
          "internalType": "address",
          "name": "",
          "type": "address"
        }
      ],
      "name": "userDeposits",
      "outputs": [
        {
          "internalType": "uint256",
          "name": "amount",
          "type": "uint256"
        },
        {
          "internalType": "uint256",
          "name": "depositTime",
          "type": "uint256"
        },
        {
          "internalType": "uint256",
          "name": "totalRewards",
          "type": "uint256"
        },
        {
          "internalType": "bool",
          "name": "active",
          "type": "bool"
        }
      ],
      "stateMutability": "view",
      "type": "function"
    },
    {
      "inputs": [],
      "name": "vault",
      "outputs": [
        {
          "internalType": "address",
          "name": "",
          "type": "address"
        }
      ],
      "stateMutability": "view",
      "type": "function"
    }
  ],
  "bytecode": "0x6080346102dc57601f61231738819003918201601f19168301916001600160401b038311848410176102e15780849260409485528339810103126102dc57610052602061004b836102f7565b92016102f7565b6001805562093a806005556001600160a01b039091169081156102a7576001600160a01b0316801561027257600280546001600160a01b0319908116841790915560038054909116919091179055426006553360009081526000805160206122f7833981519152602052604090205460ff1615610232575b60008181527f57c45785f0bfdd0436a24ca59ce8cf4a246623230045d7db55b0ff1db74c5822602052604090205460ff16156101bd575b503360009081527f9d7ac59855a36a917de86cf11335ccc17e4300d5dfeadf9288f88851d6b39fb2602052604090205460ff1615610149575b604051611fcb908161030c8239f35b3360008181527f9d7ac59855a36a917de86cf11335ccc17e4300d5dfeadf9288f88851d6b39fb260205260408120805460ff1916600117905581907f16b9b21c34f72b61b038f4735d1e3b86ea577a372ef2c98f5d64e83848a713c2906000805160206122d78339815191529080a461013a565b60008181527f57c45785f0bfdd0436a24ca59ce8cf4a246623230045d7db55b0ff1db74c582260205260408120805460ff191660011790553391907f31e0210044b4f6757ce6aa31f9c6e8d4896d24a755014887391a926c5224d959906000805160206122d78339815191529080a438610101565b3360008181526000805160206122f783398151915260205260408120805460ff1916600117905581906000805160206122d78339815191528180a46100ca565b60405162461bcd60e51b815260206004820152600d60248201526c125b9d985b1a5908185cdcd95d609a1b6044820152606490fd5b60405162461bcd60e51b815260206004820152600d60248201526c125b9d985b1a59081d985d5b1d609a1b6044820152606490fd5b600080fd5b634e487b7160e01b600052604160045260246000fd5b51906001600160a01b03821682036102dc5756fe608080604052600436101561001357600080fd5b60003560e01c90816301ffc9a7146114fa575080630480ef5a1461148b5780630ba36dcd146114295780630bc1bcb1146113ee578063101c5ce9146113745780631c321f62146111e2578063248a9ca3146111ad5780632a3a0571146110745780632bf9518c14610f545780632f2ff15d14610e8d5780632f940c7014610d3257806336568abe14610c93578063383ebbaf14610b7f57806338d52e0f14610b585780633b65261a14610b1e578063442208b214610b0057806352a8c4c414610ae25780636817031b146108d05780636c7b7f2e1461083857806391d14854146107ea57806398c4f1ac146107af5780639eef6b9b1461078a578063a217fddf1461076e578063b9db102a14610750578063be07991914610732578063c6f6d9d914610714578063ccad973d1461054f578063d547741f14610508578063d7a1a5b9146104d3578063e4b2fb7914610492578063e555c58514610466578063f09123eb14610361578063fbfa77cf1461033a578063fc3ff989146101f5578063fcdfd5c5146101d75763fe188184146101ab57600080fd5b346101d25760003660031901126101d25760206001600160a01b0360075416604051908152f35b600080fd5b346101d25760003660031901126101d2576020600454604051908152f35b346101d25760203660031901126101d257600435610211611880565b7ffcdfbd17478a7a3586ec01961f4ffaad1453178eee6ae29dd135167624edced9604061024083600454611666565b92836004558151908152836020820152a161025961193d565b61025f57005b610267611971565b906102a6816001600160a01b0384169384600052600a6020526002604060002001610293838254611666565b90556001600160a01b0360035416611a8b565b816001600160a01b0319600754161760075580600855426006556102cb600954611680565b80600955600052600e6020526040600020826001600160a01b0319825416179055600954600052600f6020528060406000205560006004557f6e20d176495738fad4a1e2b0684bb324f2a51ea223f46809896371ac0044e564604060095492600b5482519182526020820152a3005b346101d25760003660031901126101d25760206001600160a01b0360025416604051908152f35b346101d25760203660031901126101d25760043561037d61180d565b80156104225760407ffcdfbd17478a7a3586ec01961f4ffaad1453178eee6ae29dd135167624edced9916104056001600160a01b03600354168351907f23b872dd0000000000000000000000000000000000000000000000000000000060208301523360248301523060448301528360648301526064825261040060848361168f565b611bd5565b61041181600454611666565b8060045582519182526020820152a1005b606460405162461bcd60e51b815260206004820152600e60248201527f496e76616c696420616d6f756e740000000000000000000000000000000000006044820152fd5b346101d25760203660031901126101d257600435600052600f6020526020604060002054604051908152f35b346101d25760203660031901126101d257600435600b548110156101d2576001600160a01b036104c3602092611635565b90549060031b1c16604051908152f35b346101d25760203660031901126101d257600435600052600e60205260206001600160a01b0360406000205416604051908152f35b346101d25760403660031901126101d25761054d6004356105276115ae565b9061054861054382600052600060205260016040600020015490565b6118f3565b611add565b005b346101d25760403660031901126101d257610568611598565b6001600160a01b036024359161057c611880565b169081600052600a60205260406000208054828110156105cb575b837f93cbe56d766e7df24536765f114d890698f662eb2e5b67e887a3a2bb4ace2afc604085815190815260006020820152a2005b826105d591611673565b81556105e382600d54611673565b600d558054156105f4575b80610597565b600301805460ff191690556000828152600c6020526040902054600b5460001981019081116106fe578082036106a4575b5050600b54801561068e577f93cbe56d766e7df24536765f114d890698f662eb2e5b67e887a3a2bb4ace2afc916040916000190161066281611635565b6001600160a01b0382549160031b1b19169055600b5583600052600c60205260008281205591506105ee565b634e487b7160e01b600052603160045260246000fd5b6106b56001600160a01b0391611635565b90549060031b1c166106e9816106ca84611635565b9091906001600160a01b038084549260031b9316831b921b1916179055565b600052600c6020526040600020558280610625565b634e487b7160e01b600052601160045260246000fd5b346101d25760003660031901126101d2576020600954604051908152f35b346101d25760003660031901126101d2576020600d54604051908152f35b346101d25760003660031901126101d2576020600854604051908152f35b346101d25760003660031901126101d257602060405160008152f35b346101d25760003660031901126101d25760206107a561193d565b6040519015158152f35b346101d25760003660031901126101d25760206040517f31e0210044b4f6757ce6aa31f9c6e8d4896d24a755014887391a926c5224d9598152f35b346101d25760403660031901126101d2576108036115ae565b60043560005260006020526001600160a01b0360406000209116600052602052602060ff604060002054166040519015158152f35b346101d25760003660031901126101d257604051806020600b54918281520190600b6000527f0175b7a638427703f0dbe7bb9bbf987a2551717b34e79f33b5b1008d1fa01db99060005b8181106108b1576108ad856108998187038261168f565b6040519182916020835260208301906115c4565b0390f35b82546001600160a01b0316845260209093019260019283019201610882565b346101d25760203660031901126101d2576001600160a01b036108f1611598565b6108f961170f565b168015610a9e576002546001600160a01b031660008181527f57c45785f0bfdd0436a24ca59ce8cf4a246623230045d7db55b0ff1db74c5822602052604090205460ff16610a10575b50600280546001600160a01b0319168217905560008181527f57c45785f0bfdd0436a24ca59ce8cf4a246623230045d7db55b0ff1db74c5822602052604090205460ff161561098d57005b60008181527f57c45785f0bfdd0436a24ca59ce8cf4a246623230045d7db55b0ff1db74c582260205260408120805460ff191660011790553391907f31e0210044b4f6757ce6aa31f9c6e8d4896d24a755014887391a926c5224d959907f2f8788117e7eff1d82e926ec794901d17c78024a50270940304540a733656f0d9080a4005b6001600160a01b03811660009081527f57c45785f0bfdd0436a24ca59ce8cf4a246623230045d7db55b0ff1db74c582260205260408120805460ff191690553391907f31e0210044b4f6757ce6aa31f9c6e8d4896d24a755014887391a926c5224d959907ff6391f5c32d9c69d2a47ea670b442974b53935d1edc7fd64eb21e047a839171b9080a481610942565b606460405162461bcd60e51b815260206004820152600d60248201527f496e76616c6964207661756c74000000000000000000000000000000000000006044820152fd5b346101d25760003660031901126101d2576020600554604051908152f35b346101d25760003660031901126101d2576020600654604051908152f35b346101d25760203660031901126101d2576001600160a01b03610b3f611598565b16600052600c6020526020604060002054604051908152f35b346101d25760003660031901126101d25760206001600160a01b0360035416604051908152f35b346101d25760203660031901126101d2576001600160a01b03610ba0611598565b16600052600a60205260406000206040516080810181811067ffffffffffffffff821117610c7d5760405260608254918281526001840154602082015260ff600360028601549586604085015201541615159182910152600d5490811591821580610c76575b15610c685761271084029284840461271014851517156106fe57610c52576108ad9204935b60405194859485926060929594919560808501968552602085015260408401521515910152565b634e487b7160e01b600052601260045260246000fd5b506108ad9150600093610c2b565b5081610c06565b634e487b7160e01b600052604160045260246000fd5b346101d25760403660031901126101d257610cac6115ae565b336001600160a01b03821603610cc85761054d90600435611add565b608460405162461bcd60e51b815260206004820152602f60248201527f416363657373436f6e74726f6c3a2063616e206f6e6c792072656e6f756e636560448201527f20726f6c657320666f722073656c6600000000000000000000000000000000006064820152fd5b346101d25760403660031901126101d257600435610d4e6115ae565b90610d5761170f565b6001600160a01b03821615610e49576001600160a01b0360035416916040517f70a08231000000000000000000000000000000000000000000000000000000008152306004820152602081602481875afa908115610e3d57600091610e0b575b508211610dc75761054d92611a8b565b606460405162461bcd60e51b815260206004820152601460248201527f496e73756666696369656e742062616c616e63650000000000000000000000006044820152fd5b90506020813d602011610e35575b81610e266020938361168f565b810103126101d2575184610db7565b3d9150610e19565b6040513d6000823e3d90fd5b606460405162461bcd60e51b815260206004820152601160248201527f496e76616c696420726563697069656e740000000000000000000000000000006044820152fd5b346101d25760403660031901126101d257600435610ea96115ae565b90610ec561054382600052600060205260016040600020015490565b80600052600060205260406000206001600160a01b03831660005260205260ff6040600020541615610ef357005b80600052600060205260406000206001600160a01b0383166000526020526040600020600160ff198254161790556001600160a01b03339216907f2f8788117e7eff1d82e926ec794901d17c78024a50270940304540a733656f0d600080a4005b346101d25760403660031901126101d257610f6d611598565b60243590610f79611880565b6001600160a01b0381169182600052600a602052604060002091825415610fec575b508082610fcc6040937f93cbe56d766e7df24536765f114d890698f662eb2e5b67e887a3a2bb4ace2afc9554611666565b9055610fda81600d54611666565b600d55815190815260016020820152a2005b600b549068010000000000000000821015610c7d576106ca8260016110149401600b55611635565b600b546000198101919082116106fe577f93cbe56d766e7df24536765f114d890698f662eb2e5b67e887a3a2bb4ace2afc9260409285600052600c602052836000205542600182015560038101600160ff19825416179055925090610f9b565b346101d25760203660031901126101d257600954600435808211156111a05761109d9082611673565b600181018091116106fe576110b3908092611673565b600181018091116106fe576110c7816116b1565b906110d5604051928361168f565b808252601f196110e4826116b1565b013660208401376110f4816116c9565b906110fe816116c9565b9360005b82811061114557611129856108ad88611137886040519586956060875260608701906115c4565b908582036020870152611601565b908382036040850152611601565b8061115260019284611666565b80600052600e6020526001600160a01b036040600020541661117483896116fb565b5280600052600f60205260406000205461118e83886116fb565b5261119982896116fb565b5201611102565b506110b360018092611673565b346101d25760203660031901126101d25760206111da600435600052600060205260016040600020015490565b604051908152f35b346101d25760003660031901126101d2576111fb61180d565b60026001541461133057600260015561121261193d565b156112ec576020611221611971565b60045490816112516001600160a01b03831693849384600052600a87526002604060002001610293838254611666565b816001600160a01b031960075416176007558060085542600655611276600954611680565b80600955600052600e84526040600020826001600160a01b0319825416179055600954600052600f84528060406000205560006004557f6e20d176495738fad4a1e2b0684bb324f2a51ea223f46809896371ac0044e564604060095492600b54825191825287820152a360018055604051908152f35b606460405162461bcd60e51b815260206004820152601a60248201527f4c6f747465727920636f6e646974696f6e73206e6f74206d65740000000000006044820152fd5b606460405162461bcd60e51b815260206004820152601f60248201527f5265656e7472616e637947756172643a207265656e7472616e742063616c6c006044820152fd5b346101d25760003660031901126101d25760806004546001600160a01b036007541661139e61193d565b600654600554906113af8282611666565b4210156113e4576113c46113c9924292611666565b611673565b915b6040519384526020840152151560408301526060820152f35b50506000916113cb565b346101d25760003660031901126101d25760206040517f16b9b21c34f72b61b038f4735d1e3b86ea577a372ef2c98f5d64e83848a713c28152f35b346101d25760203660031901126101d2576001600160a01b0361144a611598565b166000908152600a60209081526040918290208054600182015460028301546003909301548551928352938201529283015260ff1615156060820152608090f35b346101d25760203660031901126101d2576004356114a761170f565b6201518081106114b657600555005b606460405162461bcd60e51b815260206004820152601260248201527f496e74657276616c20746f6f2073686f727400000000000000000000000000006044820152fd5b346101d25760203660031901126101d257600435907fffffffff0000000000000000000000000000000000000000000000000000000082168092036101d257817f7965db0b000000000000000000000000000000000000000000000000000000006020931490811561156e575b5015158152f35b7f01ffc9a70000000000000000000000000000000000000000000000000000000091501483611567565b600435906001600160a01b03821682036101d257565b602435906001600160a01b03821682036101d257565b906020808351928381520192019060005b8181106115e25750505090565b82516001600160a01b03168452602093840193909201916001016115d5565b906020808351928381520192019060005b81811061161f5750505090565b8251845260209384019390920191600101611612565b600b5481101561165057600b60005260206000200190600090565b634e487b7160e01b600052603260045260246000fd5b919082018092116106fe57565b919082039182116106fe57565b60001981146106fe5760010190565b90601f8019910116810190811067ffffffffffffffff821117610c7d57604052565b67ffffffffffffffff8111610c7d5760051b60200190565b906116d3826116b1565b6116e0604051918261168f565b82815280926116f1601f19916116b1565b0190602036910137565b80518210156116505760209160051b010190565b3360009081527fad3228b676f7d3cd4284a5443f17f1962b36e491b30a40b2405849e597ba5fb5602052604090205460ff161561174857565b61180961175433611d13565b6117f160116117636000611e4c565b9260376040519485927f416363657373436f6e74726f6c3a206163636f756e742000000000000000000060208501526117a58151809260208688019101611b6a565b83017f206973206d697373696e6720726f6c6520000000000000000000000000000000838201526117e0825180936020604885019101611b6a565b01010301601f19810183528261168f565b60405191829162461bcd60e51b835260048301611b8d565b0390fd5b3360009081527f9d7ac59855a36a917de86cf11335ccc17e4300d5dfeadf9288f88851d6b39fb2602052604090205460ff161561184657565b61180961185233611d13565b6117f160116117637f16b9b21c34f72b61b038f4735d1e3b86ea577a372ef2c98f5d64e83848a713c2611e4c565b3360009081527f57c45785f0bfdd0436a24ca59ce8cf4a246623230045d7db55b0ff1db74c5822602052604090205460ff16156118b957565b6118096118c533611d13565b6117f160116117637f31e0210044b4f6757ce6aa31f9c6e8d4896d24a755014887391a926c5224d959611e4c565b80600052600060205260406000206001600160a01b03331660005260205260ff60406000205416156119225750565b611809906117f1601161176361193733611d13565b93611e4c565b61194c60065460055490611666565b42101580611966575b8061195d5790565b50600454151590565b50600b541515611955565b60001943014381116106fe57600d549060095460405190602082019242845244604084015240606083015283608083015260a082015260a081526119b660c08261168f565b5190208115610c52570660008091600b54925b838110611a2457505050506000600b5415611a1057600b90527f0175b7a638427703f0dbe7bb9bbf987a2551717b34e79f33b5b1008d1fa01db9546001600160a01b031690565b80634e487b7160e01b602492526032600452fd5b6001600160a01b03611a3582611635565b90549060031b1c1680600052600a60205260ff60036040600020015416611a60575b506001016119c9565b92611a7a9084600052600a60205260406000205490611666565b9283831015611a5757935050505090565b611adb926001600160a01b03604051937fa9059cbb00000000000000000000000000000000000000000000000000000000602086015216602484015260448301526044825261040060648361168f565b565b80600052600060205260406000206001600160a01b03831660005260205260ff60406000205416611b0c575050565b80600052600060205260406000206001600160a01b038316600052602052604060002060ff1981541690556001600160a01b03339216907ff6391f5c32d9c69d2a47ea670b442974b53935d1edc7fd64eb21e047a839171b600080a4565b60005b838110611b7d5750506000910152565b8181015183820152602001611b6d565b60409160208252611bad8151809281602086015260208686019101611b6a565b601f01601f1916010190565b67ffffffffffffffff8111610c7d57601f01601f191660200190565b6001600160a01b03611c57911691604092600080855193611bf6878661168f565b602085527f5361666545524332303a206c6f772d6c6576656c2063616c6c206661696c6564602086015260208151910182855af13d15611cfa573d91611c3b83611bb9565b92611c488751948561168f565b83523d6000602085013e611f05565b8051908115918215611cd7575b505015611c6e5750565b6084905162461bcd60e51b815260206004820152602a60248201527f5361666545524332303a204552433230206f7065726174696f6e20646964206e60448201527f6f742073756363656564000000000000000000000000000000000000000000006064820152fd5b81925090602091810103126101d2576020015180151581036101d2573880611c64565b606091611f05565b908151811015611650570160200190565b600090611d20602a611bb9565b91611d2e604051938461168f565b602a8352611d3c602a611bb9565b6020840190601f1901368237835115611e385760309053825160011015611a10576078602184015350602960005b60018211611dbf575050611d7b5790565b606460405162461bcd60e51b815260206004820152602060248201527f537472696e67733a20686578206c656e67746820696e73756666696369656e746044820152fd5b9091600f81166010811015611e24577f3031323334353637383961626364656600000000000000000000000000000000901a611dfb8486611d02565b5360041c918015611e10576000190190611d6a565b602482634e487b7160e01b81526011600452fd5b602483634e487b7160e01b81526032600452fd5b602482634e487b7160e01b81526032600452fd5b600090611e596042611bb9565b91611e67604051938461168f565b60428352611e756042611bb9565b6020840190601f1901368237835115611e385760309053825160011015611a10576078602184015350604160005b60018211611eb4575050611d7b5790565b9091600f81166010811015611e24577f3031323334353637383961626364656600000000000000000000000000000000901a611ef08486611d02565b5360041c918015611e10576000190190611ea3565b91929015611f665750815115611f19575090565b3b15611f225790565b606460405162461bcd60e51b815260206004820152601d60248201527f416464726573733a2063616c6c20746f206e6f6e2d636f6e74726163740000006044820152fd5b825190915015611f795750805190602001fd5b6118099060405191829162461bcd60e51b835260048301611b8d56fea2646970667358221220484ce0ab7015142b47260c06fcc9f52994d735d9889d03c1b18c12b366016ae264736f6c634300081c00332f8788117e7eff1d82e926ec794901d17c78024a50270940304540a733656f0dad3228b676f7d3cd4284a5443f17f1962b36e491b30a40b2405849e597ba5fb5",
  "linkReferences": {},
  "deployedLinkReferences": {}
}