{
  "_format": "hh-sol-artifact-1",
  "contractName": "MockUSDT",
  "sourceName": "contracts/mocks/MockUSDT.sol",
  "abi": [
    {
      "inputs": [],
      "stateMutability": "nonpayable",
      "type": "constructor"
    },
    {
      "anonymous": false,
      "inputs": [
        {
          "indexed": true,
          "internalType": "address",
          "name": "owner",
          "type": "address"
        },
        {
          "indexed": true,
          "internalType": "address",
          "name": "spender",
          "type": "address"
        },
        {
          "indexed": false,
          "internalType": "uint256",
          "name": "value",
          "type": "uint256"
        }
      ],
      "name": "Approval",
      "type": "event"
    },
    {
      "anonymous": false,
      "inputs": [
        {
          "indexed": true,
          "internalType": "address",
          "name": "to",
          "type": "address"
        },
        {
          "indexed": false,
          "internalType": "uint256",
          "name": "amount",
          "type": "uint256"
        }
      ],
      "name": "Faucet",
      "type": "event"
    },
    {
      "anonymous": false,
      "inputs": [
        {
          "indexed": false,
          "internalType": "uint256",
          "name": "newCooldown",
          "type": "uint256"
        }
      ],
      "name": "FaucetCooldownUpdated",
      "type": "event"
    },
    {
      "anonymous": false,
      "inputs": [
        {
          "indexed": true,
          "internalType": "address",
          "name": "previousOwner",
          "type": "address"
        },
        {
          "indexed": true,
          "internalType": "address",
          "name": "newOwner",
          "type": "address"
        }
      ],
      "name": "OwnershipTransferred",
      "type": "event"
    },
    {
      "anonymous": false,
      "inputs": [
        {
          "indexed": true,
          "internalType": "address",
          "name": "from",
          "type": "address"
        },
        {
          "indexed": true,
          "internalType": "address",
          "name": "to",
          "type": "address"
        },
        {
          "indexed": false,
          "internalType": "uint256",
          "name": "value",
          "type": "uint256"
        }
      ],
      "name": "Transfer",
      "type": "event"
    },
    {
      "inputs": [
        {
          "internalType": "address",
          "name": "owner",
          "type": "address"
        },
        {
          "internalType": "address",
          "name": "spender",
          "type": "address"
        }
      ],
      "name": "allowance",
      "outputs": [
        {
          "internalType": "uint256",
          "name": "",
          "type": "uint256"
        }
      ],
      "stateMutability": "view",
      "type": "function"
    },
    {
      "inputs": [
        {
          "internalType": "address",
          "name": "spender",
          "type": "address"
        },
        {
          "internalType": "uint256",
          "name": "amount",
          "type": "uint256"
        }
      ],
      "name": "approve",
      "outputs": [
        {
          "internalType": "bool",
          "name": "",
          "type": "bool"
        }
      ],
      "stateMutability": "nonpayable",
      "type": "function"
    },
    {
      "inputs": [
        {
          "internalType": "address",
          "name": "account",
          "type": "address"
        }
      ],
      "name": "balanceOf",
      "outputs": [
        {
          "internalType": "uint256",
          "name": "",
          "type": "uint256"
        }
      ],
      "stateMutability": "view",
      "type": "function"
    },
    {
      "inputs": [
        {
          "internalType": "uint256",
          "name": "amount",
          "type": "uint256"
        }
      ],
      "name": "burn",
      "outputs": [],
      "stateMutability": "nonpayable",
      "type": "function"
    },
    {
      "inputs": [
        {
          "internalType": "address",
          "name": "user",
          "type": "address"
        }
      ],
      "name": "canUseFaucet",
      "outputs": [
        {
          "internalType": "bool",
          "name": "ready",
          "type": "bool"
        }
      ],
      "stateMutability": "view",
      "type": "function"
    },
    {
      "inputs": [],
      "name": "decimals",
      "outputs": [
        {
          "internalType": "uint8",
          "name": "",
          "type": "uint8"
        }
      ],
      "stateMutability": "pure",
      "type": "function"
    },
    {
      "inputs": [
        {
          "internalType": "address",
          "name": "spender",
          "type": "address"
        },
        {
          "internalType": "uint256",
          "name": "subtractedValue",
          "type": "uint256"
        }
      ],
      "name": "decreaseAllowance",
      "outputs": [
        {
          "internalType": "bool",
          "name": "",
          "type": "bool"
        }
      ],
      "stateMutability": "nonpayable",
      "type": "function"
    },
    {
      "inputs": [
        {
          "internalType": "uint256",
          "name": "amount",
          "type": "uint256"
        }
      ],
      "name": "emergencyMint",
      "outputs": [],
      "stateMutability": "nonpayable",
      "type": "function"
    },
    {
      "inputs": [],
      "name": "faucet",
      "outputs": [],
      "stateMutability": "nonpayable",
      "type": "function"
    },
    {
      "inputs": [],
      "name": "faucetCooldown",
      "outputs": [
        {
          "internalType": "uint256",
          "name": "",
          "type": "uint256"
        }
      ],
      "stateMutability": "view",
      "type": "function"
    },
    {
      "inputs": [
        {
          "internalType": "uint256",
          "name": "amount",
          "type": "uint256"
        }
      ],
      "name": "faucetWithAmount",
      "outputs": [],
      "stateMutability": "nonpayable",
      "type": "function"
    },
    {
      "inputs": [
        {
          "internalType": "address",
          "name": "user",
          "type": "address"
        }
      ],
      "name": "getFaucetTimeLeft",
      "outputs": [
        {
          "internalType": "uint256",
          "name": "timeLeft",
          "type": "uint256"
        }
      ],
      "stateMutability": "view",
      "type": "function"
    },
    {
      "inputs": [
        {
          "internalType": "address",
          "name": "spender",
          "type": "address"
        },
        {
          "internalType": "uint256",
          "name": "addedValue",
          "type": "uint256"
        }
      ],
      "name": "increaseAllowance",
      "outputs": [
        {
          "internalType": "bool",
          "name": "",
          "type": "bool"
        }
      ],
      "stateMutability": "nonpayable",
      "type": "function"
    },
    {
      "inputs": [
        {
          "internalType": "address",
          "name": "",
          "type": "address"
        }
      ],
      "name": "lastFaucetTime",
      "outputs": [
        {
          "internalType": "uint256",
          "name": "",
          "type": "uint256"
        }
      ],
      "stateMutability": "view",
      "type": "function"
    },
    {
      "inputs": [
        {
          "internalType": "address",
          "name": "to",
          "type": "address"
        },
        {
          "internalType": "uint256",
          "name": "amount",
          "type": "uint256"
        }
      ],
      "name": "mint",
      "outputs": [],
      "stateMutability": "nonpayable",
      "type": "function"
    },
    {
      "inputs": [],
      "name": "name",
      "outputs": [
        {
          "internalType": "string",
          "name": "",
          "type": "string"
        }
      ],
      "stateMutability": "view",
      "type": "function"
    },
    {
      "inputs": [],
      "name": "owner",
      "outputs": [
        {
          "internalType": "address",
          "name": "",
          "type": "address"
        }
      ],
      "stateMutability": "view",
      "type": "function"
    },
    {
      "inputs": [],
      "name": "renounceOwnership",
      "outputs": [],
      "stateMutability": "nonpayable",
      "type": "function"
    },
    {
      "inputs": [
        {
          "internalType": "uint256",
          "name": "newCooldown",
          "type": "uint256"
        }
      ],
      "name": "setFaucetCooldown",
      "outputs": [],
      "stateMutability": "nonpayable",
      "type": "function"
    },
    {
      "inputs": [],
      "name": "symbol",
      "outputs": [
        {
          "internalType": "string",
          "name": "",
          "type": "string"
        }
      ],
      "stateMutability": "view",
      "type": "function"
    },
    {
      "inputs": [],
      "name": "totalSupply",
      "outputs": [
        {
          "internalType": "uint256",
          "name": "",
          "type": "uint256"
        }
      ],
      "stateMutability": "view",
      "type": "function"
    },
    {
      "inputs": [
        {
          "internalType": "address",
          "name": "to",
          "type": "address"
        },
        {
          "internalType": "uint256",
          "name": "amount",
          "type": "uint256"
        }
      ],
      "name": "transfer",
      "outputs": [
        {
          "internalType": "bool",
          "name": "",
          "type": "bool"
        }
      ],
      "stateMutability": "nonpayable",
      "type": "function"
    },
    {
      "inputs": [
        {
          "internalType": "address",
          "name": "from",
          "type": "address"
        },
        {
          "internalType": "address",
          "name": "to",
          "type": "address"
        },
        {
          "internalType": "uint256",
          "name": "amount",
          "type": "uint256"
        }
      ],
      "name": "transferFrom",
      "outputs": [
        {
          "internalType": "bool",
          "name": "",
          "type": "bool"
        }
      ],
      "stateMutability": "nonpayable",
      "type": "function"
    },
    {
      "inputs": [
        {
          "internalType": "address",
          "name": "newOwner",
          "type": "address"
        }
      ],
      "name": "transferOwnership",
      "outputs": [],
      "stateMutability": "nonpayable",
      "type": "function"
    }
  ],
  "bytecode": "0x60806040523461040e57604080519081016001600160401b03811182821017610319576040908152600f82526e135bd8dac815195d1a195c881554d1608a1b602083015280519081016001600160401b038111828210176103195760405260048152631554d11560e21b602082015281516001600160401b03811161031957600354600181811c91168015610404575b60208210146102f957601f811161039f575b50602092601f821160011461033a579281929360009261032f575b50508160011b916000199060031b1c1916176003555b80516001600160401b03811161031957600454600181811c9116801561030f575b60208210146102f957601f8111610294575b50602091601f821160011461023057918192600092610225575b50508160011b916000199060031b1c1916176004555b61013e33610413565b6201518060075561014e33610413565b33156101e05760025466038d7ea4c6800081018091116101ca57600255336000526000602052604060002066038d7ea4c68000815401905560405166038d7ea4c68000815260007fddf252ad1be2c89b69c2b068fc378daa952ba7f163c4a11628f55a4df523b3ef60203393a36040516110e4908161045d8239f35b634e487b7160e01b600052601160045260246000fd5b60405162461bcd60e51b815260206004820152601f60248201527f45524332303a206d696e7420746f20746865207a65726f2061646472657373006044820152606490fd5b01519050388061011f565b601f198216926004600052806000209160005b85811061027c57508360019510610263575b505050811b01600455610135565b015160001960f88460031b161c19169055388080610255565b91926020600181928685015181550194019201610243565b60046000527f8a35acfbc15ff81a39ae7d344fd709f28e8600b4aa8c65c6b64bfe7fe36bd19b601f830160051c810191602084106102ef575b601f0160051c01905b8181106102e35750610105565b600081556001016102d6565b90915081906102cd565b634e487b7160e01b600052602260045260246000fd5b90607f16906100f3565b634e487b7160e01b600052604160045260246000fd5b0151905038806100bc565b601f198216936003600052806000209160005b868110610387575083600195961061036e575b505050811b016003556100d2565b015160001960f88460031b161c19169055388080610360565b9192602060018192868501518155019401920161034d565b60036000527fc2575a0e9e593c00f959f8c92f12db2869c3395a3b0502d05e2516446f71f85b601f830160051c810191602084106103fa575b601f0160051c01905b8181106103ee57506100a1565b600081556001016103e1565b90915081906103d8565b90607f169061008f565b600080fd5b600580546001600160a01b039283166001600160a01b0319821681179092559091167f8be0079c531659141344cd1fd0a4f28419497f9722a3daafe3b4186f6b6457e0600080a356fe608080604052600436101561001357600080fd5b60003560e01c90816306fdde0314610ac157508063095ea7b314610a9b5780631624ca8e146109d957806318160ddd146109bb57806323b872dd146108f4578063313ce567146108d8578063395093511461088557806340c10f1914610858578063428283891461082d57806342966c68146106e157806370a08231146106a7578063715018a61461063f578063780768fc146105f65780637bc1f6cc146105bc5780637e36320b1461059e5780638da5cb5b14610577578063913592041461052b57806395d89b411461040a578063a457c2d71461034b578063a9059cbb1461031a578063dd62ed3e146102c2578063de5f72fd1461023d578063f2fde38b146101535763ffcc66dc1461012757600080fd5b3461014e57602036600319011261014e57610140611056565b61014c60043533610def565b005b600080fd5b3461014e57602036600319011261014e576001600160a01b03610174610bdd565b61017c611056565b1680156101d3576001600160a01b036005548273ffffffffffffffffffffffffffffffffffffffff19821617600555167f8be0079c531659141344cd1fd0a4f28419497f9722a3daafe3b4186f6b6457e0600080a3005b608460405162461bcd60e51b815260206004820152602660248201527f4f776e61626c653a206e6577206f776e657220697320746865207a65726f206160448201527f64647265737300000000000000000000000000000000000000000000000000006064820152fd5b3461014e57600036600319011261014e5733600052600660205261027461026c60406000205460075490610c09565b421015610c2c565b336000526006602052426040600020556402540be4006102948133610def565b6040519081527f1c5347d1e37925b93058518c26d7daabe45f0a3227e8d058aaf3682960eb2b9460203392a2005b3461014e57604036600319011261014e576102db610bdd565b6001600160a01b036102eb610bf3565b911660005260016020526001600160a01b03604060002091166000526020526020604060002054604051908152f35b3461014e57604036600319011261014e57610340610336610bdd565b6024359033610e91565b602060405160018152f35b3461014e57604036600319011261014e57610364610bdd565b6024359033600052600160205260406000206001600160a01b038216600052602052604060002054918083106103a05761034092039033610cb5565b608460405162461bcd60e51b815260206004820152602560248201527f45524332303a2064656372656173656420616c6c6f77616e63652062656c6f7760448201527f207a65726f0000000000000000000000000000000000000000000000000000006064820152fd5b3461014e57600036600319011261014e5760405160006004548060011c90600181168015610521575b60208310811461050d578285529081156104f1575060011461049a575b50819003601f01601f191681019067ffffffffffffffff8211818310176104845761048082918260405282610b94565b0390f35b634e487b7160e01b600052604160045260246000fd5b905060046000527f8a35acfbc15ff81a39ae7d344fd709f28e8600b4aa8c65c6b64bfe7fe36bd19b6000905b8282106104db57506020915082010182610450565b60018160209254838588010152019101906104c6565b90506020925060ff191682840152151560051b82010182610450565b602484634e487b7160e01b81526022600452fd5b91607f1691610433565b3461014e57602036600319011261014e577fc49d45d71bf3fd6dfd80cb1d2e6f93faad9e5684754d6b573fda7f694ea56aa2602060043561056a611056565b80600755604051908152a1005b3461014e57600036600319011261014e5760206001600160a01b0360055416604051908152f35b3461014e57600036600319011261014e576020600754604051908152f35b3461014e57602036600319011261014e576001600160a01b036105dd610bdd565b1660005260066020526020604060002054604051908152f35b3461014e57602036600319011261014e576001600160a01b03610617610bdd565b166000526006602052602061063460406000205460075490610c09565b421015604051908152f35b3461014e57600036600319011261014e57610658611056565b60006001600160a01b0360055473ffffffffffffffffffffffffffffffffffffffff198116600555167f8be0079c531659141344cd1fd0a4f28419497f9722a3daafe3b4186f6b6457e08280a3005b3461014e57602036600319011261014e576001600160a01b036106c8610bdd565b1660005260006020526020604060002054604051908152f35b3461014e57602036600319011261014e5760043533156107c3573360005260006020526040600020549080821061075957806000923384528360205203604083205580600254036002556040519081527fddf252ad1be2c89b69c2b068fc378daa952ba7f163c4a11628f55a4df523b3ef60203392a3005b608460405162461bcd60e51b815260206004820152602260248201527f45524332303a206275726e20616d6f756e7420657863656564732062616c616e60448201527f63650000000000000000000000000000000000000000000000000000000000006064820152fd5b608460405162461bcd60e51b815260206004820152602160248201527f45524332303a206275726e2066726f6d20746865207a65726f2061646472657360448201527f73000000000000000000000000000000000000000000000000000000000000006064820152fd5b3461014e57602036600319011261014e57602061085061084b610bdd565b610c77565b604051908152f35b3461014e57604036600319011261014e5761014c610874610bdd565b61087c611056565b60243590610def565b3461014e57604036600319011261014e576103406108a1610bdd565b33600052600160205260406000206001600160a01b0382166000526020526108d160406000206024359054610c09565b9033610cb5565b3461014e57600036600319011261014e57602060405160068152f35b3461014e57606036600319011261014e5761090d610bdd565b610915610bf3565b604435906001600160a01b038316600052600160205260406000206001600160a01b03331660005260205260406000205492600019840361095b575b6103409350610e91565b828410610977576109728361034095033383610cb5565b610951565b606460405162461bcd60e51b815260206004820152601d60248201527f45524332303a20696e73756666696369656e7420616c6c6f77616e63650000006044820152fd5b3461014e57600036600319011261014e576020600254604051908152f35b3461014e57602036600319011261014e576004356402540be4008111610a3157336000526006602052610a1761026c60406000205460075490610c09565b336000526006602052426040600020556102948133610def565b608460405162461bcd60e51b815260206004820152602560248201527f4d6f636b555344543a20416d6f756e742065786365656473206661756365742060448201527f6c696d69740000000000000000000000000000000000000000000000000000006064820152fd5b3461014e57604036600319011261014e57610340610ab7610bdd565b6024359033610cb5565b3461014e57600036600319011261014e5760006003548060011c90600181168015610b8a575b60208310811461050d578285529081156104f15750600114610b335750819003601f01601f191681019067ffffffffffffffff8211818310176104845761048082918260405282610b94565b905060036000527fc2575a0e9e593c00f959f8c92f12db2869c3395a3b0502d05e2516446f71f85b6000905b828210610b7457506020915082010182610450565b6001816020925483858801015201910190610b5f565b91607f1691610ae7565b91909160208152825180602083015260005b818110610bc7575060409293506000838284010152601f8019910116010190565b8060208092870101516040828601015201610ba6565b600435906001600160a01b038216820361014e57565b602435906001600160a01b038216820361014e57565b91908201809211610c1657565b634e487b7160e01b600052601160045260246000fd5b15610c3357565b606460405162461bcd60e51b815260206004820152602060248201527f4d6f636b555344543a2046617563657420636f6f6c646f776e206163746976656044820152fd5b6001600160a01b03166000526006602052610c9a60406000205460075490610c09565b80421015610caf57428103908111610c165790565b50600090565b6001600160a01b0316908115610d86576001600160a01b0316918215610d1c5760207f8c5be1e5ebec7d5bd14f71427d1e84f3dd0314c0f7b2291e5b200ac8c7c3b925918360005260018252604060002085600052825280604060002055604051908152a3565b608460405162461bcd60e51b815260206004820152602260248201527f45524332303a20617070726f766520746f20746865207a65726f20616464726560448201527f73730000000000000000000000000000000000000000000000000000000000006064820152fd5b608460405162461bcd60e51b8152602060048201526024808201527f45524332303a20617070726f76652066726f6d20746865207a65726f2061646460448201527f72657373000000000000000000000000000000000000000000000000000000006064820152fd5b6001600160a01b0316908115610e4d577fddf252ad1be2c89b69c2b068fc378daa952ba7f163c4a11628f55a4df523b3ef602082610e31600094600254610c09565b60025584845283825260408420818154019055604051908152a3565b606460405162461bcd60e51b815260206004820152601f60248201527f45524332303a206d696e7420746f20746865207a65726f2061646472657373006044820152fd5b6001600160a01b0316908115610fec576001600160a01b0316918215610f8257816000526000602052604060002054818110610f1857817fddf252ad1be2c89b69c2b068fc378daa952ba7f163c4a11628f55a4df523b3ef9260209285600052600084520360406000205584600052600082526040600020818154019055604051908152a3565b608460405162461bcd60e51b815260206004820152602660248201527f45524332303a207472616e7366657220616d6f756e742065786365656473206260448201527f616c616e636500000000000000000000000000000000000000000000000000006064820152fd5b608460405162461bcd60e51b815260206004820152602360248201527f45524332303a207472616e7366657220746f20746865207a65726f206164647260448201527f65737300000000000000000000000000000000000000000000000000000000006064820152fd5b608460405162461bcd60e51b815260206004820152602560248201527f45524332303a207472616e736665722066726f6d20746865207a65726f20616460448201527f64726573730000000000000000000000000000000000000000000000000000006064820152fd5b6001600160a01b0360055416330361106a57565b606460405162461bcd60e51b815260206004820152602060248201527f4f776e61626c653a2063616c6c6572206973206e6f7420746865206f776e65726044820152fdfea26469706673582212209ebfd755282159e73dc362d7144873a7cd597b105b75e5f26f3ddb559930b8b864736f6c634300081c0033",
  "linkReferences": {},
  "deployedLinkReferences": {}
}