{
  "_format": "hh-sol-artifact-1",
  "contractName": "MockWETH",
  "sourceName": "contracts/mocks/MockWETH.sol",
  "abi": [
    {
      "inputs": [],
      "stateMutability": "nonpayable",
      "type": "constructor"
    },
    {
      "anonymous": false,
      "inputs": [
        {
          "indexed": true,
          "internalType": "address",
          "name": "owner",
          "type": "address"
        },
        {
          "indexed": true,
          "internalType": "address",
          "name": "spender",
          "type": "address"
        },
        {
          "indexed": false,
          "internalType": "uint256",
          "name": "value",
          "type": "uint256"
        }
      ],
      "name": "Approval",
      "type": "event"
    },
    {
      "anonymous": false,
      "inputs": [
        {
          "indexed": true,
          "internalType": "address",
          "name": "dst",
          "type": "address"
        },
        {
          "indexed": false,
          "internalType": "uint256",
          "name": "wad",
          "type": "uint256"
        }
      ],
      "name": "Deposit",
      "type": "event"
    },
    {
      "anonymous": false,
      "inputs": [
        {
          "indexed": true,
          "internalType": "address",
          "name": "to",
          "type": "address"
        },
        {
          "indexed": false,
          "internalType": "uint256",
          "name": "amount",
          "type": "uint256"
        }
      ],
      "name": "Faucet",
      "type": "event"
    },
    {
      "anonymous": false,
      "inputs": [
        {
          "indexed": true,
          "internalType": "address",
          "name": "previousOwner",
          "type": "address"
        },
        {
          "indexed": true,
          "internalType": "address",
          "name": "newOwner",
          "type": "address"
        }
      ],
      "name": "OwnershipTransferred",
      "type": "event"
    },
    {
      "anonymous": false,
      "inputs": [
        {
          "indexed": true,
          "internalType": "address",
          "name": "from",
          "type": "address"
        },
        {
          "indexed": true,
          "internalType": "address",
          "name": "to",
          "type": "address"
        },
        {
          "indexed": false,
          "internalType": "uint256",
          "name": "value",
          "type": "uint256"
        }
      ],
      "name": "Transfer",
      "type": "event"
    },
    {
      "anonymous": false,
      "inputs": [
        {
          "indexed": true,
          "internalType": "address",
          "name": "src",
          "type": "address"
        },
        {
          "indexed": false,
          "internalType": "uint256",
          "name": "wad",
          "type": "uint256"
        }
      ],
      "name": "Withdrawal",
      "type": "event"
    },
    {
      "inputs": [],
      "name": "addETH",
      "outputs": [],
      "stateMutability": "payable",
      "type": "function"
    },
    {
      "inputs": [
        {
          "internalType": "address",
          "name": "owner",
          "type": "address"
        },
        {
          "internalType": "address",
          "name": "spender",
          "type": "address"
        }
      ],
      "name": "allowance",
      "outputs": [
        {
          "internalType": "uint256",
          "name": "",
          "type": "uint256"
        }
      ],
      "stateMutability": "view",
      "type": "function"
    },
    {
      "inputs": [
        {
          "internalType": "address",
          "name": "spender",
          "type": "address"
        },
        {
          "internalType": "uint256",
          "name": "amount",
          "type": "uint256"
        }
      ],
      "name": "approve",
      "outputs": [
        {
          "internalType": "bool",
          "name": "",
          "type": "bool"
        }
      ],
      "stateMutability": "nonpayable",
      "type": "function"
    },
    {
      "inputs": [
        {
          "internalType": "address",
          "name": "account",
          "type": "address"
        }
      ],
      "name": "balanceOf",
      "outputs": [
        {
          "internalType": "uint256",
          "name": "",
          "type": "uint256"
        }
      ],
      "stateMutability": "view",
      "type": "function"
    },
    {
      "inputs": [
        {
          "internalType": "uint256",
          "name": "amount",
          "type": "uint256"
        }
      ],
      "name": "burn",
      "outputs": [],
      "stateMutability": "nonpayable",
      "type": "function"
    },
    {
      "inputs": [
        {
          "internalType": "address",
          "name": "user",
          "type": "address"
        }
      ],
      "name": "canUseFaucet",
      "outputs": [
        {
          "internalType": "bool",
          "name": "ready",
          "type": "bool"
        }
      ],
      "stateMutability": "view",
      "type": "function"
    },
    {
      "inputs": [],
      "name": "decimals",
      "outputs": [
        {
          "internalType": "uint8",
          "name": "",
          "type": "uint8"
        }
      ],
      "stateMutability": "view",
      "type": "function"
    },
    {
      "inputs": [
        {
          "internalType": "address",
          "name": "spender",
          "type": "address"
        },
        {
          "internalType": "uint256",
          "name": "subtractedValue",
          "type": "uint256"
        }
      ],
      "name": "decreaseAllowance",
      "outputs": [
        {
          "internalType": "bool",
          "name": "",
          "type": "bool"
        }
      ],
      "stateMutability": "nonpayable",
      "type": "function"
    },
    {
      "inputs": [],
      "name": "deposit",
      "outputs": [],
      "stateMutability": "payable",
      "type": "function"
    },
    {
      "inputs": [],
      "name": "faucet",
      "outputs": [],
      "stateMutability": "nonpayable",
      "type": "function"
    },
    {
      "inputs": [],
      "name": "faucetCooldown",
      "outputs": [
        {
          "internalType": "uint256",
          "name": "",
          "type": "uint256"
        }
      ],
      "stateMutability": "view",
      "type": "function"
    },
    {
      "inputs": [
        {
          "internalType": "uint256",
          "name": "amount",
          "type": "uint256"
        }
      ],
      "name": "faucetWithAmount",
      "outputs": [],
      "stateMutability": "nonpayable",
      "type": "function"
    },
    {
      "inputs": [
        {
          "internalType": "address",
          "name": "user",
          "type": "address"
        }
      ],
      "name": "getFaucetTimeLeft",
      "outputs": [
        {
          "internalType": "uint256",
          "name": "timeLeft",
          "type": "uint256"
        }
      ],
      "stateMutability": "view",
      "type": "function"
    },
    {
      "inputs": [
        {
          "internalType": "address",
          "name": "spender",
          "type": "address"
        },
        {
          "internalType": "uint256",
          "name": "addedValue",
          "type": "uint256"
        }
      ],
      "name": "increaseAllowance",
      "outputs": [
        {
          "internalType": "bool",
          "name": "",
          "type": "bool"
        }
      ],
      "stateMutability": "nonpayable",
      "type": "function"
    },
    {
      "inputs": [
        {
          "internalType": "address",
          "name": "",
          "type": "address"
        }
      ],
      "name": "lastFaucetTime",
      "outputs": [
        {
          "internalType": "uint256",
          "name": "",
          "type": "uint256"
        }
      ],
      "stateMutability": "view",
      "type": "function"
    },
    {
      "inputs": [
        {
          "internalType": "address",
          "name": "to",
          "type": "address"
        },
        {
          "internalType": "uint256",
          "name": "amount",
          "type": "uint256"
        }
      ],
      "name": "mint",
      "outputs": [],
      "stateMutability": "nonpayable",
      "type": "function"
    },
    {
      "inputs": [],
      "name": "name",
      "outputs": [
        {
          "internalType": "string",
          "name": "",
          "type": "string"
        }
      ],
      "stateMutability": "view",
      "type": "function"
    },
    {
      "inputs": [],
      "name": "owner",
      "outputs": [
        {
          "internalType": "address",
          "name": "",
          "type": "address"
        }
      ],
      "stateMutability": "view",
      "type": "function"
    },
    {
      "inputs": [],
      "name": "renounceOwnership",
      "outputs": [],
      "stateMutability": "nonpayable",
      "type": "function"
    },
    {
      "inputs": [
        {
          "internalType": "uint256",
          "name": "newCooldown",
          "type": "uint256"
        }
      ],
      "name": "setFaucetCooldown",
      "outputs": [],
      "stateMutability": "nonpayable",
      "type": "function"
    },
    {
      "inputs": [],
      "name": "symbol",
      "outputs": [
        {
          "internalType": "string",
          "name": "",
          "type": "string"
        }
      ],
      "stateMutability": "view",
      "type": "function"
    },
    {
      "inputs": [],
      "name": "totalSupply",
      "outputs": [
        {
          "internalType": "uint256",
          "name": "",
          "type": "uint256"
        }
      ],
      "stateMutability": "view",
      "type": "function"
    },
    {
      "inputs": [
        {
          "internalType": "address",
          "name": "to",
          "type": "address"
        },
        {
          "internalType": "uint256",
          "name": "amount",
          "type": "uint256"
        }
      ],
      "name": "transfer",
      "outputs": [
        {
          "internalType": "bool",
          "name": "",
          "type": "bool"
        }
      ],
      "stateMutability": "nonpayable",
      "type": "function"
    },
    {
      "inputs": [
        {
          "internalType": "address",
          "name": "from",
          "type": "address"
        },
        {
          "internalType": "address",
          "name": "to",
          "type": "address"
        },
        {
          "internalType": "uint256",
          "name": "amount",
          "type": "uint256"
        }
      ],
      "name": "transferFrom",
      "outputs": [
        {
          "internalType": "bool",
          "name": "",
          "type": "bool"
        }
      ],
      "stateMutability": "nonpayable",
      "type": "function"
    },
    {
      "inputs": [
        {
          "internalType": "address",
          "name": "newOwner",
          "type": "address"
        }
      ],
      "name": "transferOwnership",
      "outputs": [],
      "stateMutability": "nonpayable",
      "type": "function"
    },
    {
      "inputs": [
        {
          "internalType": "uint256",
          "name": "amount",
          "type": "uint256"
        }
      ],
      "name": "withdraw",
      "outputs": [],
      "stateMutability": "nonpayable",
      "type": "function"
    },
    {
      "inputs": [
        {
          "internalType": "uint256",
          "name": "amount",
          "type": "uint256"
        }
      ],
      "name": "withdrawETH",
      "outputs": [],
      "stateMutability": "nonpayable",
      "type": "function"
    },
    {
      "stateMutability": "payable",
      "type": "receive"
    }
  ],
  "bytecode": "0x60806040523461041a57604080519081016001600160401b03811182821017610325576040908152601282527126b7b1b5902bb930b83832b21022ba3432b960711b602083015280519081016001600160401b038111828210176103255760405260048152630ae8aa8960e31b602082015281516001600160401b03811161032557600354600181811c91168015610410575b602082101461030557601f81116103ab575b50602092601f8211600114610346579281929360009261033b575b50508160011b916000199060031b1c1916176003555b80516001600160401b03811161032557600454600181811c9116801561031b575b602082101461030557601f81116102a0575b50602091601f821160011461023c57918192600092610231575b50508160011b916000199060031b1c1916176004555b6101413361041f565b620151806007556101513361041f565b33156101ec5760025469152d02c7e14af680000081018091116101d657600255336000526000602052604060002069152d02c7e14af6800000815401905560405169152d02c7e14af6800000815260007fddf252ad1be2c89b69c2b068fc378daa952ba7f163c4a11628f55a4df523b3ef60203393a360405161129790816104698239f35b634e487b7160e01b600052601160045260246000fd5b60405162461bcd60e51b815260206004820152601f60248201527f45524332303a206d696e7420746f20746865207a65726f2061646472657373006044820152606490fd5b015190503880610122565b601f198216926004600052806000209160005b8581106102885750836001951061026f575b505050811b01600455610138565b015160001960f88460031b161c19169055388080610261565b9192602060018192868501518155019401920161024f565b60046000527f8a35acfbc15ff81a39ae7d344fd709f28e8600b4aa8c65c6b64bfe7fe36bd19b601f830160051c810191602084106102fb575b601f0160051c01905b8181106102ef5750610108565b600081556001016102e2565b90915081906102d9565b634e487b7160e01b600052602260045260246000fd5b90607f16906100f6565b634e487b7160e01b600052604160045260246000fd5b0151905038806100bf565b601f198216936003600052806000209160005b868110610393575083600195961061037a575b505050811b016003556100d5565b015160001960f88460031b161c1916905538808061036c565b91926020600181928685015181550194019201610359565b60036000527fc2575a0e9e593c00f959f8c92f12db2869c3395a3b0502d05e2516446f71f85b601f830160051c81019160208410610406575b601f0160051c01905b8181106103fa57506100a4565b600081556001016103ed565b90915081906103e4565b90607f1690610092565b600080fd5b600580546001600160a01b039283166001600160a01b0319821681179092559091167f8be0079c531659141344cd1fd0a4f28419497f9722a3daafe3b4186f6b6457e0600080a356fe6080806040526004361015610025575b50361561001b57600080fd5b610023610cf1565b005b60003560e01c90816306fdde0314610afd57508063095ea7b314610ad75780631624ca8e14610a1257806318160ddd146109f457806323b872dd1461092d5780632e1a7d4d14610866578063313ce5671461084a57806339509351146107f757806340c10f19146107ca578063428283891461079f57806342966c681461078257806370a0823114610748578063715018a6146106e0578063780768fc146106975780637bc1f6cc1461065d5780637e36320b1461063f5780638da5cb5b1461061857806391359204146105f757806395d89b41146104d6578063a457c2d714610417578063a9059cbb146103e6578063d0e30db0146103d2578063dad6dab3146103be578063dd62ed3e14610366578063de5f72fd146102de578063f14210a61461024a5763f2fde38b1461015b573861000f565b34610245576020366003190112610245576001600160a01b0361017c610c19565b610184611209565b1680156101db576001600160a01b036005548273ffffffffffffffffffffffffffffffffffffffff19821617600555167f8be0079c531659141344cd1fd0a4f28419497f9722a3daafe3b4186f6b6457e0600080a3005b608460405162461bcd60e51b815260206004820152602660248201527f4f776e61626c653a206e6577206f776e657220697320746865207a65726f206160448201527f64647265737300000000000000000000000000000000000000000000000000006064820152fd5b600080fd5b3461024557602036600319011261024557600435610266611209565b80471061029a57600080808093818115610291575b3390f11561028557005b6040513d6000823e3d90fd5b506108fc61027b565b606460405162461bcd60e51b815260206004820152601860248201527f496e73756666696369656e74204554482062616c616e636500000000000000006044820152fd5b346102455760003660031901126102455733600052600660205261031561030d60406000205460075490610c45565b421015610c68565b33600052600660205242604060002055678ac7230489e800006103388133610e63565b6040519081527f1c5347d1e37925b93058518c26d7daabe45f0a3227e8d058aaf3682960eb2b9460203392a2005b346102455760403660031901126102455761037f610c19565b6001600160a01b0361038f610c2f565b911660005260016020526001600160a01b03604060002091166000526020526020604060002054604051908152f35b600036600319011261024557610023611209565b600036600319011261024557610023610cf1565b346102455760403660031901126102455761040c610402610c19565b6024359033610f05565b602060405160018152f35b3461024557604036600319011261024557610430610c19565b6024359033600052600160205260406000206001600160a01b0382166000526020526040600020549180831061046c5761040c92039033610d29565b608460405162461bcd60e51b815260206004820152602560248201527f45524332303a2064656372656173656420616c6c6f77616e63652062656c6f7760448201527f207a65726f0000000000000000000000000000000000000000000000000000006064820152fd5b346102455760003660031901126102455760405160006004548060011c906001811680156105ed575b6020831081146105d9578285529081156105bd5750600114610566575b50819003601f01601f191681019067ffffffffffffffff8211818310176105505761054c82918260405282610bd0565b0390f35b634e487b7160e01b600052604160045260246000fd5b905060046000527f8a35acfbc15ff81a39ae7d344fd709f28e8600b4aa8c65c6b64bfe7fe36bd19b6000905b8282106105a75750602091508201018261051c565b6001816020925483858801015201910190610592565b90506020925060ff191682840152151560051b8201018261051c565b602484634e487b7160e01b81526022600452fd5b91607f16916104ff565b3461024557602036600319011261024557610610611209565b600435600755005b346102455760003660031901126102455760206001600160a01b0360055416604051908152f35b34610245576000366003190112610245576020600754604051908152f35b34610245576020366003190112610245576001600160a01b0361067e610c19565b1660005260066020526020604060002054604051908152f35b34610245576020366003190112610245576001600160a01b036106b8610c19565b16600052600660205260206106d560406000205460075490610c45565b421015604051908152f35b34610245576000366003190112610245576106f9611209565b60006001600160a01b0360055473ffffffffffffffffffffffffffffffffffffffff198116600555167f8be0079c531659141344cd1fd0a4f28419497f9722a3daafe3b4186f6b6457e08280a3005b34610245576020366003190112610245576001600160a01b03610769610c19565b1660005260006020526020604060002054604051908152f35b3461024557602036600319011261024557610023600435336110ca565b346102455760203660031901126102455760206107c26107bd610c19565b610cb3565b604051908152f35b34610245576040366003190112610245576100236107e6610c19565b6107ee611209565b60243590610e63565b346102455760403660031901126102455761040c610813610c19565b33600052600160205260406000206001600160a01b03821660005260205261084360406000206024359054610c45565b9033610d29565b3461024557600036600319011261024557602060405160128152f35b346102455760203660031901126102455760043533600052600060205280604060002054106108e95761089981336110ca565b80600081156108e0575b600080809381933390f115610285576040519081527f7fcf532c15f0a6db0bd6d0e038bea71d30d808c7d98cb3bf7268a95bf5081b6560203392a2005b506108fc6108a3565b606460405162461bcd60e51b815260206004820152601e60248201527f4d6f636b574554483a20496e73756666696369656e742062616c616e636500006044820152fd5b3461024557606036600319011261024557610946610c19565b61094e610c2f565b604435906001600160a01b038316600052600160205260406000206001600160a01b033316600052602052604060002054926000198403610994575b61040c9350610f05565b8284106109b0576109ab8361040c95033383610d29565b61098a565b606460405162461bcd60e51b815260206004820152601d60248201527f45524332303a20696e73756666696369656e7420616c6c6f77616e63650000006044820152fd5b34610245576000366003190112610245576020600254604051908152f35b3461024557602036600319011261024557600435678ac7230489e800008111610a6d57336000526006602052610a5361030d60406000205460075490610c45565b336000526006602052426040600020556103388133610e63565b608460405162461bcd60e51b815260206004820152602560248201527f4d6f636b574554483a20416d6f756e742065786365656473206661756365742060448201527f6c696d69740000000000000000000000000000000000000000000000000000006064820152fd5b346102455760403660031901126102455761040c610af3610c19565b6024359033610d29565b346102455760003660031901126102455760006003548060011c90600181168015610bc6575b6020831081146105d9578285529081156105bd5750600114610b6f5750819003601f01601f191681019067ffffffffffffffff8211818310176105505761054c82918260405282610bd0565b905060036000527fc2575a0e9e593c00f959f8c92f12db2869c3395a3b0502d05e2516446f71f85b6000905b828210610bb05750602091508201018261051c565b6001816020925483858801015201910190610b9b565b91607f1691610b23565b91909160208152825180602083015260005b818110610c03575060409293506000838284010152601f8019910116010190565b8060208092870101516040828601015201610be2565b600435906001600160a01b038216820361024557565b602435906001600160a01b038216820361024557565b91908201809211610c5257565b634e487b7160e01b600052601160045260246000fd5b15610c6f57565b606460405162461bcd60e51b815260206004820152602060248201527f4d6f636b574554483a2046617563657420636f6f6c646f776e206163746976656044820152fd5b6001600160a01b03166000526006602052610cd660406000205460075490610c45565b80421015610ceb57428103908111610c525790565b50600090565b610cfb3433610e63565b6040513481527fe1fffcc4923d04b559f4d29a8bfc6cda04eb5b0d3c460751c2402c5c5cc9109c60203392a2565b6001600160a01b0316908115610dfa576001600160a01b0316918215610d905760207f8c5be1e5ebec7d5bd14f71427d1e84f3dd0314c0f7b2291e5b200ac8c7c3b925918360005260018252604060002085600052825280604060002055604051908152a3565b608460405162461bcd60e51b815260206004820152602260248201527f45524332303a20617070726f766520746f20746865207a65726f20616464726560448201527f73730000000000000000000000000000000000000000000000000000000000006064820152fd5b608460405162461bcd60e51b8152602060048201526024808201527f45524332303a20617070726f76652066726f6d20746865207a65726f2061646460448201527f72657373000000000000000000000000000000000000000000000000000000006064820152fd5b6001600160a01b0316908115610ec1577fddf252ad1be2c89b69c2b068fc378daa952ba7f163c4a11628f55a4df523b3ef602082610ea5600094600254610c45565b60025584845283825260408420818154019055604051908152a3565b606460405162461bcd60e51b815260206004820152601f60248201527f45524332303a206d696e7420746f20746865207a65726f2061646472657373006044820152fd5b6001600160a01b0316908115611060576001600160a01b0316918215610ff657816000526000602052604060002054818110610f8c57817fddf252ad1be2c89b69c2b068fc378daa952ba7f163c4a11628f55a4df523b3ef9260209285600052600084520360406000205584600052600082526040600020818154019055604051908152a3565b608460405162461bcd60e51b815260206004820152602660248201527f45524332303a207472616e7366657220616d6f756e742065786365656473206260448201527f616c616e636500000000000000000000000000000000000000000000000000006064820152fd5b608460405162461bcd60e51b815260206004820152602360248201527f45524332303a207472616e7366657220746f20746865207a65726f206164647260448201527f65737300000000000000000000000000000000000000000000000000000000006064820152fd5b608460405162461bcd60e51b815260206004820152602560248201527f45524332303a207472616e736665722066726f6d20746865207a65726f20616460448201527f64726573730000000000000000000000000000000000000000000000000000006064820152fd5b6001600160a01b0316801561119f5780600052600060205260406000205491808310611135576020817fddf252ad1be2c89b69c2b068fc378daa952ba7f163c4a11628f55a4df523b3ef926000958587528684520360408620558060025403600255604051908152a3565b608460405162461bcd60e51b815260206004820152602260248201527f45524332303a206275726e20616d6f756e7420657863656564732062616c616e60448201527f63650000000000000000000000000000000000000000000000000000000000006064820152fd5b608460405162461bcd60e51b815260206004820152602160248201527f45524332303a206275726e2066726f6d20746865207a65726f2061646472657360448201527f73000000000000000000000000000000000000000000000000000000000000006064820152fd5b6001600160a01b0360055416330361121d57565b606460405162461bcd60e51b815260206004820152602060248201527f4f776e61626c653a2063616c6c6572206973206e6f7420746865206f776e65726044820152fdfea264697066735822122092e2e17fad7fb63f220b43509f02f3478c798f4f7675b00fccd5894ee7795c6464736f6c634300081c0033",
  "linkReferences": {},
  "deployedLinkReferences": {}
}