{
  "_format": "hh-sol-artifact-1",
  "contractName": "MockUSDC",
  "sourceName": "contracts/mocks/MockUSDC.sol",
  "abi": [
    {
      "inputs": [],
      "stateMutability": "nonpayable",
      "type": "constructor"
    },
    {
      "anonymous": false,
      "inputs": [
        {
          "indexed": true,
          "internalType": "address",
          "name": "owner",
          "type": "address"
        },
        {
          "indexed": true,
          "internalType": "address",
          "name": "spender",
          "type": "address"
        },
        {
          "indexed": false,
          "internalType": "uint256",
          "name": "value",
          "type": "uint256"
        }
      ],
      "name": "Approval",
      "type": "event"
    },
    {
      "anonymous": false,
      "inputs": [
        {
          "indexed": true,
          "internalType": "address",
          "name": "to",
          "type": "address"
        },
        {
          "indexed": false,
          "internalType": "uint256",
          "name": "amount",
          "type": "uint256"
        }
      ],
      "name": "Faucet",
      "type": "event"
    },
    {
      "anonymous": false,
      "inputs": [
        {
          "indexed": false,
          "internalType": "uint256",
          "name": "newCooldown",
          "type": "uint256"
        }
      ],
      "name": "FaucetCooldownUpdated",
      "type": "event"
    },
    {
      "anonymous": false,
      "inputs": [
        {
          "indexed": true,
          "internalType": "address",
          "name": "previousOwner",
          "type": "address"
        },
        {
          "indexed": true,
          "internalType": "address",
          "name": "newOwner",
          "type": "address"
        }
      ],
      "name": "OwnershipTransferred",
      "type": "event"
    },
    {
      "anonymous": false,
      "inputs": [
        {
          "indexed": true,
          "internalType": "address",
          "name": "from",
          "type": "address"
        },
        {
          "indexed": true,
          "internalType": "address",
          "name": "to",
          "type": "address"
        },
        {
          "indexed": false,
          "internalType": "uint256",
          "name": "value",
          "type": "uint256"
        }
      ],
      "name": "Transfer",
      "type": "event"
    },
    {
      "inputs": [
        {
          "internalType": "address",
          "name": "owner",
          "type": "address"
        },
        {
          "internalType": "address",
          "name": "spender",
          "type": "address"
        }
      ],
      "name": "allowance",
      "outputs": [
        {
          "internalType": "uint256",
          "name": "",
          "type": "uint256"
        }
      ],
      "stateMutability": "view",
      "type": "function"
    },
    {
      "inputs": [
        {
          "internalType": "address",
          "name": "spender",
          "type": "address"
        },
        {
          "internalType": "uint256",
          "name": "amount",
          "type": "uint256"
        }
      ],
      "name": "approve",
      "outputs": [
        {
          "internalType": "bool",
          "name": "",
          "type": "bool"
        }
      ],
      "stateMutability": "nonpayable",
      "type": "function"
    },
    {
      "inputs": [
        {
          "internalType": "address",
          "name": "account",
          "type": "address"
        }
      ],
      "name": "balanceOf",
      "outputs": [
        {
          "internalType": "uint256",
          "name": "",
          "type": "uint256"
        }
      ],
      "stateMutability": "view",
      "type": "function"
    },
    {
      "inputs": [
        {
          "internalType": "address[]",
          "name": "recipients",
          "type": "address[]"
        },
        {
          "internalType": "uint256[]",
          "name": "amounts",
          "type": "uint256[]"
        }
      ],
      "name": "batchMint",
      "outputs": [],
      "stateMutability": "nonpayable",
      "type": "function"
    },
    {
      "inputs": [
        {
          "internalType": "uint256",
          "name": "amount",
          "type": "uint256"
        }
      ],
      "name": "burn",
      "outputs": [],
      "stateMutability": "nonpayable",
      "type": "function"
    },
    {
      "inputs": [
        {
          "internalType": "address",
          "name": "user",
          "type": "address"
        }
      ],
      "name": "canUseFaucet",
      "outputs": [
        {
          "internalType": "bool",
          "name": "ready",
          "type": "bool"
        }
      ],
      "stateMutability": "view",
      "type": "function"
    },
    {
      "inputs": [],
      "name": "decimals",
      "outputs": [
        {
          "internalType": "uint8",
          "name": "",
          "type": "uint8"
        }
      ],
      "stateMutability": "pure",
      "type": "function"
    },
    {
      "inputs": [
        {
          "internalType": "address",
          "name": "spender",
          "type": "address"
        },
        {
          "internalType": "uint256",
          "name": "subtractedValue",
          "type": "uint256"
        }
      ],
      "name": "decreaseAllowance",
      "outputs": [
        {
          "internalType": "bool",
          "name": "",
          "type": "bool"
        }
      ],
      "stateMutability": "nonpayable",
      "type": "function"
    },
    {
      "inputs": [
        {
          "internalType": "uint256",
          "name": "amount",
          "type": "uint256"
        }
      ],
      "name": "emergencyMint",
      "outputs": [],
      "stateMutability": "nonpayable",
      "type": "function"
    },
    {
      "inputs": [],
      "name": "faucet",
      "outputs": [],
      "stateMutability": "nonpayable",
      "type": "function"
    },
    {
      "inputs": [],
      "name": "faucetCooldown",
      "outputs": [
        {
          "internalType": "uint256",
          "name": "",
          "type": "uint256"
        }
      ],
      "stateMutability": "view",
      "type": "function"
    },
    {
      "inputs": [
        {
          "internalType": "uint256",
          "name": "amount",
          "type": "uint256"
        }
      ],
      "name": "faucetWithAmount",
      "outputs": [],
      "stateMutability": "nonpayable",
      "type": "function"
    },
    {
      "inputs": [
        {
          "internalType": "address",
          "name": "user",
          "type": "address"
        }
      ],
      "name": "getFaucetTimeLeft",
      "outputs": [
        {
          "internalType": "uint256",
          "name": "timeLeft",
          "type": "uint256"
        }
      ],
      "stateMutability": "view",
      "type": "function"
    },
    {
      "inputs": [
        {
          "internalType": "address",
          "name": "spender",
          "type": "address"
        },
        {
          "internalType": "uint256",
          "name": "addedValue",
          "type": "uint256"
        }
      ],
      "name": "increaseAllowance",
      "outputs": [
        {
          "internalType": "bool",
          "name": "",
          "type": "bool"
        }
      ],
      "stateMutability": "nonpayable",
      "type": "function"
    },
    {
      "inputs": [
        {
          "internalType": "address",
          "name": "",
          "type": "address"
        }
      ],
      "name": "lastFaucetTime",
      "outputs": [
        {
          "internalType": "uint256",
          "name": "",
          "type": "uint256"
        }
      ],
      "stateMutability": "view",
      "type": "function"
    },
    {
      "inputs": [
        {
          "internalType": "address",
          "name": "to",
          "type": "address"
        },
        {
          "internalType": "uint256",
          "name": "amount",
          "type": "uint256"
        }
      ],
      "name": "mint",
      "outputs": [],
      "stateMutability": "nonpayable",
      "type": "function"
    },
    {
      "inputs": [],
      "name": "name",
      "outputs": [
        {
          "internalType": "string",
          "name": "",
          "type": "string"
        }
      ],
      "stateMutability": "view",
      "type": "function"
    },
    {
      "inputs": [],
      "name": "owner",
      "outputs": [
        {
          "internalType": "address",
          "name": "",
          "type": "address"
        }
      ],
      "stateMutability": "view",
      "type": "function"
    },
    {
      "inputs": [],
      "name": "renounceOwnership",
      "outputs": [],
      "stateMutability": "nonpayable",
      "type": "function"
    },
    {
      "inputs": [
        {
          "internalType": "uint256",
          "name": "newCooldown",
          "type": "uint256"
        }
      ],
      "name": "setFaucetCooldown",
      "outputs": [],
      "stateMutability": "nonpayable",
      "type": "function"
    },
    {
      "inputs": [],
      "name": "symbol",
      "outputs": [
        {
          "internalType": "string",
          "name": "",
          "type": "string"
        }
      ],
      "stateMutability": "view",
      "type": "function"
    },
    {
      "inputs": [],
      "name": "totalSupply",
      "outputs": [
        {
          "internalType": "uint256",
          "name": "",
          "type": "uint256"
        }
      ],
      "stateMutability": "view",
      "type": "function"
    },
    {
      "inputs": [
        {
          "internalType": "address",
          "name": "to",
          "type": "address"
        },
        {
          "internalType": "uint256",
          "name": "amount",
          "type": "uint256"
        }
      ],
      "name": "transfer",
      "outputs": [
        {
          "internalType": "bool",
          "name": "",
          "type": "bool"
        }
      ],
      "stateMutability": "nonpayable",
      "type": "function"
    },
    {
      "inputs": [
        {
          "internalType": "address",
          "name": "from",
          "type": "address"
        },
        {
          "internalType": "address",
          "name": "to",
          "type": "address"
        },
        {
          "internalType": "uint256",
          "name": "amount",
          "type": "uint256"
        }
      ],
      "name": "transferFrom",
      "outputs": [
        {
          "internalType": "bool",
          "name": "",
          "type": "bool"
        }
      ],
      "stateMutability": "nonpayable",
      "type": "function"
    },
    {
      "inputs": [
        {
          "internalType": "address",
          "name": "newOwner",
          "type": "address"
        }
      ],
      "name": "transferOwnership",
      "outputs": [],
      "stateMutability": "nonpayable",
      "type": "function"
    }
  ],
  "bytecode": "0x60806040523461040c57604080519081016001600160401b03811182821017610317576040908152600d82526c26b7b1b5902aa9a21021b7b4b760991b602083015280519081016001600160401b038111828210176103175760405260048152635553444360e01b602082015281516001600160401b03811161031757600354600181811c91168015610402575b60208210146102f757601f811161039d575b50602092601f8211600114610338579281929360009261032d575b50508160011b916000199060031b1c1916176003555b80516001600160401b03811161031757600454600181811c9116801561030d575b60208210146102f757601f8111610292575b50602091601f821160011461022e57918192600092610223575b50508160011b916000199060031b1c1916176004555b61013c33610411565b6201518060075561014c33610411565b33156101de5760025466038d7ea4c6800081018091116101c857600255336000526000602052604060002066038d7ea4c68000815401905560405166038d7ea4c68000815260007fddf252ad1be2c89b69c2b068fc378daa952ba7f163c4a11628f55a4df523b3ef60203393a3604051611233908161045b8239f35b634e487b7160e01b600052601160045260246000fd5b60405162461bcd60e51b815260206004820152601f60248201527f45524332303a206d696e7420746f20746865207a65726f2061646472657373006044820152606490fd5b01519050388061011d565b601f198216926004600052806000209160005b85811061027a57508360019510610261575b505050811b01600455610133565b015160001960f88460031b161c19169055388080610253565b91926020600181928685015181550194019201610241565b60046000527f8a35acfbc15ff81a39ae7d344fd709f28e8600b4aa8c65c6b64bfe7fe36bd19b601f830160051c810191602084106102ed575b601f0160051c01905b8181106102e15750610103565b600081556001016102d4565b90915081906102cb565b634e487b7160e01b600052602260045260246000fd5b90607f16906100f1565b634e487b7160e01b600052604160045260246000fd5b0151905038806100ba565b601f198216936003600052806000209160005b868110610385575083600195961061036c575b505050811b016003556100d0565b015160001960f88460031b161c1916905538808061035e565b9192602060018192868501518155019401920161034b565b60036000527fc2575a0e9e593c00f959f8c92f12db2869c3395a3b0502d05e2516446f71f85b601f830160051c810191602084106103f8575b601f0160051c01905b8181106103ec575061009f565b600081556001016103df565b90915081906103d6565b90607f169061008d565b600080fd5b600580546001600160a01b039283166001600160a01b0319821681179092559091167f8be0079c531659141344cd1fd0a4f28419497f9722a3daafe3b4186f6b6457e0600080a356fe608080604052600436101561001357600080fd5b60003560e01c90816306fdde0314610bb957508063095ea7b314610b935780631624ca8e14610ad157806318160ddd14610ab357806323b872dd146109ec578063313ce567146109d0578063395093511461097d57806340c10f1914610950578063428283891461092557806342966c68146107d957806368573107146106ec57806370a08231146106b2578063715018a61461064a578063780768fc146106015780637bc1f6cc146105c75780637e36320b146105a95780638da5cb5b14610582578063913592041461053657806395d89b4114610415578063a457c2d714610356578063a9059cbb14610325578063dd62ed3e146102cd578063de5f72fd14610248578063f2fde38b1461015e5763ffcc66dc1461013257600080fd5b346101595760203660031901126101595761014b6111a5565b61015760043533610f3e565b005b600080fd5b34610159576020366003190112610159576001600160a01b0361017f610cd5565b6101876111a5565b1680156101de576001600160a01b036005548273ffffffffffffffffffffffffffffffffffffffff19821617600555167f8be0079c531659141344cd1fd0a4f28419497f9722a3daafe3b4186f6b6457e0600080a3005b608460405162461bcd60e51b815260206004820152602660248201527f4f776e61626c653a206e6577206f776e657220697320746865207a65726f206160448201527f64647265737300000000000000000000000000000000000000000000000000006064820152fd5b346101595760003660031901126101595733600052600660205261027f61027760406000205460075490610d32565b421015610d55565b336000526006602052426040600020556402540be40061029f8133610f3e565b6040519081527f1c5347d1e37925b93058518c26d7daabe45f0a3227e8d058aaf3682960eb2b9460203392a2005b34610159576040366003190112610159576102e6610cd5565b6001600160a01b036102f6610ceb565b911660005260016020526001600160a01b03604060002091166000526020526020604060002054604051908152f35b346101595760403660031901126101595761034b610341610cd5565b6024359033610fe0565b602060405160018152f35b346101595760403660031901126101595761036f610cd5565b6024359033600052600160205260406000206001600160a01b038216600052602052604060002054918083106103ab5761034b92039033610e04565b608460405162461bcd60e51b815260206004820152602560248201527f45524332303a2064656372656173656420616c6c6f77616e63652062656c6f7760448201527f207a65726f0000000000000000000000000000000000000000000000000000006064820152fd5b346101595760003660031901126101595760405160006004548060011c9060018116801561052c575b602083108114610518578285529081156104fc57506001146104a5575b50819003601f01601f191681019067ffffffffffffffff82118183101761048f5761048b82918260405282610c8c565b0390f35b634e487b7160e01b600052604160045260246000fd5b905060046000527f8a35acfbc15ff81a39ae7d344fd709f28e8600b4aa8c65c6b64bfe7fe36bd19b6000905b8282106104e65750602091508201018261045b565b60018160209254838588010152019101906104d1565b90506020925060ff191682840152151560051b8201018261045b565b602484634e487b7160e01b81526022600452fd5b91607f169161043e565b34610159576020366003190112610159577fc49d45d71bf3fd6dfd80cb1d2e6f93faad9e5684754d6b573fda7f694ea56aa260206004356105756111a5565b80600755604051908152a1005b346101595760003660031901126101595760206001600160a01b0360055416604051908152f35b34610159576000366003190112610159576020600754604051908152f35b34610159576020366003190112610159576001600160a01b036105e8610cd5565b1660005260066020526020604060002054604051908152f35b34610159576020366003190112610159576001600160a01b03610622610cd5565b166000526006602052602061063f60406000205460075490610d32565b421015604051908152f35b34610159576000366003190112610159576106636111a5565b60006001600160a01b0360055473ffffffffffffffffffffffffffffffffffffffff198116600555167f8be0079c531659141344cd1fd0a4f28419497f9722a3daafe3b4186f6b6457e08280a3005b34610159576020366003190112610159576001600160a01b036106d3610cd5565b1660005260006020526020604060002054604051908152f35b346101595760403660031901126101595760043567ffffffffffffffff81116101595761071d903690600401610d01565b9060243567ffffffffffffffff81116101595761073e903690600401610d01565b926107476111a5565b8381036107955760005b81811061075a57005b610765818386610dde565b35906001600160a01b03821682036101595761078f600192610788838988610dde565b3590610f3e565b01610751565b606460405162461bcd60e51b815260206004820152601560248201527f4172726179206c656e677468206d69736d6174636800000000000000000000006044820152fd5b346101595760203660031901126101595760043533156108bb573360005260006020526040600020549080821061085157806000923384528360205203604083205580600254036002556040519081527fddf252ad1be2c89b69c2b068fc378daa952ba7f163c4a11628f55a4df523b3ef60203392a3005b608460405162461bcd60e51b815260206004820152602260248201527f45524332303a206275726e20616d6f756e7420657863656564732062616c616e60448201527f63650000000000000000000000000000000000000000000000000000000000006064820152fd5b608460405162461bcd60e51b815260206004820152602160248201527f45524332303a206275726e2066726f6d20746865207a65726f2061646472657360448201527f73000000000000000000000000000000000000000000000000000000000000006064820152fd5b34610159576020366003190112610159576020610948610943610cd5565b610da0565b604051908152f35b346101595760403660031901126101595761015761096c610cd5565b6109746111a5565b60243590610f3e565b346101595760403660031901126101595761034b610999610cd5565b33600052600160205260406000206001600160a01b0382166000526020526109c960406000206024359054610d32565b9033610e04565b3461015957600036600319011261015957602060405160068152f35b3461015957606036600319011261015957610a05610cd5565b610a0d610ceb565b604435906001600160a01b038316600052600160205260406000206001600160a01b033316600052602052604060002054926000198403610a53575b61034b9350610fe0565b828410610a6f57610a6a8361034b95033383610e04565b610a49565b606460405162461bcd60e51b815260206004820152601d60248201527f45524332303a20696e73756666696369656e7420616c6c6f77616e63650000006044820152fd5b34610159576000366003190112610159576020600254604051908152f35b34610159576020366003190112610159576004356402540be4008111610b2957336000526006602052610b0f61027760406000205460075490610d32565b3360005260066020524260406000205561029f8133610f3e565b608460405162461bcd60e51b815260206004820152602560248201527f4d6f636b555344433a20416d6f756e742065786365656473206661756365742060448201527f6c696d69740000000000000000000000000000000000000000000000000000006064820152fd5b346101595760403660031901126101595761034b610baf610cd5565b6024359033610e04565b346101595760003660031901126101595760006003548060011c90600181168015610c82575b602083108114610518578285529081156104fc5750600114610c2b5750819003601f01601f191681019067ffffffffffffffff82118183101761048f5761048b82918260405282610c8c565b905060036000527fc2575a0e9e593c00f959f8c92f12db2869c3395a3b0502d05e2516446f71f85b6000905b828210610c6c5750602091508201018261045b565b6001816020925483858801015201910190610c57565b91607f1691610bdf565b91909160208152825180602083015260005b818110610cbf575060409293506000838284010152601f8019910116010190565b8060208092870101516040828601015201610c9e565b600435906001600160a01b038216820361015957565b602435906001600160a01b038216820361015957565b9181601f840112156101595782359167ffffffffffffffff8311610159576020808501948460051b01011161015957565b91908201809211610d3f57565b634e487b7160e01b600052601160045260246000fd5b15610d5c57565b606460405162461bcd60e51b815260206004820152602060248201527f4d6f636b555344433a2046617563657420636f6f6c646f776e206163746976656044820152fd5b6001600160a01b03166000526006602052610dc360406000205460075490610d32565b80421015610dd857428103908111610d3f5790565b50600090565b9190811015610dee5760051b0190565b634e487b7160e01b600052603260045260246000fd5b6001600160a01b0316908115610ed5576001600160a01b0316918215610e6b5760207f8c5be1e5ebec7d5bd14f71427d1e84f3dd0314c0f7b2291e5b200ac8c7c3b925918360005260018252604060002085600052825280604060002055604051908152a3565b608460405162461bcd60e51b815260206004820152602260248201527f45524332303a20617070726f766520746f20746865207a65726f20616464726560448201527f73730000000000000000000000000000000000000000000000000000000000006064820152fd5b608460405162461bcd60e51b8152602060048201526024808201527f45524332303a20617070726f76652066726f6d20746865207a65726f2061646460448201527f72657373000000000000000000000000000000000000000000000000000000006064820152fd5b6001600160a01b0316908115610f9c577fddf252ad1be2c89b69c2b068fc378daa952ba7f163c4a11628f55a4df523b3ef602082610f80600094600254610d32565b60025584845283825260408420818154019055604051908152a3565b606460405162461bcd60e51b815260206004820152601f60248201527f45524332303a206d696e7420746f20746865207a65726f2061646472657373006044820152fd5b6001600160a01b031690811561113b576001600160a01b03169182156110d15781600052600060205260406000205481811061106757817fddf252ad1be2c89b69c2b068fc378daa952ba7f163c4a11628f55a4df523b3ef9260209285600052600084520360406000205584600052600082526040600020818154019055604051908152a3565b608460405162461bcd60e51b815260206004820152602660248201527f45524332303a207472616e7366657220616d6f756e742065786365656473206260448201527f616c616e636500000000000000000000000000000000000000000000000000006064820152fd5b608460405162461bcd60e51b815260206004820152602360248201527f45524332303a207472616e7366657220746f20746865207a65726f206164647260448201527f65737300000000000000000000000000000000000000000000000000000000006064820152fd5b608460405162461bcd60e51b815260206004820152602560248201527f45524332303a207472616e736665722066726f6d20746865207a65726f20616460448201527f64726573730000000000000000000000000000000000000000000000000000006064820152fd5b6001600160a01b036005541633036111b957565b606460405162461bcd60e51b815260206004820152602060248201527f4f776e61626c653a2063616c6c6572206973206e6f7420746865206f776e65726044820152fdfea2646970667358221220d1419825e039d3bbd740a843499f3a73aa958bdd2db086898a33d4656d9429a664736f6c634300081c0033",
  "linkReferences": {},
  "deployedLinkReferences": {}
}