{
  "_format": "hh-sol-artifact-1",
  "contractName": "AdvancedYieldLottery",
  "sourceName": "contracts/strategies/AdvancedYieldLottery.sol",
  "abi": [
    {
      "inputs": [
        {
          "internalType": "address",
          "name": "_asset",
          "type": "address"
        },
        {
          "internalType": "address",
          "name": "_yieldAggregator",
          "type": "address"
        },
        {
          "internalType": "address",
          "name": "_randomnessOracle",
          "type": "address"
        }
      ],
      "stateMutability": "nonpayable",
      "type": "constructor"
    },
    {
      "anonymous": false,
      "inputs": [
        {
          "indexed": false,
          "internalType": "uint256",
          "name": "totalYield",
          "type": "uint256"
        },
        {
          "indexed": false,
          "internalType": "uint256",
          "name": "efficiency",
          "type": "uint256"
        },
        {
          "indexed": false,
          "internalType": "uint256",
          "name": "fairnessScore",
          "type": "uint256"
        }
      ],
      "name": "AdvancedMetricsUpdated",
      "type": "event"
    },
    {
      "anonymous": false,
      "inputs": [
        {
          "indexed": false,
          "internalType": "uint256",
          "name": "amount",
          "type": "uint256"
        }
      ],
      "name": "Deposit",
      "type": "event"
    },
    {
      "anonymous": false,
      "inputs": [
        {
          "indexed": false,
          "internalType": "uint256",
          "name": "amount",
          "type": "uint256"
        }
      ],
      "name": "EmergencyExit",
      "type": "event"
    },
    {
      "anonymous": false,
      "inputs": [
        {
          "indexed": false,
          "internalType": "bool",
          "name": "enabled",
          "type": "bool"
        },
        {
          "indexed": false,
          "internalType": "string",
          "name": "reason",
          "type": "string"
        }
      ],
      "name": "EmergencyModeToggled",
      "type": "event"
    },
    {
      "anonymous": false,
      "inputs": [
        {
          "indexed": false,
          "internalType": "uint256",
          "name": "earned",
          "type": "uint256"
        }
      ],
      "name": "Harvest",
      "type": "event"
    },
    {
      "anonymous": false,
      "inputs": [
        {
          "indexed": true,
          "internalType": "uint256",
          "name": "drawId",
          "type": "uint256"
        },
        {
          "indexed": true,
          "internalType": "address",
          "name": "winner",
          "type": "address"
        },
        {
          "indexed": false,
          "internalType": "uint256",
          "name": "prizeAmount",
          "type": "uint256"
        },
        {
          "indexed": false,
          "internalType": "uint256",
          "name": "participants",
          "type": "uint256"
        },
        {
          "indexed": false,
          "internalType": "bytes32",
          "name": "randomSeed",
          "type": "bytes32"
        }
      ],
      "name": "LotteryDrawCompleted",
      "type": "event"
    },
    {
      "anonymous": false,
      "inputs": [
        {
          "indexed": true,
          "internalType": "address",
          "name": "user",
          "type": "address"
        },
        {
          "indexed": false,
          "internalType": "uint256",
          "name": "amount",
          "type": "uint256"
        },
        {
          "indexed": false,
          "internalType": "uint256",
          "name": "entries",
          "type": "uint256"
        }
      ],
      "name": "ParticipantAdded",
      "type": "event"
    },
    {
      "anonymous": false,
      "inputs": [
        {
          "indexed": true,
          "internalType": "address",
          "name": "user",
          "type": "address"
        },
        {
          "indexed": false,
          "internalType": "uint256",
          "name": "amount",
          "type": "uint256"
        }
      ],
      "name": "ParticipantRemoved",
      "type": "event"
    },
    {
      "anonymous": false,
      "inputs": [
        {
          "indexed": true,
          "internalType": "uint256",
          "name": "drawId",
          "type": "uint256"
        },
        {
          "indexed": false,
          "internalType": "bytes32",
          "name": "requestId",
          "type": "bytes32"
        }
      ],
      "name": "RandomnessRequested",
      "type": "event"
    },
    {
      "anonymous": false,
      "inputs": [
        {
          "indexed": true,
          "internalType": "bytes32",
          "name": "role",
          "type": "bytes32"
        },
        {
          "indexed": true,
          "internalType": "bytes32",
          "name": "previousAdminRole",
          "type": "bytes32"
        },
        {
          "indexed": true,
          "internalType": "bytes32",
          "name": "newAdminRole",
          "type": "bytes32"
        }
      ],
      "name": "RoleAdminChanged",
      "type": "event"
    },
    {
      "anonymous": false,
      "inputs": [
        {
          "indexed": true,
          "internalType": "bytes32",
          "name": "role",
          "type": "bytes32"
        },
        {
          "indexed": true,
          "internalType": "address",
          "name": "account",
          "type": "address"
        },
        {
          "indexed": true,
          "internalType": "address",
          "name": "sender",
          "type": "address"
        }
      ],
      "name": "RoleGranted",
      "type": "event"
    },
    {
      "anonymous": false,
      "inputs": [
        {
          "indexed": true,
          "internalType": "bytes32",
          "name": "role",
          "type": "bytes32"
        },
        {
          "indexed": true,
          "internalType": "address",
          "name": "account",
          "type": "address"
        },
        {
          "indexed": true,
          "internalType": "address",
          "name": "sender",
          "type": "address"
        }
      ],
      "name": "RoleRevoked",
      "type": "event"
    },
    {
      "anonymous": false,
      "inputs": [
        {
          "indexed": false,
          "internalType": "uint256",
          "name": "amount",
          "type": "uint256"
        }
      ],
      "name": "Withdraw",
      "type": "event"
    },
    {
      "anonymous": false,
      "inputs": [
        {
          "indexed": true,
          "internalType": "bytes32",
          "name": "sourceId",
          "type": "bytes32"
        },
        {
          "indexed": false,
          "internalType": "uint256",
          "name": "amount",
          "type": "uint256"
        },
        {
          "indexed": false,
          "internalType": "uint256",
          "name": "newAPY",
          "type": "uint256"
        }
      ],
      "name": "YieldHarvested",
      "type": "event"
    },
    {
      "anonymous": false,
      "inputs": [
        {
          "indexed": false,
          "internalType": "uint256",
          "name": "oldAllocation",
          "type": "uint256"
        },
        {
          "indexed": false,
          "internalType": "uint256",
          "name": "newAllocation",
          "type": "uint256"
        },
        {
          "indexed": false,
          "internalType": "uint256",
          "name": "expectedImprovement",
          "type": "uint256"
        }
      ],
      "name": "YieldRebalanced",
      "type": "event"
    },
    {
      "anonymous": false,
      "inputs": [
        {
          "indexed": true,
          "internalType": "bytes32",
          "name": "sourceId",
          "type": "bytes32"
        },
        {
          "indexed": false,
          "internalType": "address",
          "name": "protocol",
          "type": "address"
        },
        {
          "indexed": false,
          "internalType": "string",
          "name": "name",
          "type": "string"
        },
        {
          "indexed": false,
          "internalType": "uint256",
          "name": "allocation",
          "type": "uint256"
        }
      ],
      "name": "YieldSourceAdded",
      "type": "event"
    },
    {
      "inputs": [],
      "name": "DEFAULT_ADMIN_ROLE",
      "outputs": [
        {
          "internalType": "bytes32",
          "name": "",
          "type": "bytes32"
        }
      ],
      "stateMutability": "view",
      "type": "function"
    },
    {
      "inputs": [],
      "name": "LOTTERY_MANAGER_ROLE",
      "outputs": [
        {
          "internalType": "bytes32",
          "name": "",
          "type": "bytes32"
        }
      ],
      "stateMutability": "view",
      "type": "function"
    },
    {
      "inputs": [],
      "name": "PYTHON_AGENT_ROLE",
      "outputs": [
        {
          "internalType": "bytes32",
          "name": "",
          "type": "bytes32"
        }
      ],
      "stateMutability": "view",
      "type": "function"
    },
    {
      "inputs": [],
      "name": "YIELD_MANAGER_ROLE",
      "outputs": [
        {
          "internalType": "bytes32",
          "name": "",
          "type": "bytes32"
        }
      ],
      "stateMutability": "view",
      "type": "function"
    },
    {
      "inputs": [
        {
          "internalType": "bytes32",
          "name": "sourceId",
          "type": "bytes32"
        }
      ],
      "name": "_emergencyHarvestFromSource",
      "outputs": [],
      "stateMutability": "nonpayable",
      "type": "function"
    },
    {
      "inputs": [
        {
          "internalType": "uint256",
          "name": "",
          "type": "uint256"
        }
      ],
      "name": "activeYieldSources",
      "outputs": [
        {
          "internalType": "bytes32",
          "name": "",
          "type": "bytes32"
        }
      ],
      "stateMutability": "view",
      "type": "function"
    },
    {
      "inputs": [
        {
          "internalType": "address",
          "name": "user",
          "type": "address"
        },
        {
          "internalType": "uint256",
          "name": "amount",
          "type": "uint256"
        },
        {
          "internalType": "uint256",
          "name": "userRiskTolerance",
          "type": "uint256"
        }
      ],
      "name": "addParticipant",
      "outputs": [],
      "stateMutability": "nonpayable",
      "type": "function"
    },
    {
      "inputs": [
        {
          "internalType": "address",
          "name": "agent",
          "type": "address"
        }
      ],
      "name": "addPythonAgent",
      "outputs": [],
      "stateMutability": "nonpayable",
      "type": "function"
    },
    {
      "inputs": [],
      "name": "asset",
      "outputs": [
        {
          "internalType": "contract IERC20",
          "name": "",
          "type": "address"
        }
      ],
      "stateMutability": "view",
      "type": "function"
    },
    {
      "inputs": [
        {
          "internalType": "uint16",
          "name": "",
          "type": "uint16"
        }
      ],
      "name": "chainAllocations",
      "outputs": [
        {
          "internalType": "uint256",
          "name": "",
          "type": "uint256"
        }
      ],
      "stateMutability": "view",
      "type": "function"
    },
    {
      "inputs": [],
      "name": "competitivePressure",
      "outputs": [
        {
          "internalType": "uint256",
          "name": "",
          "type": "uint256"
        }
      ],
      "stateMutability": "view",
      "type": "function"
    },
    {
      "inputs": [
        {
          "internalType": "bytes32",
          "name": "requestId",
          "type": "bytes32"
        },
        {
          "internalType": "uint256",
          "name": "randomness",
          "type": "uint256"
        }
      ],
      "name": "completeLotteryDraw",
      "outputs": [],
      "stateMutability": "nonpayable",
      "type": "function"
    },
    {
      "inputs": [],
      "name": "currentDrawId",
      "outputs": [
        {
          "internalType": "uint256",
          "name": "",
          "type": "uint256"
        }
      ],
      "stateMutability": "view",
      "type": "function"
    },
    {
      "inputs": [],
      "name": "currentPrizePool",
      "outputs": [
        {
          "internalType": "uint256",
          "name": "",
          "type": "uint256"
        }
      ],
      "stateMutability": "view",
      "type": "function"
    },
    {
      "inputs": [
        {
          "internalType": "bytes",
          "name": "data",
          "type": "bytes"
        }
      ],
      "name": "emergencyExit",
      "outputs": [],
      "stateMutability": "nonpayable",
      "type": "function"
    },
    {
      "inputs": [
        {
          "internalType": "uint256",
          "name": "amount",
          "type": "uint256"
        },
        {
          "internalType": "bytes",
          "name": "data",
          "type": "bytes"
        }
      ],
      "name": "execute",
      "outputs": [],
      "stateMutability": "nonpayable",
      "type": "function"
    },
    {
      "inputs": [],
      "name": "gasReserve",
      "outputs": [
        {
          "internalType": "uint256",
          "name": "",
          "type": "uint256"
        }
      ],
      "stateMutability": "view",
      "type": "function"
    },
    {
      "inputs": [],
      "name": "getActiveYieldSources",
      "outputs": [
        {
          "internalType": "bytes32[]",
          "name": "",
          "type": "bytes32[]"
        }
      ],
      "stateMutability": "view",
      "type": "function"
    },
    {
      "inputs": [],
      "name": "getAdvancedMetrics",
      "outputs": [
        {
          "components": [
            {
              "internalType": "uint256",
              "name": "totalYieldGenerated",
              "type": "uint256"
            },
            {
              "internalType": "uint256",
              "name": "totalPrizesDistributed",
              "type": "uint256"
            },
            {
              "internalType": "uint256",
              "name": "averagePrizeAmount",
              "type": "uint256"
            },
            {
              "internalType": "uint256",
              "name": "participationRate",
              "type": "uint256"
            },
            {
              "internalType": "uint256",
              "name": "yieldEfficiency",
              "type": "uint256"
            },
            {
              "internalType": "uint256",
              "name": "randomnessQuality",
              "type": "uint256"
            },
            {
              "internalType": "uint256",
              "name": "fairnessScore",
              "type": "uint256"
            },
            {
              "internalType": "uint256",
              "name": "lastAnalysis",
              "type": "uint256"
            }
          ],
          "internalType": "struct AdvancedYieldLottery.AdvancedMetrics",
          "name": "",
          "type": "tuple"
        }
      ],
      "stateMutability": "view",
      "type": "function"
    },
    {
      "inputs": [],
      "name": "getBalance",
      "outputs": [
        {
          "internalType": "uint256",
          "name": "",
          "type": "uint256"
        }
      ],
      "stateMutability": "view",
      "type": "function"
    },
    {
      "inputs": [],
      "name": "getLotteryConfig",
      "outputs": [
        {
          "components": [
            {
              "internalType": "uint256",
              "name": "drawInterval",
              "type": "uint256"
            },
            {
              "internalType": "uint256",
              "name": "minPrizePool",
              "type": "uint256"
            },
            {
              "internalType": "uint256",
              "name": "maxParticipants",
              "type": "uint256"
            },
            {
              "internalType": "uint256",
              "name": "entryFee",
              "type": "uint256"
            },
            {
              "internalType": "uint256",
              "name": "devFee",
              "type": "uint256"
            },
            {
              "internalType": "uint256",
              "name": "nextPrizeFee",
              "type": "uint256"
            },
            {
              "internalType": "uint256",
              "name": "burnFee",
              "type": "uint256"
            },
            {
              "internalType": "bool",
              "name": "emergencyMode",
              "type": "bool"
            },
            {
              "internalType": "bool",
              "name": "dynamicPrizes",
              "type": "bool"
            },
            {
              "internalType": "uint256",
              "name": "volatilityMultiplier",
              "type": "uint256"
            }
          ],
          "internalType": "struct AdvancedYieldLottery.LotteryConfig",
          "name": "",
          "type": "tuple"
        }
      ],
      "stateMutability": "view",
      "type": "function"
    },
    {
      "inputs": [
        {
          "internalType": "uint256",
          "name": "drawId",
          "type": "uint256"
        }
      ],
      "name": "getLotteryDraw",
      "outputs": [
        {
          "components": [
            {
              "internalType": "uint256",
              "name": "drawId",
              "type": "uint256"
            },
            {
              "internalType": "uint256",
              "name": "timestamp",
              "type": "uint256"
            },
            {
              "internalType": "address",
              "name": "winner",
              "type": "address"
            },
            {
              "internalType": "uint256",
              "name": "prizeAmount",
              "type": "uint256"
            },
            {
              "internalType": "uint256",
              "name": "totalParticipants",
              "type": "uint256"
            },
            {
              "internalType": "uint256",
              "name": "totalPrizePool",
              "type": "uint256"
            },
            {
              "internalType": "uint256",
              "name": "yieldGenerated",
              "type": "uint256"
            },
            {
              "internalType": "bytes32",
              "name": "randomnessRequestId",
              "type": "bytes32"
            },
            {
              "internalType": "bytes32",
              "name": "randomSeed",
              "type": "bytes32"
            },
            {
              "internalType": "bool",
              "name": "completed",
              "type": "bool"
            },
            {
              "internalType": "uint256",
              "name": "gasUsed",
              "type": "uint256"
            },
            {
              "internalType": "string",
              "name": "yieldSources",
              "type": "string"
            }
          ],
          "internalType": "struct AdvancedYieldLottery.LotteryDraw",
          "name": "",
          "type": "tuple"
        }
      ],
      "stateMutability": "view",
      "type": "function"
    },
    {
      "inputs": [
        {
          "internalType": "address",
          "name": "user",
          "type": "address"
        }
      ],
      "name": "getParticipant",
      "outputs": [
        {
          "components": [
            {
              "internalType": "address",
              "name": "user",
              "type": "address"
            },
            {
              "internalType": "uint256",
              "name": "depositAmount",
              "type": "uint256"
            },
            {
              "internalType": "uint256",
              "name": "entryCount",
              "type": "uint256"
            },
            {
              "internalType": "uint256",
              "name": "depositTime",
              "type": "uint256"
            },
            {
              "internalType": "uint256",
              "name": "lastRewardTime",
              "type": "uint256"
            },
            {
              "internalType": "uint256",
              "name": "totalRewardsWon",
              "type": "uint256"
            },
            {
              "internalType": "uint256",
              "name": "participationStreak",
              "type": "uint256"
            },
            {
              "internalType": "bool",
              "name": "active",
              "type": "bool"
            },
            {
              "internalType": "uint256",
              "name": "riskTolerance",
              "type": "uint256"
            },
            {
              "internalType": "bool",
              "name": "autoCompound",
              "type": "bool"
            }
          ],
          "internalType": "struct AdvancedYieldLottery.Participant",
          "name": "",
          "type": "tuple"
        }
      ],
      "stateMutability": "view",
      "type": "function"
    },
    {
      "inputs": [
        {
          "internalType": "bytes32",
          "name": "role",
          "type": "bytes32"
        }
      ],
      "name": "getRoleAdmin",
      "outputs": [
        {
          "internalType": "bytes32",
          "name": "",
          "type": "bytes32"
        }
      ],
      "stateMutability": "view",
      "type": "function"
    },
    {
      "inputs": [],
      "name": "getTotalStats",
      "outputs": [
        {
          "internalType": "uint256",
          "name": "totalDeposits_",
          "type": "uint256"
        },
        {
          "internalType": "uint256",
          "name": "totalEntries_",
          "type": "uint256"
        },
        {
          "internalType": "uint256",
          "name": "currentPrizePool_",
          "type": "uint256"
        },
        {
          "internalType": "uint256",
          "name": "totalYieldGenerated_",
          "type": "uint256"
        },
        {
          "internalType": "uint256",
          "name": "totalParticipants",
          "type": "uint256"
        },
        {
          "internalType": "uint256",
          "name": "currentDrawId_",
          "type": "uint256"
        }
      ],
      "stateMutability": "view",
      "type": "function"
    },
    {
      "inputs": [
        {
          "internalType": "bytes32",
          "name": "sourceId",
          "type": "bytes32"
        }
      ],
      "name": "getYieldSource",
      "outputs": [
        {
          "components": [
            {
              "internalType": "address",
              "name": "protocol",
              "type": "address"
            },
            {
              "internalType": "uint16",
              "name": "chainId",
              "type": "uint16"
            },
            {
              "internalType": "uint256",
              "name": "allocation",
              "type": "uint256"
            },
            {
              "internalType": "uint256",
              "name": "currentAPY",
              "type": "uint256"
            },
            {
              "internalType": "uint256",
              "name": "yieldGenerated",
              "type": "uint256"
            },
            {
              "internalType": "uint256",
              "name": "lastHarvest",
              "type": "uint256"
            },
            {
              "internalType": "bool",
              "name": "active",
              "type": "bool"
            },
            {
              "internalType": "string",
              "name": "name",
              "type": "string"
            }
          ],
          "internalType": "struct AdvancedYieldLottery.YieldSource",
          "name": "",
          "type": "tuple"
        }
      ],
      "stateMutability": "view",
      "type": "function"
    },
    {
      "inputs": [
        {
          "internalType": "bytes32",
          "name": "role",
          "type": "bytes32"
        },
        {
          "internalType": "address",
          "name": "account",
          "type": "address"
        }
      ],
      "name": "grantRole",
      "outputs": [],
      "stateMutability": "nonpayable",
      "type": "function"
    },
    {
      "inputs": [
        {
          "internalType": "bytes",
          "name": "data",
          "type": "bytes"
        }
      ],
      "name": "harvest",
      "outputs": [],
      "stateMutability": "nonpayable",
      "type": "function"
    },
    {
      "inputs": [
        {
          "internalType": "bytes32",
          "name": "role",
          "type": "bytes32"
        },
        {
          "internalType": "address",
          "name": "account",
          "type": "address"
        }
      ],
      "name": "hasRole",
      "outputs": [
        {
          "internalType": "bool",
          "name": "",
          "type": "bool"
        }
      ],
      "stateMutability": "view",
      "type": "function"
    },
    {
      "inputs": [],
      "name": "lastDrawTime",
      "outputs": [
        {
          "internalType": "uint256",
          "name": "",
          "type": "uint256"
        }
      ],
      "stateMutability": "view",
      "type": "function"
    },
    {
      "inputs": [],
      "name": "lastRebalance",
      "outputs": [
        {
          "internalType": "uint256",
          "name": "",
          "type": "uint256"
        }
      ],
      "stateMutability": "view",
      "type": "function"
    },
    {
      "inputs": [],
      "name": "lotteryConfig",
      "outputs": [
        {
          "internalType": "uint256",
          "name": "drawInterval",
          "type": "uint256"
        },
        {
          "internalType": "uint256",
          "name": "minPrizePool",
          "type": "uint256"
        },
        {
          "internalType": "uint256",
          "name": "maxParticipants",
          "type": "uint256"
        },
        {
          "internalType": "uint256",
          "name": "entryFee",
          "type": "uint256"
        },
        {
          "internalType": "uint256",
          "name": "devFee",
          "type": "uint256"
        },
        {
          "internalType": "uint256",
          "name": "nextPrizeFee",
          "type": "uint256"
        },
        {
          "internalType": "uint256",
          "name": "burnFee",
          "type": "uint256"
        },
        {
          "internalType": "bool",
          "name": "emergencyMode",
          "type": "bool"
        },
        {
          "internalType": "bool",
          "name": "dynamicPrizes",
          "type": "bool"
        },
        {
          "internalType": "uint256",
          "name": "volatilityMultiplier",
          "type": "uint256"
        }
      ],
      "stateMutability": "view",
      "type": "function"
    },
    {
      "inputs": [
        {
          "internalType": "uint256",
          "name": "",
          "type": "uint256"
        }
      ],
      "name": "lotteryDraws",
      "outputs": [
        {
          "internalType": "uint256",
          "name": "drawId",
          "type": "uint256"
        },
        {
          "internalType": "uint256",
          "name": "timestamp",
          "type": "uint256"
        },
        {
          "internalType": "address",
          "name": "winner",
          "type": "address"
        },
        {
          "internalType": "uint256",
          "name": "prizeAmount",
          "type": "uint256"
        },
        {
          "internalType": "uint256",
          "name": "totalParticipants",
          "type": "uint256"
        },
        {
          "internalType": "uint256",
          "name": "totalPrizePool",
          "type": "uint256"
        },
        {
          "internalType": "uint256",
          "name": "yieldGenerated",
          "type": "uint256"
        },
        {
          "internalType": "bytes32",
          "name": "randomnessRequestId",
          "type": "bytes32"
        },
        {
          "internalType": "bytes32",
          "name": "randomSeed",
          "type": "bytes32"
        },
        {
          "internalType": "bool",
          "name": "completed",
          "type": "bool"
        },
        {
          "internalType": "uint256",
          "name": "gasUsed",
          "type": "uint256"
        },
        {
          "internalType": "string",
          "name": "yieldSources",
          "type": "string"
        }
      ],
      "stateMutability": "view",
      "type": "function"
    },
    {
      "inputs": [
        {
          "internalType": "address",
          "name": "",
          "type": "address"
        }
      ],
      "name": "loyaltyBonus",
      "outputs": [
        {
          "internalType": "uint256",
          "name": "",
          "type": "uint256"
        }
      ],
      "stateMutability": "view",
      "type": "function"
    },
    {
      "inputs": [],
      "name": "maxRiskTolerance",
      "outputs": [
        {
          "internalType": "uint256",
          "name": "",
          "type": "uint256"
        }
      ],
      "stateMutability": "view",
      "type": "function"
    },
    {
      "inputs": [],
      "name": "metrics",
      "outputs": [
        {
          "internalType": "uint256",
          "name": "totalYieldGenerated",
          "type": "uint256"
        },
        {
          "internalType": "uint256",
          "name": "totalPrizesDistributed",
          "type": "uint256"
        },
        {
          "internalType": "uint256",
          "name": "averagePrizeAmount",
          "type": "uint256"
        },
        {
          "internalType": "uint256",
          "name": "participationRate",
          "type": "uint256"
        },
        {
          "internalType": "uint256",
          "name": "yieldEfficiency",
          "type": "uint256"
        },
        {
          "internalType": "uint256",
          "name": "randomnessQuality",
          "type": "uint256"
        },
        {
          "internalType": "uint256",
          "name": "fairnessScore",
          "type": "uint256"
        },
        {
          "internalType": "uint256",
          "name": "lastAnalysis",
          "type": "uint256"
        }
      ],
      "stateMutability": "view",
      "type": "function"
    },
    {
      "inputs": [
        {
          "internalType": "address",
          "name": "",
          "type": "address"
        }
      ],
      "name": "participantIndex",
      "outputs": [
        {
          "internalType": "uint256",
          "name": "",
          "type": "uint256"
        }
      ],
      "stateMutability": "view",
      "type": "function"
    },
    {
      "inputs": [
        {
          "internalType": "uint256",
          "name": "",
          "type": "uint256"
        }
      ],
      "name": "participantList",
      "outputs": [
        {
          "internalType": "address",
          "name": "",
          "type": "address"
        }
      ],
      "stateMutability": "view",
      "type": "function"
    },
    {
      "inputs": [
        {
          "internalType": "address",
          "name": "",
          "type": "address"
        }
      ],
      "name": "participants",
      "outputs": [
        {
          "internalType": "address",
          "name": "user",
          "type": "address"
        },
        {
          "internalType": "uint256",
          "name": "depositAmount",
          "type": "uint256"
        },
        {
          "internalType": "uint256",
          "name": "entryCount",
          "type": "uint256"
        },
        {
          "internalType": "uint256",
          "name": "depositTime",
          "type": "uint256"
        },
        {
          "internalType": "uint256",
          "name": "lastRewardTime",
          "type": "uint256"
        },
        {
          "internalType": "uint256",
          "name": "totalRewardsWon",
          "type": "uint256"
        },
        {
          "internalType": "uint256",
          "name": "participationStreak",
          "type": "uint256"
        },
        {
          "internalType": "bool",
          "name": "active",
          "type": "bool"
        },
        {
          "internalType": "uint256",
          "name": "riskTolerance",
          "type": "uint256"
        },
        {
          "internalType": "bool",
          "name": "autoCompound",
          "type": "bool"
        }
      ],
      "stateMutability": "view",
      "type": "function"
    },
    {
      "inputs": [],
      "name": "paused",
      "outputs": [
        {
          "internalType": "bool",
          "name": "",
          "type": "bool"
        }
      ],
      "stateMutability": "view",
      "type": "function"
    },
    {
      "inputs": [
        {
          "internalType": "uint256",
          "name": "",
          "type": "uint256"
        }
      ],
      "name": "pendingRandomness",
      "outputs": [
        {
          "internalType": "bytes32",
          "name": "",
          "type": "bytes32"
        }
      ],
      "stateMutability": "view",
      "type": "function"
    },
    {
      "inputs": [],
      "name": "protocol",
      "outputs": [
        {
          "internalType": "address",
          "name": "",
          "type": "address"
        }
      ],
      "stateMutability": "view",
      "type": "function"
    },
    {
      "inputs": [],
      "name": "randomnessOracle",
      "outputs": [
        {
          "internalType": "contract IEtherlinkRandomness",
          "name": "",
          "type": "address"
        }
      ],
      "stateMutability": "view",
      "type": "function"
    },
    {
      "inputs": [
        {
          "internalType": "bytes32",
          "name": "",
          "type": "bytes32"
        }
      ],
      "name": "randomnessRequests",
      "outputs": [
        {
          "internalType": "uint256",
          "name": "",
          "type": "uint256"
        }
      ],
      "stateMutability": "view",
      "type": "function"
    },
    {
      "inputs": [],
      "name": "rebalanceThreshold",
      "outputs": [
        {
          "internalType": "uint256",
          "name": "",
          "type": "uint256"
        }
      ],
      "stateMutability": "view",
      "type": "function"
    },
    {
      "inputs": [
        {
          "internalType": "address",
          "name": "user",
          "type": "address"
        }
      ],
      "name": "removeParticipant",
      "outputs": [],
      "stateMutability": "nonpayable",
      "type": "function"
    },
    {
      "inputs": [
        {
          "internalType": "bytes32",
          "name": "role",
          "type": "bytes32"
        },
        {
          "internalType": "address",
          "name": "account",
          "type": "address"
        }
      ],
      "name": "renounceRole",
      "outputs": [],
      "stateMutability": "nonpayable",
      "type": "function"
    },
    {
      "inputs": [
        {
          "internalType": "bytes32",
          "name": "role",
          "type": "bytes32"
        },
        {
          "internalType": "address",
          "name": "account",
          "type": "address"
        }
      ],
      "name": "revokeRole",
      "outputs": [],
      "stateMutability": "nonpayable",
      "type": "function"
    },
    {
      "inputs": [
        {
          "internalType": "uint256",
          "name": "drawInterval",
          "type": "uint256"
        },
        {
          "internalType": "uint256",
          "name": "minPrizePool",
          "type": "uint256"
        },
        {
          "internalType": "uint256",
          "name": "maxParticipants",
          "type": "uint256"
        },
        {
          "internalType": "uint256",
          "name": "entryFee",
          "type": "uint256"
        },
        {
          "internalType": "uint256",
          "name": "devFee",
          "type": "uint256"
        },
        {
          "internalType": "uint256",
          "name": "nextPrizeFee",
          "type": "uint256"
        },
        {
          "internalType": "bool",
          "name": "dynamicPrizes",
          "type": "bool"
        }
      ],
      "name": "setLotteryConfig",
      "outputs": [],
      "stateMutability": "nonpayable",
      "type": "function"
    },
    {
      "inputs": [
        {
          "internalType": "bool",
          "name": "pauseState",
          "type": "bool"
        }
      ],
      "name": "setPaused",
      "outputs": [],
      "stateMutability": "nonpayable",
      "type": "function"
    },
    {
      "inputs": [
        {
          "internalType": "address",
          "name": "_yieldAggregator",
          "type": "address"
        }
      ],
      "name": "setYieldAggregator",
      "outputs": [],
      "stateMutability": "nonpayable",
      "type": "function"
    },
    {
      "inputs": [
        {
          "internalType": "uint16",
          "name": "",
          "type": "uint16"
        }
      ],
      "name": "supportedChains",
      "outputs": [
        {
          "internalType": "bool",
          "name": "",
          "type": "bool"
        }
      ],
      "stateMutability": "view",
      "type": "function"
    },
    {
      "inputs": [
        {
          "internalType": "bytes4",
          "name": "interfaceId",
          "type": "bytes4"
        }
      ],
      "name": "supportsInterface",
      "outputs": [
        {
          "internalType": "bool",
          "name": "",
          "type": "bool"
        }
      ],
      "stateMutability": "view",
      "type": "function"
    },
    {
      "inputs": [],
      "name": "totalDeposits",
      "outputs": [
        {
          "internalType": "uint256",
          "name": "",
          "type": "uint256"
        }
      ],
      "stateMutability": "view",
      "type": "function"
    },
    {
      "inputs": [],
      "name": "totalEntries",
      "outputs": [
        {
          "internalType": "uint256",
          "name": "",
          "type": "uint256"
        }
      ],
      "stateMutability": "view",
      "type": "function"
    },
    {
      "inputs": [],
      "name": "totalYieldAllocated",
      "outputs": [
        {
          "internalType": "uint256",
          "name": "",
          "type": "uint256"
        }
      ],
      "stateMutability": "view",
      "type": "function"
    },
    {
      "inputs": [],
      "name": "totalYieldGenerated",
      "outputs": [
        {
          "internalType": "uint256",
          "name": "",
          "type": "uint256"
        }
      ],
      "stateMutability": "view",
      "type": "function"
    },
    {
      "inputs": [],
      "name": "underlyingToken",
      "outputs": [
        {
          "internalType": "address",
          "name": "",
          "type": "address"
        }
      ],
      "stateMutability": "view",
      "type": "function"
    },
    {
      "inputs": [
        {
          "internalType": "address",
          "name": "",
          "type": "address"
        }
      ],
      "name": "userRiskPreference",
      "outputs": [
        {
          "internalType": "uint256",
          "name": "",
          "type": "uint256"
        }
      ],
      "stateMutability": "view",
      "type": "function"
    },
    {
      "inputs": [
        {
          "internalType": "uint256",
          "name": "amount",
          "type": "uint256"
        }
      ],
      "name": "withdrawGasReserve",
      "outputs": [],
      "stateMutability": "nonpayable",
      "type": "function"
    },
    {
      "inputs": [],
      "name": "yieldAggregator",
      "outputs": [
        {
          "internalType": "contract IYieldAggregator",
          "name": "",
          "type": "address"
        }
      ],
      "stateMutability": "view",
      "type": "function"
    },
    {
      "inputs": [
        {
          "internalType": "bytes32",
          "name": "",
          "type": "bytes32"
        }
      ],
      "name": "yieldSources",
      "outputs": [
        {
          "internalType": "address",
          "name": "protocol",
          "type": "address"
        },
        {
          "internalType": "uint16",
          "name": "chainId",
          "type": "uint16"
        },
        {
          "internalType": "uint256",
          "name": "allocation",
          "type": "uint256"
        },
        {
          "internalType": "uint256",
          "name": "currentAPY",
          "type": "uint256"
        },
        {
          "internalType": "uint256",
          "name": "yieldGenerated",
          "type": "uint256"
        },
        {
          "internalType": "uint256",
          "name": "lastHarvest",
          "type": "uint256"
        },
        {
          "internalType": "bool",
          "name": "active",
          "type": "bool"
        },
        {
          "internalType": "string",
          "name": "name",
          "type": "string"
        }
      ],
      "stateMutability": "view",
      "type": "function"
    },
    {
      "stateMutability": "payable",
      "type": "receive"
    }
  ],
  "bytecode": "0x60a06040523461048f57604051601f61420038819003918201601f19168301916001600160401b038311848410176102a45780849260609460405283398101031261048f5761004d81610494565b610065604061005e60208501610494565b9301610494565b600180556117706024556101f460255567016345785d8a00006027556001600160a01b0390911691821561045a576001600160a01b0316908115610415576001600160a01b03169182156103d057608052600280546001600160a01b0319908116929092179055600380549091169190911790553360009081526000805160206141e0833981519152602052604090205460ff1615610390575b3360009081527f9d7ac59855a36a917de86cf11335ccc17e4300d5dfeadf9288f88851d6b39fb2602052604090205460ff161561031c575b3360009081526000805160206141c0833981519152602052604090205460ff16156102ba575b60405161014081016001600160401b038111828210176102a457612710916101209160405262093a8081526305f5e1006020820152826040820152600060608201526101f460808201526103e860a0820152600060c0820152600060e08201526001610100820152015262093a806004556305f5e10060055561271060065560006007556101f46008556103e86009556000600a5560ff19600b5416600b5561010061ff0019600b541617600b55612710600c5542601c556065600052602c6020526040600020600160ff19825416179055606e600052602c6020526040600020600160ff19825416179055606d600052602c6020526040600020600160ff1982541617905561765e600052602c6020526040600020600160ff19825416179055604051613cf790816104a9823960805181818161111901528181611aef01526125ff0152f35b634e487b7160e01b600052604160045260246000fd5b3360008181526000805160206141c083398151915260205260408120805460ff1916600117905581907f470f4f1717679395b6a9e0700797bfeeaa970f1643e72f5684d687c0be10fe27906000805160206141a08339815191529080a461015d565b3360008181527f9d7ac59855a36a917de86cf11335ccc17e4300d5dfeadf9288f88851d6b39fb260205260408120805460ff1916600117905581907f16b9b21c34f72b61b038f4735d1e3b86ea577a372ef2c98f5d64e83848a713c2906000805160206141a08339815191529080a4610137565b3360008181526000805160206141e083398151915260205260408120805460ff1916600117905581906000805160206141a08339815191528180a46100ff565b60405162461bcd60e51b815260206004820152601960248201527f496e76616c69642072616e646f6d6e657373206f7261636c65000000000000006044820152606490fd5b60405162461bcd60e51b815260206004820152601860248201527f496e76616c6964207969656c642061676772656761746f7200000000000000006044820152606490fd5b60405162461bcd60e51b815260206004820152600d60248201526c125b9d985b1a5908185cdcd95d609a1b6044820152606490fd5b600080fd5b51906001600160a01b038216820361048f5756fe608080604052600436101561001d575b50361561001b57600080fd5b005b60003560e01c90816301ffc9a714612fc457508063083b913714612f8a57806309e69ede14612ed95780630bc1bcb114612e9e5780630bd26e9214612dd55780630e6fdaa114612d94578063106b9ca114612d7657806310d5878314612d3957806312065fe014611706578063160e5d9a14612d1b57806316c38b3c14612ce2578063172b437314612cc45780631bd04a3714612c895780631d05d5f214612bcf57806322189ee214612a2d578063248a9ca3146129f85780632495a599146125df57806324def6e1146129195780632a194b6d146128f25780632c1c1276146127c15780632f2ff15d146126fa57806336568abe1461265b57806337a5568b1461262357806338d52e0f146125df5780633d83f349146124f05780633dfe9f6a146124d2578063443a31ea1461243457806347995487146123fa578063543683b1146122c357806359efcb1514611a705780635c975abb14611a395780635cbbd63514611a1b5780635e619b78146119ef578063668a20011461186357806366e45a2a146117ff578063673fd74314611724578063675f8aea146117065780636e9b7519146116e85780637143059f146115d35780637280ef69146115ac5780637d8820971461158e5780637fef036e1461157057806386ec1127146115445780638c825056146115275780638ce744261461150c57806391d14854146114be578063968018d114611486578063992b48de146113fc578063a04748f6146113a2578063a217fddf14611386578063a2ebb67c1461130c578063bca78fab146112ee578063c8d11cfe14610fa8578063ce5c7f61146108fb578063cf15a56f146108c1578063d547741f1461087c578063e5b49366146107e8578063eea7570e146107ca578063fc5ab87c14610753578063fc5cbf1d1461070b578063fc7d3e5c146103145763fe9e9640146102d4573861000f565b3461030f57600036600319011261030f5760206040517f470f4f1717679395b6a9e0700797bfeeaa970f1643e72f5684d687c0be10fe278152f35b600080fd5b3461030f57606036600319011261030f5761032d613062565b60243560443561033b6134c1565b61034a60ff600b541615613327565b60165460065411156106c7576103618215156132dc565b6001600160a01b0383169283600052601560205260ff600760406000200154161560001461067c576104786103958461385d565b6009868561045c604051946103a9866130e5565b83865260208601908a82526040870190815260608701428152608088016000815260a08901916000835260c08a01936000855260e08b0195600187526101008c019889526101208c019960008b5260005260156020526001600160a01b038060406000209d5116166001600160a01b03198d5416178c555160018c01555160028b01555160038a0155516004890155516005880155516006870155511515600786019060ff801983541691151516179055565b51600884015551151591019060ff801983541691151516179055565b6016549068010000000000000000821015610666576104a08260016104bf940160165561322d565b9091906001600160a01b038084549260031b9316831b921b1916179055565b6016546000198101908111610631578360005260176020526040600020555b6104ea82601854613372565b6018556105016104f98361385d565b601954613372565b601955826000526028602052604060002055816000526015602052604060002060405161052d816130e5565b6001600160a01b03825416815260018201549060208101918252600283015460408201526003830154606082015260048301546080820152600583015460a082015261012060ff60096006860154958660c086015282600782015416151560e08601526008810154610100860152015416151591015261271091600a8110156000146106475750906103e88101809111610631576402540be40090915b511015610623575b7f39f165c675335f87dc85b7fd0a2dc035f56fb1d320cfdb4d24c94ef678d2e2a7916040918460005260296020528260002055836000526015602052600282600020015482519182526020820152a2005b6101f48101809111156105d2575b634e487b7160e01b600052601160045260246000fd5b6005111561065c575b6402540be400906105ca565b6129049150610650565b634e487b7160e01b600052604160045260246000fd5b508260005260156020526001604060002001610699838254613372565b90556106a48261385d565b8360005260156020526106c06002604060002001918254613372565b90556104de565b606460405162461bcd60e51b815260206004820152601860248201527f4d6178207061727469636970616e7473207265616368656400000000000000006044820152fd5b3461030f57600036600319011261030f5760c060185460195460215460205460165491601b5493604051958652602086015260408501526060840152608083015260a0820152f35b3461030f57600036600319011261030f5761014060045460055460ff60065460075460085460095490600a5492600b5494600c5497604051998a5260208a015260408901526060880152608087015260a086015260c0850152818116151560e085015260081c161515610100830152610120820152f35b3461030f57600036600319011261030f576020602754604051908152f35b3461030f57602036600319011261030f576004356108046133bb565b8047106108385760008080809381811561082f575b3390f11561082357005b6040513d6000823e3d90fd5b506108fc610819565b606460405162461bcd60e51b815260206004820152601460248201527f496e73756666696369656e742062616c616e63650000000000000000000000006044820152fd5b3461030f57604036600319011261030f5761001b60043561089b613078565b906108bc6108b782600052600060205260016040600020015490565b6135a7565b6135f1565b3461030f57602036600319011261030f576001600160a01b036108e2613062565b1660005260286020526020604060002054604051908152f35b3461030f57602036600319011261030f5760043567ffffffffffffffff811161030f5761092c903690600401613263565b5050610936613534565b6000805b601e54811015610a375761094d81613248565b90549060031b1c600052601d60205260ff60056040600020015416610975575b60010161093a565b906109e260019161098584613248565b90549060031b1c9081600052601d602052604060002091600483016109ab81544261337f565b936301e133806109d188830154966127106109cb6002860154809a6136d3565b046136d3565b0494856109ea575b50505050613372565b91905061096d565b7fb92c3c8150b8973e7f531c9e992e674dcf8f876e4ca535743903b6e52cc3a6d992600360409301610a1d888254613372565b90554290558151908682526020820152a2858080806109d9565b50610a54610a4782602154613372565b9182602155602054613372565b908160205581600d5560165491612710830283159381046127101484171561063157600654610a829161339b565b60105580610f66575b42601455601154601354604080519384526020840192909252908201527f60e43f521d88564b369abf9342744052edbb199f75baeb3fd35a1be80ebe28c490606090a160055411801580610f5e575b80610f46575b80610f39575b610aec57005b610ef557610eb157610b03601c5460045490613372565b4210610e6d57610b14601b5461338c565b601b55600060206001600160a01b03600354166024604051809481937f7363ae1f000000000000000000000000000000000000000000000000000000008352620493e060048401525af190811561082357600091610e38575b50601b5481600052602260205280604060002055600052602360205280604060002055601b54610b9b6139c9565b91601654916021549060205491604094855196610bb8878961311f565b601288527f6d756c74695f736f757263655f7969656c6400000000000000000000000000006020890152865194610bee866130c8565b84865260208601934285528887019360008552606088019384526080880190815260a0880191825260c0880192835260e0880193898552610100890195600087526101208a0197600089526101408b019960008b526101608c019e8f52600052601a6020528c6000209a518b555160018b0155516001600160a01b031660028a01906001600160a01b031681546001600160a01b0319161790555160038901555160048801555160058701555160068601555160078501555160088401555115156009830190610cc9919060ff801983541691151516179055565b51600a820155600b01925192835167ffffffffffffffff811161066657610cf0825461308e565b601f8111610df0575b506020601f8211600114610d6457908060209493927f587602b661da57eff43c58d2ebb4b7c66d08862f786faf29f390136b3309a1289697600092610d59575b50508160011b916000199060031b1c19161790555b601b549351908152a2005b015190508780610d39565b601f1982169583600052816000209660005b818110610dd8575096600192849260209796957f587602b661da57eff43c58d2ebb4b7c66d08862f786faf29f390136b3309a128999a10610dbf575b505050811b019055610d4e565b015160001960f88460031b161c19169055878080610db2565b83830151895560019098019760209384019301610d76565b826000526020600020601f830160051c81019160208410610e2e575b601f0160051c01905b818110610e225750610cf9565b60008155600101610e15565b9091508190610e0c565b906020823d602011610e65575b81610e526020938361311f565b81010312610e6257505181610b6d565b80fd5b3d9150610e45565b606460405162461bcd60e51b815260206004820152601560248201527f4472617720696e74657276616c206e6f74206d657400000000000000000000006044820152fd5b606460405162461bcd60e51b815260206004820152600f60248201527f4e6f207061727469636970616e747300000000000000000000000000000000006044820152fd5b606460405162461bcd60e51b815260206004820152601760248201527f496e73756666696369656e74207072697a6520706f6f6c0000000000000000006044820152fd5b5060ff600b541615610ae6565b50610f56601c5460045490613372565b421015610ae0565b508115610ada565b5a906001820180921161063157610f9e7f60e43f521d88564b369abf9342744052edbb199f75baeb3fd35a1be80ebe28c4928261339b565b6011559050610a8b565b3461030f57604036600319011261030f57600435806000526022602052604060002054156112aa5780600052602260205260406000205480600052601a6020526040600020600981019260ff8454166112665760078201540361122257600019430143811161063157601954604051906020820192602435845242604084015244606084015240608083015260a08201528360c082015260c0815261104e60e08261311f565b51902061105a816136e6565b91600381019182549161107e61107560085460095490613372565b600a5490613372565b61271003906127108211610631576020977f42dcb94b44fc97c195b26b1247587670d9fef1e0ee48b192b343b0e7d388e9029660609661113d6127106110ce6004976001600160a01b039a6136d3565b049788937fa9059cbb000000000000000000000000000000000000000000000000000000006040519e8f0152169b8c60248201528360448201526044815261111760648261311f565b7f000000000000000000000000000000000000000000000000000000000000000061389d565b61117a602154611175612710611155600854846136d3565b0461117086612710611169600954876136d3565b049461337f565b61337f565b613372565b602155600284018b6001600160a01b031982541617905555836008830155600160ff198254161790555a600a82015587600052601560205260056040600020016111c5858254613372565b90556000888152601560205260409020428184015560060180546111e89061338c565b905542601c5561120a6111fd85600e54613372565b80600e55601b549061339b565b600f55015460405192835260208301526040820152a3005b606460405162461bcd60e51b815260206004820152601060248201527f52657175657374206d69736d61746368000000000000000000000000000000006044820152fd5b606460405162461bcd60e51b815260206004820152601660248201527f4472617720616c726561647920636f6d706c65746564000000000000000000006044820152fd5b606460405162461bcd60e51b815260206004820152600f60248201527f496e76616c6964207265717565737400000000000000000000000000000000006044820152fd5b3461030f57600036600319011261030f576020601b54604051908152f35b3461030f57602036600319011261030f57303303611342576004356000908152601d60205260409020600501805460ff19169055005b606460405162461bcd60e51b815260206004820152600d60248201527f496e7465726e616c206f6e6c79000000000000000000000000000000000000006044820152fd5b3461030f57600036600319011261030f57602060405160008152f35b3461030f57600036600319011261030f57610100600d54600e54600f54601054601154601254916013549360145495604051978852602088015260408701526060860152608085015260a084015260c083015260e0820152f35b3461030f57602036600319011261030f576001600160a01b0361141d613062565b6114256133bb565b168015611442576001600160a01b03196002541617600255600080f35b606460405162461bcd60e51b815260206004820152601260248201527f496e76616c69642061676772656761746f7200000000000000000000000000006044820152fd5b3461030f57602036600319011261030f5760043561ffff811680910361030f57600052602b6020526020604060002054604051908152f35b3461030f57604036600319011261030f576114d7613078565b60043560005260006020526001600160a01b0360406000209116600052602052602060ff604060002054166040519015158152f35b3461030f57600036600319011261030f576020604051308152f35b3461030f57600036600319011261030f5760208054604051908152f35b3461030f57602036600319011261030f5760043560005260236020526020604060002054604051908152f35b3461030f57600036600319011261030f576020601954604051908152f35b3461030f57600036600319011261030f576020601854604051908152f35b3461030f57600036600319011261030f5760206001600160a01b0360035416604051908152f35b3461030f57602036600319011261030f576001600160a01b036115f4613062565b6115fc613291565b50166000526015602052610140604060002060405161161a816130e5565b6001600160a01b038254169182825260018101546020830190815260028201546040840190815260038301546060850190815260048401546080860190815260058501549160a0870192835260068601549360c0880194855260ff6007880154169560e08901961515875261012060ff600960088b01549a6101008d019b8c5201541699019815158952604051998a525160208a01525160408901525160608801525160808701525160a08601525160c085015251151560e084015251610100830152511515610120820152f35b3461030f57600036600319011261030f576020602a54604051908152f35b3461030f57600036600319011261030f576020602154604051908152f35b3461030f57600036600319011261030f57600060e060405161174581613102565b8281528260208201528260408201528260608201528260808201528260a08201528260c0820152015261010060405161177d81613102565b600d5490818152600e5460208201908152600f54604083019081526010546060840190815260115490608085019182526012549260a086019384526013549460c0870195865260e060145497019687526040519788525160208801525160408701525160608601525160808501525160a08401525160c08301525160e0820152f35b3461030f5760e036600319011261030f5760c43580151580910361030f576118256134c1565b60043560045560243560055560443560065560643560075560843560085560a43560095561ff00600b549160081b169061ff00191617600b55600080f35b3461030f57602036600319011261030f576001600160a01b03611884613062565b61188c6134c1565b1680600052601560205260ff60076040600020015416156119ab5780600052601560205260406000206001810154908260005260176020526040600020546016546000198101908111610631576118ea6001600160a01b039161322d565b90549060031b1c166118ff816104a08461322d565b60005260176020526040600020556016549182156119955760076020927f5c77dfcb1f101d66f3e9b3e7b6be09da9c0bfea8055273b6e13303649ecc6497946000190161194b8161322d565b6001600160a01b0382549160031b1b1916905560165561196d8360185461337f565b601855611980600282015460195461337f565b60195501805460ff19169055604051908152a2005b634e487b7160e01b600052603160045260246000fd5b606460405162461bcd60e51b815260206004820152600f60248201527f55736572206e6f742061637469766500000000000000000000000000000000006044820152fd5b3461030f57602036600319011261030f5760043560005260226020526020604060002054604051908152f35b3461030f57600036600319011261030f576020601c54604051908152f35b3461030f57600036600319011261030f5760ff602d54168015611a64575b6020906040519015158152f35b50600b5460ff16611a57565b3461030f57604036600319011261030f5760043560243567ffffffffffffffff811161030f57611aa4903690600401613263565b611aaf929192613534565b611aba8215156132dc565b611ac960ff600b541615613327565b80156122b657826040918101031261030f57602082013591821515830361030f5735915b7f000000000000000000000000000000000000000000000000000000000000000090611b626040517f23b872dd00000000000000000000000000000000000000000000000000000000602082015233602482015230604482015284606482015260648152611b5c60848261311f565b8361389d565b1561229c576001600160a01b036064600092611b8085602154613372565b9583600254169060405197889586947f6f031787000000000000000000000000000000000000000000000000000000008652166004850152602484015260448301525afa8060009384926120bd575b50611bf75750611bf29150611be681602154613372565b6021555b601f54613372565b601f55005b825192611c038461367e565b93611c11604051958661311f565b808552611c20601f199161367e565b01366020860137805191611c4c611c368461367e565b93611c44604051958661311f565b80855261367e565b6020840190601f190136823760005b8351811015611ca757806001600160a01b03611c79600193876136bf565b515116611c86828a6136bf565b526040611c9382876136bf565b510151611ca082886136bf565b5201611c5b565b5093909492915060005b83518110806120b3575b1561202f57611cca81846136bf565b51611cde575b611cd99061338c565b611cb1565b611ce881856136bf565b5160405160208101916bffffffffffffffffffffffff199060601b1682527e65000000000000000000000000000000000000000000000000000000000000603482015260168152611d3a60368261311f565b5190209081600052601d6020526001600160a01b036040600020541615600014611ffe57602060066001600160a01b03611d7484896136bf565b5116611e9f611d8385896136bf565b5160405192611d9184613102565b8352848301906065825260408401908152606084018d815260808501906000825260a086019242845260c0870194600186526001600160a01b03808d6040907f6f7074696d616c5f73747261746567790000000000000000000000000000000082519e8f611dff858261311f565b60108152015260e08c019d8e52600052601d602052600020995116166001600160a01b0319895416178855517fffffffffffffffffffff0000ffffffffffffffffffffffffffffffffffffffff75ffff000000000000000000000000000000000000000089549260a01b169116178755516001870155516002860155516003850155516004840155511515600583019060ff801983541691151516179055565b01905180519067ffffffffffffffff8211610666578190611ec0845461308e565b601f8111611fab575b50602090601f8311600114611f4657600092611f3b575b50508160011b916000199060031b1c19161790555b601e54916801000000000000000083101561066657611f1d836001611cd99501601e55613248565b819291549060031b91821b91600019901b19161790555b9050611cd0565b015190508a80611ee0565b60008581528281209350601f198516905b818110611f935750908460019594939210611f7a575b505050811b019055611ef5565b015160001960f88460031b161c191690558a8080611f6d565b92936020600181928786015181550195019301611f57565b909150836000526020600020601f840160051c81019160208510611ff4575b90601f859493920160051c01905b818110611fe55750611ec9565b60008155849350600101611fd8565b9091508190611fca565b611cd99161200c82866136bf565b516000918252601d60205260409091206001810191909155600201879055611f34565b509291509242602655601f5493511561209d57611bf293612095612077847f59c4d445ae75c11648091c309f404659c639c55af1f912f8f065b6c50c09341895505183613372565b92604051938493846040919493926060820195825260208201520152565b0390a1611bea565b634e487b7160e01b600052603260045260246000fd5b5060058110611cbb565b9091503d8085833e6120cf818361311f565b810193608082860312610e6257815167ffffffffffffffff811161229857820185601f820112156122985780516121058161367e565b96612113604051988961311f565b81885260208089019260051b840101928184116122945760208101925b84841061214857505050505050602001519084611bcf565b835167ffffffffffffffff8111612290578201610120818503601f1901126122905760405190610120820182811067ffffffffffffffff82111761227c5760405260208101516001600160a01b0381168103612278578252604081015161ffff81168103612278576020830152606081015160408301526080810151606083015260a0810151608083015260c081015160a083015260e081015160c08301526121f46101008201613696565b60e08301526101208101519067ffffffffffffffff82116122785790602091010184601f8201121561227457805161222b816136a3565b91612239604051938461311f565b8183528660208383010111612270579161225f60209593928695938680850191016131e5565b610100820152815201930192612130565b8980fd5b8780fd5b8880fd5b602489634e487b7160e01b81526041600452fd5b8680fd5b8480fd5b5080fd5b50611bf291506122ae81602154613372565b602155611bea565b5060245491506001611aed565b3461030f57602036600319011261030f57606060e06040516122e481613102565b60008152600060208201526000604082015260008382015260006080820152600060a0820152600060c08201520152600435600052601d6020526001600160a01b0360406000206123f66040519161233b83613102565b805490848216845261ffff602085019260a01c1682526001810154604085019081526002820154606086019081526003830154906080870191825260048401549260a0880193845261ffff6123a3600660ff6005890154169760c08c01981515895201613141565b9660e08a019788526040519a8b9a60208c52511660208b0152511660408901525160608801525160808701525160a08601525160c085015251151560e08401525161010080840152610120830190613208565b0390f35b3461030f57602036600319011261030f576001600160a01b0361241b613062565b1660005260296020526020604060002054604051908152f35b3461030f57602036600319011261030f57600435600052601d60205261ffff60406000206123f681549160018101549060028101546003820154600483015491612488600660ff6005870154169501613141565b9460405198886001600160a01b038b9a168a5260a01c16602089015260408801526060870152608086015260a0850152151560c084015261010060e0840152610100830190613208565b3461030f57600036600319011261030f576020602554604051908152f35b3461030f57602036600319011261030f57612509613062565b6125116133bb565b6001600160a01b03811660009081527f250cbe9b32bd7e3f212318b4465ad64b93dc7cc1de2b4c56999ed80a17410096602052604090205460ff161561255357005b6001600160a01b031660008181527f250cbe9b32bd7e3f212318b4465ad64b93dc7cc1de2b4c56999ed80a1741009660205260408120805460ff191660011790553391907f0b30a63048d9e034b7c0b1dc7db6e487c63cb01b808b2f0caf4f278e377ba4c2907f2f8788117e7eff1d82e926ec794901d17c78024a50270940304540a733656f0d9080a4005b3461030f57600036600319011261030f5760206040516001600160a01b037f0000000000000000000000000000000000000000000000000000000000000000168152f35b3461030f57602036600319011261030f57600435601e5481101561030f5761264c602091613248565b90549060031b1c604051908152f35b3461030f57604036600319011261030f57612674613078565b336001600160a01b038216036126905761001b906004356135f1565b608460405162461bcd60e51b815260206004820152602f60248201527f416363657373436f6e74726f6c3a2063616e206f6e6c792072656e6f756e636560448201527f20726f6c657320666f722073656c6600000000000000000000000000000000006064820152fd5b3461030f57604036600319011261030f57600435612716613078565b906127326108b782600052600060205260016040600020015490565b80600052600060205260406000206001600160a01b03831660005260205260ff604060002054161561276057005b80600052600060205260406000206001600160a01b0383166000526020526040600020600160ff198254161790556001600160a01b03339216907f2f8788117e7eff1d82e926ec794901d17c78024a50270940304540a733656f0d600080a4005b3461030f57602036600319011261030f5760043567ffffffffffffffff811161030f576127f2903690600401613263565b50506127fc6134c1565b600160ff19600b541617600b55600160ff19602d541617602d5560005b601e548110156128915761282c81613248565b90549060031b1c90303b1561030f57600191604051907fa2ebb67c000000000000000000000000000000000000000000000000000000008252600482015260008160248183305af1612880575b5001612819565b600061288b9161311f565b82612879565b7f35fe7e9e05aa9077c1f4c1213863d43d9fba000dc93343ec01c0fc29a5e609d960806040516001815260406020820152601860408201527f456d657267656e637920657869742074726967676572656400000000000000006060820152a1005b3461030f57600036600319011261030f5760206001600160a01b0360025416604051908152f35b3461030f57600036600319011261030f57612932613291565b50610140604051612942816130e5565b6004549081815260055460208201908152600654906040830191825260075460608401908152600854608085019081526009549060a08601918252600a549260c08701938452600b549560e088019560ff88161515875260ff6101008a019860081c1615158852610120600c549901988952604051998a525160208a01525160408901525160608801525160808701525160a08601525160c085015251151560e084015251151561010083015251610120820152f35b3461030f57602036600319011261030f576020612a25600435600052600060205260016040600020015490565b604051908152f35b3461030f57602036600319011261030f576060610160604051612a4f816130c8565b60008152600060208201526000604082015260008382015260006080820152600060a0820152600060c0820152600060e08201526000610100820152600061012082015260006101408201520152600435600052601a6020526040806000206123f68251612abc816130c8565b8254815280600184015493602082019485526001600160a01b03600282015416868301908152600382015460608401908152600483015460808501908152600584015460a0860190815260068501549160c0870192835260078601549360e088019485526001600160a01b036008880154966101008a01978852612b61600b60ff60098c0154169a6101208d019b15158c52610140600a8201549d019c8d5201613141565b9a61016081019b8c528e519e8f9e8f926020845251602084015251910152511660608c01525160808b01525160a08a01525160c08901525160e088015251610100870152516101208601525115156101408501525161016084015251610180808401526101a0830190613208565b3461030f57600036600319011261030f57604051806020601e5492838152018092601e6000527f50bb669a95c7b50b7e8a6f09454034b2b14cf2b85c730dca9a539ca82cb6e3509060005b818110612c735750505081612c3091038261311f565b6040519182916020830190602084525180915260408301919060005b818110612c5a575050500390f35b8251845285945060209384019390920191600101612c4c565b8254845260209093019260019283019201612c1a565b3461030f57600036600319011261030f5760206040517f0b30a63048d9e034b7c0b1dc7db6e487c63cb01b808b2f0caf4f278e377ba4c28152f35b3461030f57600036600319011261030f576020602454604051908152f35b3461030f57602036600319011261030f5760043580151580910361030f57612d086133bb565b60ff8019602d5416911617602d55600080f35b3461030f57600036600319011261030f576020601f54604051908152f35b3461030f57602036600319011261030f5760043561ffff811680910361030f57600052602c602052602060ff604060002054166040519015158152f35b3461030f57600036600319011261030f576020602654604051908152f35b3461030f57602036600319011261030f5760043560165481101561030f576001600160a01b03612dc560209261322d565b90549060031b1c16604051908152f35b3461030f57602036600319011261030f57600435600052601a602052604060002080546123f66001830154926001600160a01b0360028201541690600381015460048201546005830154600684015460078501549160088601549360ff60098801541695612e4a600b600a8a01549901613141565b986040519c8d9c8d5260208d015260408c015260608b015260808a015260a089015260c088015260e08701526101008601521515610120850152610140840152610180610160840152610180830190613208565b3461030f57600036600319011261030f5760206040517f16b9b21c34f72b61b038f4735d1e3b86ea577a372ef2c98f5d64e83848a713c28152f35b3461030f57602036600319011261030f576001600160a01b03612efa613062565b16600052601560205261014060406000206001600160a01b038154169060018101549060028101546003820154600483015460058401549060068501549260ff6007870154169460ff600960088901549801541697604051998a5260208a015260408901526060880152608087015260a086015260c0850152151560e08401526101008301521515610120820152f35b3461030f57602036600319011261030f576001600160a01b03612fab613062565b1660005260176020526020604060002054604051908152f35b3461030f57602036600319011261030f57600435907fffffffff00000000000000000000000000000000000000000000000000000000821680920361030f57817f7965db0b0000000000000000000000000000000000000000000000000000000060209314908115613038575b5015158152f35b7f01ffc9a70000000000000000000000000000000000000000000000000000000091501483613031565b600435906001600160a01b038216820361030f57565b602435906001600160a01b038216820361030f57565b90600182811c921680156130be575b60208310146130a857565b634e487b7160e01b600052602260045260246000fd5b91607f169161309d565b610180810190811067ffffffffffffffff82111761066657604052565b610140810190811067ffffffffffffffff82111761066657604052565b610100810190811067ffffffffffffffff82111761066657604052565b90601f8019910116810190811067ffffffffffffffff82111761066657604052565b90604051918260008254926131558461308e565b80845293600181169081156131c3575060011461317c575b5061317a9250038361311f565b565b90506000929192526020600020906000915b8183106131a757505090602061317a928201013861316d565b602091935080600191548385890101520191019091849261318e565b90506020925061317a94915060ff191682840152151560051b8201013861316d565b60005b8381106131f85750506000910152565b81810151838201526020016131e8565b90602091613221815180928185528580860191016131e5565b601f01601f1916010190565b60165481101561209d57601660005260206000200190600090565b601e5481101561209d57601e60005260206000200190600090565b9181601f8401121561030f5782359167ffffffffffffffff831161030f576020838186019501011161030f57565b6040519061329e826130e5565b6000610120838281528260208201528260408201528260608201528260808201528260a08201528260c08201528260e0820152826101008201520152565b156132e357565b606460405162461bcd60e51b815260206004820152600e60248201527f496e76616c696420616d6f756e740000000000000000000000000000000000006044820152fd5b1561332e57565b606460405162461bcd60e51b815260206004820152601560248201527f456d657267656e6379206d6f64652061637469766500000000000000000000006044820152fd5b9190820180921161063157565b9190820391821161063157565b60001981146106315760010190565b81156133a5570490565b634e487b7160e01b600052601260045260246000fd5b3360009081527fad3228b676f7d3cd4284a5443f17f1962b36e491b30a40b2405849e597ba5fb5602052604090205460ff16156133f457565b6134bd61340033613a37565b61349d601161340f6000613b70565b9260376040519485927f416363657373436f6e74726f6c3a206163636f756e7420000000000000000000602085015261345181518092602086880191016131e5565b83017f206973206d697373696e6720726f6c65200000000000000000000000000000008382015261348c8251809360206048850191016131e5565b01010301601f19810183528261311f565b60405191829162461bcd60e51b8352602060048401526024830190613208565b0390fd5b3360009081527f9d7ac59855a36a917de86cf11335ccc17e4300d5dfeadf9288f88851d6b39fb2602052604090205460ff16156134fa57565b6134bd61350633613a37565b61349d601161340f7f16b9b21c34f72b61b038f4735d1e3b86ea577a372ef2c98f5d64e83848a713c2613b70565b3360009081527fac7f456f33c5ee351ae3de46295d1da134dc7a37f62366914b5b4d70f151cdb0602052604090205460ff161561356d57565b6134bd61357933613a37565b61349d601161340f7f470f4f1717679395b6a9e0700797bfeeaa970f1643e72f5684d687c0be10fe27613b70565b80600052600060205260406000206001600160a01b03331660005260205260ff60406000205416156135d65750565b6134bd9061349d601161340f6135eb33613a37565b93613b70565b80600052600060205260406000206001600160a01b03831660005260205260ff60406000205416613620575050565b80600052600060205260406000206001600160a01b038316600052602052604060002060ff1981541690556001600160a01b03339216907ff6391f5c32d9c69d2a47ea670b442974b53935d1edc7fd64eb21e047a839171b600080a4565b67ffffffffffffffff81116106665760051b60200190565b5190811515820361030f57565b67ffffffffffffffff811161066657601f01601f191660200190565b805182101561209d5760209160051b010190565b8181029291811591840414171561063157565b60008091601654925b8381106137e5575081156133a5570660009060005b83811061375f575050505060006016541561374b57601690527fd833147d7dc355ba459fc788f669e58cfaf9dc25ddcd0702e87d69c7b5124289546001600160a01b031690565b80634e487b7160e01b602492526032600452fd5b6001600160a01b036137708261322d565b90549060031b1c1680600052601560205260ff6007604060002001541661379b575b50600101613704565b926137d4908460005260156020526127106137cd600260406000200154876000526029602052604060002054906136d3565b0490613372565b928383101561379257935050505090565b6001600160a01b036137f68261322d565b90549060031b1c1680600052601560205260ff60076040600020015416613821575b506001016136ef565b600191936127106137cd83613856946000526015602052600260406000200154906000526029602052604060002054906136d3565b9290613818565b620f4240810490633b9aca008110613881575080600a61387e920490613372565b90565b6305f5e100111561388f5790565b80601461387e920490613372565b6001600160a01b0361391f9116916040926000808551936138be878661311f565b602085527f5361666545524332303a206c6f772d6c6576656c2063616c6c206661696c6564602086015260208151910182855af13d156139c1573d91613903836136a3565b926139108751948561311f565b83523d6000602085013e613c29565b805190811591821561399f575b5050156139365750565b6084905162461bcd60e51b815260206004820152602a60248201527f5361666545524332303a204552433230206f7065726174696f6e20646964206e60448201527f6f742073756363656564000000000000000000000000000000000000000000006064820152fd5b819250906020918101031261030f5760206139ba9101613696565b388061392c565b606091613c29565b60ff600b5460081c1615613a20576021546016549060648202918083046064149015171561063157611175613a0461387e936006549061339b565b916127106137cd81613a1884600c546136d3565b0494836136d3565b60215490565b90815181101561209d570160200190565b600090613a44602a6136a3565b91613a52604051938461311f565b602a8352613a60602a6136a3565b6020840190601f1901368237835115613b5c576030905382516001101561374b576078602184015350602960005b60018211613ae3575050613a9f5790565b606460405162461bcd60e51b815260206004820152602060248201527f537472696e67733a20686578206c656e67746820696e73756666696369656e746044820152fd5b9091600f81166010811015613b48577f3031323334353637383961626364656600000000000000000000000000000000901a613b1f8486613a26565b5360041c918015613b34576000190190613a8e565b602482634e487b7160e01b81526011600452fd5b602483634e487b7160e01b81526032600452fd5b602482634e487b7160e01b81526032600452fd5b600090613b7d60426136a3565b91613b8b604051938461311f565b60428352613b9960426136a3565b6020840190601f1901368237835115613b5c576030905382516001101561374b576078602184015350604160005b60018211613bd8575050613a9f5790565b9091600f81166010811015613b48577f3031323334353637383961626364656600000000000000000000000000000000901a613c148486613a26565b5360041c918015613b34576000190190613bc7565b91929015613c8a5750815115613c3d575090565b3b15613c465790565b606460405162461bcd60e51b815260206004820152601d60248201527f416464726573733a2063616c6c20746f206e6f6e2d636f6e74726163740000006044820152fd5b825190915015613c9d5750805190602001fd5b6134bd9060405191829162461bcd60e51b835260206004840152602483019061320856fea26469706673582212205a209aa13796febc0dda0493f374e70751ee2116a27d5019c5111a5f73e3ddf364736f6c634300081c00332f8788117e7eff1d82e926ec794901d17c78024a50270940304540a733656f0dac7f456f33c5ee351ae3de46295d1da134dc7a37f62366914b5b4d70f151cdb0ad3228b676f7d3cd4284a5443f17f1962b36e491b30a40b2405849e597ba5fb5",
  "linkReferences": {},
  "deployedLinkReferences": {}
}